:020000040800F2
:100000000080002025D30008B1D300088DC9000866
:1000100000000000000000000000000000000000E0
:10002000000000000000000000000000CDD8000823
:10003000000000000000000085D9000881C9000808
:10004000B1D30008B1D30008B1D30008B1D3000880
:10005000B1D30008B1D30008B1D30008B1D3000870
:10006000B1D30008C9C90008D5C9000815CA0008DD
:10007000B1D30008B1D30008B1D30008B1D3000850
:10008000B1D30008B1D30008B1D30008B1D3000840
:10009000B1D30008B1D30008B1D30008B1D3000830
:1000A000B1D30008B1D30008B1D3000891C900084A
:0C00B000A1C90008B1C90008B1D30008C4
:1000BC0010B5064C2378002B07D1054B002B02D032
:1000CC00044800E000BF0123237010BD700A00201B
:1000DC000000000084890108044B10B5002B03D0EC
:1000EC000349044800E000BF10BDC04600000000FA
:1000FC00740A00208489010802780B78002A03D046
:10010C00013001319A42F7D0D01A70470023C25CFB
:10011C000133002AFBD1581E7047000002B471460F
:10012C0049084900095C49008E4402BC7047C0462E
:10013C0003B47146490840004900095A49008E44ED
:10014C0003BC7047002243088B4274D303098B42D3
:10015C005FD3030A8B4244D3030B8B4228D3030C8B
:10016C008B420DD3FF22090212BA030C8B4202D32D
:10017C001212090265D0030B8B4219D300E0090A55
:10018C00C30B8B4201D3CB03C01A5241830B8B425E
:10019C0001D38B03C01A5241430B8B4201D34B0347
:1001AC00C01A5241030B8B4201D30B03C01A5241AC
:1001BC00C30A8B4201D3CB02C01A5241830A8B4231
:1001CC0001D38B02C01A5241430A8B4201D34B021A
:1001DC00C01A5241030A8B4201D30B02C01A52417E
:1001EC00CDD2C3098B4201D3CB01C01A5241830932
:1001FC008B4201D38B01C01A524143098B4201D36C
:10020C004B01C01A524103098B4201D30B01C01A96
:10021C005241C3088B4201D3CB00C01A5241830810
:10022C008B4201D38B00C01A524143088B4201D33D
:10023C004B00C01A5241411A00D20146524110469D
:10024C007047FFE701B5002000F0F0F802BDC04692
:10025C000029F7D076E7704703460B437FD4002282
:10026C0043088B4274D303098B425FD3030A8B423E
:10027C0044D3030B8B4228D3030C8B420DD3FF22A8
:10028C00090212BA030C8B4202D31212090265D076
:10029C00030B8B4219D300E0090AC30B8B4201D329
:1002AC00CB03C01A5241830B8B4201D38B03C01A70
:1002BC005241430B8B4201D34B03C01A5241030BE7
:1002CC008B4201D30B03C01A5241C30A8B4201D398
:1002DC00CB02C01A5241830A8B4201D38B02C01A43
:1002EC005241430A8B4201D34B02C01A5241030ABA
:1002FC008B4201D30B02C01A5241CDD2C3098B429F
:10030C0001D3CB01C01A524183098B4201D38B011B
:10031C00C01A524143098B4201D34B01C01A5241BE
:10032C0003098B4201D30B01C01A5241C3088B4203
:10033C0001D3CB00C01A524183088B4201D38B00EE
:10034C00C01A524143088B4201D34B00C01A524190
:10035C00411A00D201465241104670475DE0CA0F67
:10036C0000D04942031000D34042534000229C4627
:10037C0003098B422DD3030A8B4212D3FC22890131
:10038C0012BA030A8B420CD3890192118B4208D307
:10039C00890192118B4204D389013AD0921100E069
:1003AC008909C3098B4201D3CB01C01A524183097D
:1003BC008B4201D38B01C01A524143098B4201D3AA
:1003CC004B01C01A524103098B4201D30B01C01AD5
:1003DC005241C3088B4201D3CB00C01A524183084F
:1003EC008B4201D38B00C01A5241D9D243088B42A5
:1003FC0001D34B00C01A5241411A00D20146634648
:10040C0052415B10104601D34042002B00D54942AB
:10041C00704763465B1000D3404201B5002000F0EA
:10042C0005F802BD0029F8D016E770477047C046A2
:10043C008446101C62468C46191C634600E0C0467C
:10044C001FB501F057FE002801D40021C8421FBD82
:10045C0010B501F0A1FD4042013010BD10B501F006
:10046C0049FE002801DB002010BD012010BDC04654
:10047C0010B501F03FFE002801DD002010BD012069
:10048C0010BDC04610B501F0C3FD002801DC0020F2
:10049C0010BD012010BDC04610B501F0B9FD0028FB
:1004AC0001DA002010BD012010BDC0468446081C96
:1004BC006146FFE71FB500F04FFB002801D4002177
:1004CC00C8421FBD10B500F0D3FA4042013010BD38
:1004DC0010B500F041FB002801DB002010BD01200D
:1004EC0010BDC04610B500F037FB002801DD002020
:1004FC0010BD012010BDC04610B500F0E1FA002877
:10050C0001DC002010BD012010BDC04610B500F06C
:10051C00D7FA002801DA002010BD012010BDC0461A
:10052C00002B11D1002A0FD1002900D1002802D0B4
:10053C000021C943081C07B4024802A140180290CC
:10054C0003BDC046E9FEFFFF03B4684601B502983F
:10055C0000F0B6F8019B9E4602B00CBC7047C0463A
:10056C00F0B515042D0C0F0001002E00C646844674
:10057C000004140C000C090C46434D4360436143CA
:10058C004019340C241800B5A54203D98020400230
:10059C0080464144250C6D18614659437A4330041A
:1005AC0049192404000C2018891880BCB846F0BDE9
:1005BC009E2110B5C905041CFFF7A8FF002803D124
:1005CC00201C00F0F5FD10BD9E21201CC90500F07B
:1005DC0027FC00F0EDFD80231B069C466044F2E7EF
:1005EC0070B500220C4B04000D00FFF755FF0028DE
:1005FC0004D12000290002F009FC70BD064B00223A
:10060C002000290002F052F802F000FC80231B06A7
:10061C009C466044F1E7C0460000E04170B505001F
:10062C000C000022002328002100FFF717FF0028F0
:10063C0008D12800210000F00FF802000B00100078
:10064C00190070BD80231B06E118280000F004F887
:10065C00002342428B41F2E770B500220B4B0D0098
:10066C00040001F0B7FDFFF7BBFF060002F034FCFD
:10067C000022074B01F0AEFD02000B002000290008
:10068C0002F014F8FFF7ACFF310070BD0000F03D34
:10069C000000F04170B50600080002F0EDFB0022EE
:1006AC00064B01F097FD0D000400300002F014FC25
:1006BC002B00220000F01EFE70BDC0460000F04171
:1006CC00F0B557464E464546DE46E0B504000D00F3
:1006DC009246994683B08B4230D82DD0494650462D
:1006EC0002F00EFD29000600200002F009FD331A6D
:1006FC009846203B9B4633D45A4653469340424639
:10070C001F00534693401E00AF423AD8AF4200D16F
:10071C0078E05B46A41BBD41002B00DA75E000229B
:10072C0000230092019301235A4693400193012325
:10073C0042469340009328E08242CFD90022002306
:10074C00009201930C9B002B01D01C605D60009803
:10075C00019903B0F0BCBB46B246A946A046F0BD19
:10076C00424620239B1A5246DA40414613004A4621
:10077C008A40170042461F43534693401E00AF4227
:10078C00C4D900220023009201934346002BD9D0F8
:10079C00FB0772081A4346467B080EE0AB4201D1B8
:1007AC00A2420CD8A41A9D41012024196D410021AC
:1007BC00013E24184D41002E06D0AB42EED9013E2D
:1007CC0024196D41002EF8D1009801995B4600194F
:1007DC006941002B24DB2B005A464446D3402A00A7
:1007EC00E2401C005B461500002B2ADB26009E40D5
:1007FC00330026004746BE403200801A99410090D3
:10080C0001919FE7A342BCD883E7424620230021F5
:10081C009B1A0022009101920122DA40019286E794
:10082C00424620239B1A2A0046469A402300F34056
:10083C00444613432A00E2401C005B461500002B83
:10084C00D4DA42462F002023260097409B1ADE4024
:10085C003B003343CDE7C046F0B54F464646D6463F
:10086C004502C0B547000C1C6D0A3F0EC60F002F89
:10087C0066D0FF2F6CD00023EA00802599469A465B
:10088C00ED0415437F3F60026100430A9846090E50
:10089C00E40F002948D0FF2910D08022D800D204C0
:1008AC000243904600207F394A4633007F1A0243A8
:1008BC006C4992008A586340DBB29746002B6DD18D
:1008CC000220FF3F33E0002398462600454682462F
:1008DC005346022B00D17FE0032B00D194E0012B77
:1008EC0017D038007F3000285FDD6B0704D00F2352
:1008FC002B40042B00D004352B0103D538005A4B68
:10090C0080301D40FE2867DCAD016D0AC0B202E0EC
:10091C001E0000200025C0052843F6073043E0BC2C
:10092C00BA46B146A846F0BD002B2BD101204A4651
:10093C0033004E49024392008A586340DBB297461B
:10094C00002D13D104239946033B00279A469AE7BE
:10095C00002D05D108239946063BFF279A4692E7BE
:10096C000C239946093BFF279A468CE7280002F096
:10097C00A9FB7627431F9D4000237F4299469A4648
:10098C003F1A80E7180002F09DFB4246431F762178
:10099C009A404942091A9046002085E7FF2103201E
:1009AC0082E71E00FF200025B5E701231B1A1B2B35
:1009BC00AFDC9E372900BD40D9406A1E95410D43DE
:1009CC006B0704D00F232B40042B00D004356B0194
:1009DC0044D5012000259EE7FF2000259BE78025BC
:1009EC000026FF20ED0396E7002398468020C003E5
:1009FC00054209D04346034206D1454605436D02E4
:100A0C002600FF206D0A86E78020C00305436D0297
:100A1C00FF206D0A7FE741466A014801824219D2E4
:100A2C001B210025013F012614006D005200002CF3
:100A3C0001DB904201D8121A354301390029F3D158
:100A4C00501E824138007F301E001543002800DD07
:100A5C004BE7AAE71A210125121AE4E7AD010020A1
:100A6C006D0A58E7B0890108FFFFFFF7F08901080C
:100A7C0070B542004E024C0045026D0A120EC30FB7
:100A8C00760A240EC90FFF2A0FD0FF2C11D001209B
:100A9C00A24200D070BDB542FCD18B420DD0002AD1
:100AAC00F8D12800451EA841F4E70120002DF1D112
:100ABC00EBE70120002EEDD1E9E70020EAE7C04684
:100ACC00F0B5420046024D024C00C30F760A120EDE
:100ADC006D0A240EC80FFF2A1FD0FF2C10D0002A3D
:100AEC001FD171427141002C01D1002D1ED0002963
:100AFC000ED183421ED00221581E08400138F0BD91
:100B0C00002D26D1002AF4D1714271410029F0D078
:100B1C000028F4D101204042F1E7002E19D1FF2C1E
:100B2C00EED0002CE5D1002DE3D1E4E70020002E1F
:100B3C00E5D0E0E7A24205DCEADBAE4202D8E7D31F
:100B4C000020DCE741424141484202210840013883
:100B5C00D5E702204042D2E7F0B5420046024D02F2
:100B6C004C00C30F760A120E6D0A240EC80FFF2A12
:100B7C000DD0FF2C0FD0002A23D171427141002CD3
:100B8C000FD1002D0DD10020002E14D00DE0002E21
:100B9C0010D1FF2C15D1002D0CD1002A03D171429C
:100BAC007141002908D1834210D00221581E0840FF
:100BBC00013800E00220F0BD0028FCD101204042A9
:100BCC00F9E7002CEFD1002DEDD1EEE7A24205DCC8
:100BDC00F2DBAE4202D8EFD30020ECE741424141B8
:100BEC004842022108400138E5E7C046F8B55746AF
:100BFC004E464546DE464402E0B545000F1C640AED
:100C0C002D0EC60F002D47D0FF2D4DD00023802078
:100C1C009A469B46E400C00404437F3D7802430A95
:100C2C0099467A00FB0F9846120E4B4644D0FF2A89
:100C3C0011D0D8008023DB040343994600207F3A6F
:100C4C00AD18474653467740691C0F2B3FD8724A64
:100C5C009B00D3589F46FF35002B00D079E05246BD
:100C6C0002231A4392460220EBE747464C46834642
:100C7C005B46022B28D0032B00D1C6E0012B4FD1B1
:100C8C0000200024C005FF0720433843F0BCBB46BE
:100C9C00B246A946A046F8BD002C71D104239A4651
:100CAC00033B00259B46B9E7002C63D108239A46E9
:100CBC00063BFF259B46B1E7002B50D15246013332
:100CCC001A4392460120BCE7FF200024DAE748468D
:100CDC00260C2404220C0404240C4B4620001B0C70
:100CEC00504374435A435E431219030C9B189C42A5
:100CFC0003D9802252029446664400041A04000C64
:100D0C0012189401601E84411B0C920E9B19144303
:100D1C009B011C431B0172D50120630804401C433A
:100D2C0008007F3000283CDD630704D00F232340EC
:100D3C00042B00D00434230103D580310800374B39
:100D4C001C40FE28C0DCA401640AC0B29AE737003C
:100D5C008EE7524603231A439246032071E7484616
:100D6C0002F0B0F94A46431F9A402D1A91460020D2
:100D7C00763D66E70C239A46093BFF259B464DE7DB
:100D8C00200002F09FF97625431F9C4000236D4202
:100D9C009A469B462D1A41E780240027FF20E40346
:100DAC0070E701231B1A1B2B00DD69E79E31200025
:100DBC008C40D840631E9C410443630704D00F232E
:100DCC002340042B00D0043463011AD501200024E5
:100DDC0058E78020C003044209D04B46034206D199
:100DEC004C46044364024746FF20640A4AE78020CD
:100DFC00C003044364023700FF20640A42E7290061
:100E0C008EE7A4010020640A3CE78020C003044361
:100E1C006402FF20640A35E7308A0108FFFFFFF700
:100E2C00F0B54646D6464F4643025B0ADA00944676
:100E3C004A02C0B54400560A051CB046240E4E00AA
:100E4C0092091F0020009246ED0F360EC90FFF2E9F
:100E5C0000D17FE0012251408D4251D0A21B91461E
:100E6C00002A00DC7EE0002E00D199E0FF2C00D19E
:100E7C008CE080235246DB041A4392464A460123F7
:100E8C001B2A08DC53462021D340891A52468A403B
:100E9C00511E8A4113436246D31A5A0100D4F3E01F
:100EAC009B019E09300002F00DF905388640844202
:100EBC0000DDF7E03200041B20200134E240041B6B
:100ECC00A64033005E1EB341002413435A0704D0DE
:100EDC000F221A40042A00D004335A0100D4D6E061
:100EEC00621CFE2C00D1DAE09B015F0AD0B2C00577
:100EFC003843ED072843E0BCBA46B146A846F0BDDE
:100F0C00A21B9146002A63DD002E00D199E0FF2C34
:100F1C003CD080235246DB041A4392464A460123B6
:100F2C001B2A08DC53462021D340891A52468A409A
:100F3C00511E8A41134363445A0100D4A4E0013486
:100F4C00FF2C00D1ABE0012297491A405B080B4003
:100F5C001343BBE7002A32D08D4235D0FF225242D8
:100F6C009146A1444A46002A51D0301B002C00D097
:100F7C009CE06346002B00D1DFE00138002800D153
:100F8C00F7E0FF2E00D099E00D004346002B00D176
:100F9C0085E08027FF031F437F02FF207F0AA6E71F
:100FAC005246002A74D0012252429046C1444A460D
:100FBC00002A00D1C8E0FF2C00D05FE7E6E7012251
:100FCC005140A94200D049E7FF2252429146A14428
:100FDC004A46002A43D0311B002C00D18CE0FF2E56
:100FEC0000D192E080236246DB041A43944601232D
:100FFC001B2909DC202063466246CB40411A8A40FB
:10100C001100481E81410B433400534494E7FE22E7
:10101C00661C324264D1002C00D082E06346002B67
:10102C0000D1ABE05346002B00D160E7634652463B
:10103C009B1A5A0100D4AAE0634652460D00D31AFB
:10104C0044E75246002A23D0012252429046C14422
:10105C004A46002A75D0FF2C00D05FE796E7FE26A3
:10106C000134264253D1002872D16346002B00D1A3
:10107C0093E05346002B00D139E7634400245A0116
:10108C0002D54A4A013413405A0700D020E7DB0846
:10109C00FF2C00D17AE75B025F0AE0B227E7FF2062
:1010AC00002724E7414B241A33400FE7FF2E00D1D1
:1010BC006AE780236246DB041A43944601231B280B
:1010CC0009DC202463466246C340201A824010008B
:1010DC00441EA041034352460D003400D31ADCE6F3
:1010EC00634652469E1A730117D4002E00D0D9E6DF
:1010FC00002500200027FAE66346002B44D0013976
:10110C0000294CD0FF2E00D071E743463EE7FF2C60
:10111C00C5D0524662445308B6E763460D00D61A52
:10112C00C0E66246002A16D15346002B00D02BE7AE
:10113C0080270025FF20FF03D9E60D00434634002D
:10114C00A6E753466344F7E6634652469B1AA4E669
:10115C006246002AD9D05246002A00D116E78022D6
:10116C00D203134200D111E74046104200D00DE7E4
:10117C000AE752460D003400D31A8EE65346002B74
:10118C0008D00D004746B2E64346340080E7002BFA
:10119C0000D079E700250027A9E64746A7E6534685
:1011AC0034006344C8E6C046FFFFFF7DFFFFFFFB32
:1011BC0041024200C30F490A0020120E7E2A03D9B5
:1011CC009D2A02D9094A98187047802000040143CF
:1011DC00952A07DC9620821AD1404842002BF3D185
:1011EC000800F1E7963A9140F7E7C046FFFFFF7F12
:1011FC0070B5002813D0C317C5185D40C40F280064
:10120C0001F060FF9E2301001B1A962B0FDC0828AF
:10121C0001DD08398D406D026D0AD8B202E0002460
:10122C0000200025C0052843E407204370BD992BFE
:10123C000BDD05222E00121AD64002001B329540FF
:10124C002800451EA84135000543052901DD4A1F2C
:10125C0095402A00084E3240680709D00F202840DC
:10126C00042805D00432500102D59F2332405B1A6A
:10127C009201550AD8B2D5E7FFFFFFFB70B5051EEA
:10128C000ED001F01FFF9E2304001B1A962B0CDCC2
:10129C00082801DD083CA5406D026D0AD8B201E0BA
:1012AC0000200025C005284370BD992B09DD0200E4
:1012BC0029001B3291404A1E91410522121AD54039
:1012CC000D43052C01DD621F95402900084E31406D
:1012DC006A0709D00F202840042805D004314A01A0
:1012EC0002D59F2331401B1B89014D0AD8B2D9E787
:1012FC00FFFFFFFBF0B54F46D64646460D000100FA
:10130C001800C0B517002B035A0A4B0F1343CA0021
:10131C00914602036E004100520AEC0F7D0F1543FB
:10132C00760D490DC00F8246AC46FF00721A8442FE
:10133C0000D198E0002A00DC81E0002900D1B6E061
:10134C00C9498E4200D172E180212800090408436A
:10135C008446382A00DD5EE11F2A00DDEEE1202004
:10136C0039006546801A8740D14085400D433900CD
:10137C004F1EB9416746D7402943DB1B4A46551AD5
:10138C00A945894149425B1A984643461B0200D441
:10139C00CCE043465B025B0A98464346002B00D1E7
:1013AC002CE1404601F08EFE010008392022280075
:1013BC004346521A8B40D0408D4003438E4200DD91
:1013CC0017E18E1B721C1F2A00DDA7E120211800DB
:1013DC002E00891A8D408840D640D340691E8D411D
:1013EC0030439846002605436B0709D00F232B404A
:1013FC00042B05D02B1DAB42AD416D42A8441D0002
:10140C0043461B0200D494E0974B721C9A4200D1C5
:10141C009DE04146954BED0819400B0052054907DC
:10142C005B0229431B0B520D12051343E4072343A4
:10143C0008001900E0BCBA46B146A846F0BD002A27
:10144C0043D08A1B002E00D02AE14C461C4300D10D
:10145C00D1E1541E012A00D11FE2834DAA4200D1D2
:10146C0072E2220023E1002A00DC98E0002942D03D
:10147C007D498E4200D1DAE080212800090408431E
:10148C008446382A00DD29E11F2A00DC87E111009F
:10149C0065462039CD40202A04D040206146821A6E
:1014AC0091400F4339004F1EB9410D431BE12900F8
:1014BC00394300D1B5E0511E012A00D1ABE16A4895
:1014CC00824200D1B2E10A0043E76949751C0D4222
:1014DC0000D0CFE0002E00D093E14946194300D153
:1014EC00D1E16146394300D0E3E149465807C908C8
:1014FC000143DB0826E02900394300D191E0511E5D
:10150C00012A05D05848824200D18FE10A00B8E781
:10151C003D004D444D4589416344984649428844B9
:10152C00434602261B0200D5EBE0013E6B0700D0C0
:10153C005CE74346E9085A0711433200DB084A4886
:10154C00824221D01B0352051B0B520D6CE700236A
:10155C00002169E72A003A4369D04A465807D10866
:10156C00DA0880231B0308431A4207D02900ED0830
:10157C001D4203D12A00FF0848073843430FC1001E
:10158C005B07C908194313000A001A4300D113E280
:10159C008022120313431B03334A1B0B44E7002A1C
:1015AC004BD08A1B002E00D1E7E02F48814200D19E
:1015BC0095E1802000040343382A00DD43E11F2A13
:1015CC0000DDDBE120201D004E46801A8540D64010
:1015DC0035434E4686403000D340461EB0419C44B5
:1015EC000543ED19BD429B415B42634498460E0096
:1015FC007FE01E4A761A13409846F5E6280001F063
:10160C0061FD010018311F2900DCCFE62B000838E2
:10161C0083400025D2E662463A4311004F1EB94181
:10162C00ACE649465807C9080143DB0887E7494639
:10163C005A07C9081143DB08A6E70D49701C08427C
:10164C0000D0BBE0002E00D014E14946194300D174
:10165C0075E12900394300D07EE149465807C90895
:10166C000143DB086EE7C046FF070000FFFF7FFF6A
:10167C00FE0700004946CD1B6146581AA945894111
:10168C004942884601004046091A8846090200D59D
:10169C00A6E04146294300D07FE60023002451E711
:1016AC00C74CA14200D1C7E0802424042343382A2C
:1016BC0054DC1F2A00DDCCE020244846A41A1D006F
:1016CC004E46A040D640A5400400D3406246354368
:1016DC00661EB441D31A9C46254344E062463A4305
:1016EC0015006F1EBD414D444D4589414942884608
:1016FC00984443461B0200D418E7B14B01369E4276
:10170C0049D04246AF4B01211A4013006A080D40E4
:10171C001543D9075B0898460D4365E618001F3E34
:10172C00F040202A03D040218A1A93401D43691EA1
:10173C008D410023002698460543F7E611006546C7
:10174C002039CD40202A04D040206146821A914095
:10175C000F4339004F1EB94129430FE64A46134344
:10176C001D006B1E9D417D1BAF429B4162465B423F
:10177C00D31A984654460E0007E64846184300D143
:10178C00B3E0501E012A00D10DE18D4DAA4200D1CB
:10179C00A5E0020010E732000023002144E62021DE
:1017AC003800891A65468F408D40D040791E8F4194
:1017BC0005433D436746D740DB1994E7804A904286
:1017CC0000D1ECE03900494449459241634452420E
:1017DC009B18DD0749085B08984606000D43A5E6F3
:1017EC004A46BD1AAF42894162464942D31A5B1A36
:1017FC0098465446D1E56C07F9082143EB080400E0
:10180C009DE64A461A4375D16146394314D180236B
:10181C0000241B03BCE64A46D51BA94589416246F8
:10182C0049429B1A5B1A98460126AEE54A46D108F6
:10183C005A071143DB08A7E66346F9085A075446D2
:10184C001143DB08A0E64A4613431D006B1E9D4165
:10185C00C7E614001E00203CE640202A05D0402498
:10186C00A21A93404A461A4391464D466B1E9D411F
:10187C00354378E74A461A4300D06BE66B07F90804
:10188C001943EB0880E66146394354D06346F908A6
:10189C005C072143DB08040054E64A46BD1AAF42FC
:1018AC00894162464942D31A5B1A984604000126C4
:1018BC006BE54A46D51BA9458941624649429A1AAD
:1018CC00521A9046120232D54A46BD1AAF4289418D
:1018DC0062464942D31A5B1A9846040084E5634673
:1018EC00F9085A071143DB084EE6F908680701436B
:1018FC00EB0824E662463A4300D198E64A46D10802
:10190C005A071143DA0880231B031A4208D0604699
:10191C00C5081D4204D154462A00F908430719434F
:10192C004B0FC9005B07C908194313002CE641464D
:10193C00294300D0FAE500230A00002402E66B07D5
:10194C00F9081943EB08FDE56346F9085B071943F1
:10195C0063460400DB0817E63D004D4463444D45E7
:10196C00894198464942884443461B0200D4DDE530
:10197C004246144B01261A409046D7E510001E0033
:10198C002038C640202A05D04020821A93404A466F
:10199C001A4391464D466B1E9D41354321E602008C
:1019AC000023002140E54A46D519BD4289416344D4
:1019BC00984649428844B3E50021014A0B0033E5BF
:1019CC00FF070000FFFF7FFFF0B557464E46454628
:1019DC00DE46E0B5814605000C03480092461F0028
:1019EC0085B0240B400DCE0F002859D0874B984260
:1019FC0000D198E06B0FE4001C4380231B042343AD
:101A0C009846834BED009B460023994683440093F4
:101A1C003C037B005046240B5B0DFF0F002B67D063
:101A2C007A4A934218D07A49420F8C46E4005946C0
:101A3C001443802263441204CB1A14439B46C20005
:101A4C00002033007B409A464B460F2B00D9EFE029
:101A5C0070499B00CB589F466F4B52469C46224385
:101A6C00E344002A00D095E04946022319438946F5
:101A7C0000240220E5E700230024002552461B0524
:101A8C002343D20713432800190005B0F0BCBB4612
:101A9C00B246A946A046F0BD002400255B4BEDE7FD
:101AAC004B462343984600D189E0002C00D1E0E15D
:101ABC00200001F007FB010002000B391D235B1A0B
:101ACC0049461000D940083884400B004D4623434A
:101ADC009846854051483C03831A9B4600239946FF
:101AEC0000937B005046240B5B0DFF0F002B97D10E
:101AFC005246224355D0002C00D1CAE1200001F0FF
:101B0C00E1FA02000B3A1D2301009B1A52460839D8
:101B1C00DA408C40144352468A40414B58449B4611
:101B2C00834400208DE74B462343984640D108233D
:101B3C009946063B00258346009369E7B246009B15
:101B4C00022BA9D0032B00D111E2012B93D0354AE3
:101B5C005A44002A00DC3CE16B0700D0A7E1ED08F9
:101B6C004346DB0106D542462F4B1A409046802255
:101B7C00D2005A442D4B9A428EDC434652055807EC
:101B8C005C020543240B530D78E7BA46A0461500BA
:101B9C000090D4E74A4603231A4391460320524649
:101BAC004FE749460123194389460024012048E7A1
:101BBC000C239946093BA0468346009328E704234F
:101BCC00994600239B4601330025009320E7002310
:101BDC0080249A4600250D4B24034FE78023414671
:101BEC001B03194208D01C4206D11C432403BA46DD
:101BFC001500064B240B41E78024434624031C4369
:101C0C002403B246014B240B38E7C046FF07000003
:101C1C0001FCFFFF708A010801F8FFFF0DFCFFFFBC
:101C2C00F3030000FF030000FFFFFFFEFE070000B0
:101C3C00444500D216E100D111E101235B429C46E0
:101C4C002E0040460025E3442302140E1C431B0CBB
:101C5C00994623041F0C1202494600920197FEF785
:101C6C00F7FA02007A430B04310C804619438A427E
:101C7C000BD901235B429C460919E0448C4204D8E1
:101C8C008A4202D9831E98460919881A4946FEF7DA
:101C9C00DFFA09048C4631046646019A090C42436A
:101CAC00030031438A4204D90919013B8C4200D804
:101CBC0011E1891A4246009E12041A43330C1F008C
:101CCC00100C9046029313043204160C32001B0CB9
:101CDC005A4303967B4346437843170CBC469B19E7
:101CEC0063449E4203D980267602B44660441E0C9F
:101CFC00301816041B04360C9E19814200D29CE04D
:101D0C0000D197E0AE1B091AB54280414042081A37
:101D1C00844200D111E14946FEF79AFA019A0B046C
:101D2C004243310C050019438A4207D90919013D78
:101D3C008C4203D88A4201D9851E0919881A494652
:101D4C00FEF786FA09048C4631046646019A090CA2
:101D5C004243030031438A4207D90919013B8C42A3
:101D6C0003D88A4201D9831E0919039E891A3200AD
:101D7C002D041D43029F2B041B0C5A437B439C4692
:101D8C00280C4643130CB444634478439E4203D955
:101D9C0080267602B44660441E0C12041B04120CFE
:101DAC0030189B18814206D302D001231D43CEE686
:101DBC00002B00D1CBE661186E1EA14200D2A4E02C
:101DCC00814200D2C9E000D1D9E03500EDE7012510
:101DDC006D420121891A382900DD4CE61F2900DCEF
:101DEC007FE01F235B429A1A4346D340202904D03C
:101DFC004446654A5A44944025436A1E954107223D
:101E0C002B43150000241D401A4200D1A1E00F22E3
:101E1C0000241A40042A00D198E01A1D9A429B41D2
:101E2C005B42E4181300220200D48FE0012300244B
:101E3C00002523E6B54200D364E743465A1E009BB7
:101E4C009C4665441F009D429B415B421B19C9186F
:101E5C008C423AD2884263D860D0904652E7AA426C
:101E6C0000D9EAE64346DE0758086B081E43ED0727
:101E7C00EAE6484601F026F901000200153120324D
:101E8C001C2900DC1AE64B4608388340002598468E
:101E9C0020E601F017F903001A00153220301C2A35
:101EAC0000DC30E65446083B00229C4035E60F230C
:101EBC002B40042B00D152E605235B42AB429B41E5
:101ECC0004355B42ED0898444AE68C42C5D1AF42DA
:101EDC00C0D9904616E78A4200D8EAE6831E091953
:101EEC00E7E62A4A28005A44434695409340C840A6
:101EFC006A1E9541444603432B43CC405A0792D06B
:101F0C000F221A40042A88D18DE73500814200D077
:101F1C004BE7009A934200D047E718E6AE429CD9B3
:101F2C0002235B429C46009BE0449C4665449D42D8
:101F3C009B415B421B19C918E4E6154A5A44002A16
:101F4C0000DC44E701230025984409E66507640298
:101F5C00240BDB081D43002390E5009E023D72001C
:101F6C00B242BF417F423C1909190092CEE780244E
:101F7C00434624031C432403064B240B7EE5009AA2
:101F8C009A42EAD33500C4E73E0400001E04000068
:101F9C00FF030000FF070000F0B54F464646D6464B
:101FAC00944691461A03120B184DC0B54C000F0302
:101FBC0092465A00060080463F0B0120640DC90F63
:101FCC00520DDB0FAC420AD0AA4203D0944201D18D
:101FDC0057450DD0E0BCBA46B146A846F0BD3D0011
:101FEC003543F7D1A242F5D1524665462A43F1D189
:101FFC000120C845EED1994206D0002CEAD13E43CF
:10200C003000461EB041E5E70020E3E7FF07000083
:10201C00F0B54E4645465746DE4604001800E0B57E
:10202C0016001B031B0B324D0F034A00994643004D
:10203C00A446B0463F0B520DC90F5B0DC00FAA4210
:10204C0029D0AB4218D0002A2AD13C43A346654282
:10205C006541002B02D14C46264327D0002D15D1CB
:10206C00814228D00220013908400138F0BCBB461F
:10207C00B246A946A046F0BD4D462E432FD1002AAC
:10208C00EED13C4365426541002DE9D00028EDD1ED
:10209C0001204042EAE73D00254320D19342EBD09A
:1020AC00002BDDD14C462643DAD1DBE75B46002022
:1020BC00002BDBD0D6E79A420ADCE7DB4F45D1D8C0
:1020CC0010D000204F45D1D20029E1D00800CDE737
:1020DC00434258410223404218400138C6E70220CF
:1020EC004042C3E7C445BDD80020C445BED2EBE78F
:1020FC00FF070000F0B54E4645465746DE46040045
:10210C001800E0B516001B031B0B314D0F034A00E2
:10211C0099464300A446B0463F0B520DC90F5B0DC8
:10212C00C00FAA4211D0AB4214D0002A2FD13C438D
:10213C00A34665426541002B14D14C46264311D170
:10214C005B460020002B17D010E03D00254312D138
:10215C0093421CD14D462E430DD1002A04D13C4351
:10216C0065426541002D0DD1814216D00220013906
:10217C000840013800E00220F0BCBB46B246A9463C
:10218C00A046F0BD0028F7D101204042F4E7002B17
:10219C00EAD14C462643E7D1E8E79A4206DD4342B2
:1021AC0058410223404218400138E5E79A42E9DBE6
:1021BC004F45DBD806D000204F45DDD20029E3D0B7
:1021CC000800D9E7C445D1D80020C445D4D2F5E7DE
:1021DC00FF070000F0B557464E464546DE46E0B5D3
:1021EC0098460C034B000600924687B0240B5B0DFF
:1021FC00CF0F002B6CD0DD4A934200D186E0420F0A
:10220C00E4001443802212041443D94AC5009446B6
:10221C0063440093002399469B46434642461E0363
:10222C00D20F5B0050469046360B5B0D00D178E028
:10223C00CE4A93421DD0CE49420F8C46009963443E
:10224C00F6008C46164380229C44120463461643C7
:10225C00C200002000930099434601318C46494648
:10226C007B4001930F2900D97EE0C24B890059585D
:10227C008F465246009B324300D056E1BB490026A4
:10228C008C46634449460093022319438946022035
:10229C00E1E7434601933400150083465B46022B6D
:1022AC005ED0032B00D1F3E1012B00D018E100220A
:1022BC0000240025019B12052243DB071A4328004A
:1022CC00110007B0F0BCBB46B246A946A046F0BD13
:1022DC002500054300D141E1002C00D1ADE12000E7
:1022EC0000F0F0FE010002000B391D2310005B1AF8
:1022FC003100350008388440D94085400C439E4855
:10230C00831A0093002399469B4686E705002543D4
:10231C0000D01CE1082200930223002491469B4626
:10232C007BE75246324300D10AE1002E00D176E120
:10233C00300000F0C7FE02000B3A1D2301009B1A6F
:10234C0052460839DA408E40164352468A40009B6A
:10235C008949181A03008C466344002000937AE7DD
:10236C0000240025814AA5E72F0C2D042D0C2B00F1
:10237C00110C1204120C53439846130028007B4393
:10238C00994648434844834640460B00000C82461D
:10239C0058467B4350440293814506D99A46802384
:1023AC005B029946CA4453460293030C9B46434630
:1023BC001B0400041B0C9846030043440493330C89
:1023CC0099462B003604360C7343984633007B43F6
:1023DC009A464B465D435F4343465544180C40199F
:1023EC00824503D980235B029A465744050CEB19AE
:1023FC00059343461D042D0C00044019250C2404A0
:10240C00240C270057436A4390462A003B0C9A46FB
:10241C004A436143414451448344884503D9802352
:10242C005B02984642443F040B0C3F0C0904C9194B
:10243C00270098464B4677435C436E435D433B0C09
:10244C009946A4194C4442440395A64204D98023CE
:10245C005B02984645440395029B3F045B441E0077
:10246C008342804123049846059B3F0C4744984681
:10247C0076188E428941474440423D18A8469346FF
:10248C0049428A46C3449F42BF4180458041039BD9
:10249C00DA449846534640427F420743240C934506
:1024AC0092418A4589413F19DC0D049B75021D43FD
:1024BC00681E85415346524249420A43BF1847445D
:1024CC00F60D7F0235435A023C431543FB0100D401
:1024DC00C1E001216A080D401543E2071543640869
:1024EC0026496144002956DD6B0709D00F222A408A
:1024FC00042A05D02A1DAA42AD416D42641915006B
:10250C00E30104D580211E4AC900144061441D4AD0
:10251C00914200DD24E76207ED086402490515438A
:10252C00240B4A0DC6E60197B8E6104A03209446E0
:10253C0063444A46009303231A43914652468AE663
:10254C0049460123194389460026012083E60C22C3
:10255C0000930323050091469B465EE604239946AF
:10256C0000230093013300249B4656E6FF0700002E
:10257C0001FCFFFFB08A01080DFCFFFFFF03000008
:10258C00FFFFFFFEFE070000002380240025444AC5
:10259C00019324038EE60120401A382800DD86E6DC
:1025AC001F285BDD1F2223005242511ACB40190019
:1025BC00202803D03B4A6244944025436A1E95412F
:1025CC002A000A4307210D000024154011425BD05C
:1025DC000F2100241140042953D0111D9142924126
:1025EC005242A4180A0023024BD5012200240025D4
:1025FC0060E680231B031C4209D01E4207D13343E3
:10260C001C0343461500240B254A019352E68022F5
:10261C00120314432403224A240B01974AE600F0C8
:10262C0051FD03001A00153220301C2A00DC84E610
:10263C005646083B00229E4089E600F043FD01000F
:10264C000200153120321C2900DC4EE6340008381B
:10265C000025844053E6009B9C4641E7124922002A
:10266C0061442E008D408A40C640691E8D41324324
:10267C002A43C4405307B6D00F2111400429ACD1D2
:10268C00B1E765076402240BD2081543002211E65A
:10269C008022120314432403014A240B0AE6C04689
:1026AC00FF0700003E0400001E040000F8B557466A
:1026BC004E464546DE460400E0B51F0010000B03F5
:1026CC00620F4E00CD0F5B0A39031343490AE20037
:1026DC00440F2143C24C91469246C0007A0080467A
:1026EC00760D520DFF0FA24200D1B4E001246740D9
:1026FC00BB46BD4200D188E0B41AA446002C00DCD5
:10270C00B2E0002A00D1C5E0B54A964200D18BE276
:10271C008022120411436246382A00DDA1E11F2AEF
:10272C0000DD16E220270C00BF1ABC400200A046B8
:10273C006446B840E240444614430200501E8241B5
:10274C006046C14022435B1A49468C1AA14592410E
:10275C0052429B1A984643461B0200D417E143464B
:10276C005B025B0A98464346002B00D16CE1404665
:10277C0000F0A8FC0200083A202120004346891AE8
:10278C009340C84094400343964200DD57E1961BAA
:10279C00711C1F2900DDCBE1202218002600521AE3
:1027AC0094409040CE40CB40621E944130439846BA
:1027BC0000260443630709D00F232340042B05D0C4
:1027CC00231DA342A4416442A0441C0043461B02A7
:1027DC0000D4DFE0824B01369E4200D1FBE0424642
:1027EC00804BE4081A401300710552075B02224328
:1027FC001B0B490D0905ED07194329431000F0BCCB
:10280C00BB46B246A946A046F8BDB41AA446002C55
:10281C0058DD002A00D19EE0714A964200D13BE17E
:10282C008022120411436246382A00DDC1E01F2ABF
:10283C0000DCBBE10C00203AD44022006446202C82
:10284C0004D040273F1BB940084380464446611ED4
:10285C008C411443B1E00C0004432AD0BB46BD426A
:10286C002DD0614CA446B4446446002C5CD0941B1F
:10287C00A446002E00D015E14D461D4300D1C3E106
:10288C00651E012C00D10CE2554EB44200D1F8E18A
:10289C00AC460EE10A00024300D136E12200013AB7
:1028AC00012C00D1C6E14E4CA44500D1F4E0944675
:1028BC0031E701246740BB46BD4200D01CE74A4CBF
:1028CC00A446B4446446002C00D1CFE0941BA4462B
:1028DC00002E00D15CE1424EB24200D1ECE18026E8
:1028EC00360433436446382C00DDB3E11F2C00DD85
:1028FC0038E22026361B1C00B4404F46A0466446E6
:10290C00E74044463C434F46B7403E00771EBE412D
:10291C0034436646F340C918241884429B415B42F9
:10292C009846160088444EE0304A741C144200D07D
:10293C00D6E04A461A43002E00D05BE1002A00D1B3
:10294C00A5E10A00024300D0BBE14A465907D20870
:10295C000A43DB0827E00A00024300D174E122009D
:10296C00013A012C05D01E4CA44500D194E09446AC
:10297C0059E74844484592415B1898460400524236
:10298C009044434602261B0200D5C4E0013E630777
:10299C0000D011E74346B4465907E2080A43DB0866
:1029AC000F498C4540D061461B0349051B0B490D53
:1029BC0020E701430C00611E8C414C444C45924174
:1029CC0052429046984443461B02E0D5044B0136D4
:1029DC009E4200D09FE03100002300220AE7C0464F
:1029EC00FF070000FFFF7FFF01F8FFFFFE0700005D
:1029FC00002A00D160E10A0002434DD04A465C0730
:102A0C00D20822438024DB082403234207D0CE08BB
:102A1C00264204D15D463300C20849070A43510FD0
:102A2C00D200D20849070A431100194300D1C8E16A
:102A3C00802109030B431B03D5491B0BDAE6D5494F
:102A4C00B61A0B409846B5E6200000F03BFB02009E
:102A5C0018321F2A00DC8FE623000838834000243C
:102A6C0092E608430200501E82416DE6CA4C721C6D
:102A7C00224200D0ADE04A461A43002EB8D1002ABB
:102A8C0000D158E10A00024300D059E14A465907E7
:102A9C00D2080A43DB0886E74A465907D2080A439C
:102AAC00DB08C1E7BA4DAA4200D11EE180252D04F6
:102ABC002B436446382C5DDC1F2C00DDD0E0202538
:102ACC0067462D1B4E461C00FE40AC4034434E4620
:102ADC00AE403500FB406E1EB541C91A2C434EE08A
:102AEC004A46141AA1459241524290465F1A3A0046
:102AFC004746D21B9046120200D58BE04246224339
:102B0C0000D030E6002300254DE74A465907D2088D
:102B1C000A43DB0844E742469E4B61081A40130007
:102B2C00012214400C43DA075B089846144341E633
:102B3C001A001F3EF2401600202903D04022511AE1
:102B4C008B401C43621E944100233443984600265C
:102B5C001DE70C00203AD44022006446202C04D0FF
:102B6C0040273F1BB940084380464446611E8C41B8
:102B7C002243E9E54C4623431C00631E9C41041B85
:102B8C00A0429B415B42CB1A98465D461600E2E59B
:102B9C004E461E4300D1AEE0661E012C00D1FDE076
:102BAC007B4FBC4200D107E1B4469BE66446202231
:102BBC00121B0C00944007009040A0466446421E35
:102BCC0090416246E7404446D1403C4304435B1885
:102BDC00F3E66F4CA24200D1D5E048445B1848455F
:102BEC00894149425B18DC0740085B08984616008F
:102BFC000443CCE6002A00D082E00A00024340D114
:102C0C00802300251B0313E74B07C2081A435D46BC
:102C1C00CB08C5E64A46841AA0429241CB1A5242CE
:102C2C009B1A98465D469EE54A465907D2080A43C8
:102C3C00DB08F9E64A46141AA14592415B1A524246
:102C4C009B1A9846012686E54A465907D2080A433C
:102C5C00DB08A5E64C4623431C00631E9C415BE647
:102C6C0065461E00203DEE40202C05D040252D1B36
:102C7C00AB404C461C43A2465446631E9C41344315
:102C8C007DE74B07C2081A435D46CB08CCE60A0029
:102C9C00024300D136E74B07C2081A435D46CB0806
:102CAC0081E64A46841AA0429241CB1A52429B1AA0
:102CBC0098465D4601264EE54B07C2081A43CB08E1
:102CCC00B2E64A46141AA14592415F1A5242BA1A08
:102CDC00904612026BD54A46841AA0429241CB1AF6
:102CEC0052429B1A98465D4664E54B07C2081A434C
:102CFC005D46CB0898E64B07C2081A43CB084FE653
:102D0C000A00024390D04A465C07D2081443802242
:102D1C00DB081203134208D0CE08164205D1C008B6
:102D2C004907084304005D463300610FE200490780
:102D3C00D2080A4378E64B07C2081A43CB0832E69E
:102D4C0048445B1848459241984652429044434649
:102D5C0004001B0200D41AE642460E4B01261A4010
:102D6C00904614E666461F00203EF740202C05D006
:102D7C004026361BB3404C461C43A2465446631EA9
:102D8C009C413C43C8E511000023002232E5C046BB
:102D9C00FF070000FFFF7FFFFE0700004A461418E4
:102DAC00844292415B18984652429044E9E542466F
:102DBC00224300D1A6E6EAE54B07C2081A43CB082A
:102DCC0032E600220149130014E5C046FF0700005B
:102DDC0070B505000C480C03160049001A035B0083
:102DEC00240B490D120B5B0D814208D006490020C3
:102DFC008B4203D132431000421E904170BD012022
:102E0C002C43FBD1F2E7C046FF0700000A0030B5A7
:102E1C00134C530009030500090B00205B0DD20F66
:102E2C00A34204DD0F48834202DD0F4BD01830BDA6
:102E3C008020400301430D48C01A1F2808DD0C48B0
:102E4C00C31AD9400B005842002AF0D11800EEE703
:102E5C00084CC540A446634499400B002B43F2E751
:102E6C00FE0300001D040000FFFFFF7F3304000081
:102E7C0013040000EDFBFFFF70B5002816D0C3173C
:102E8C00C5185D40C40F280000F01CF9114A121A35
:102E9C000A2816DC03002E0015339E400B23181A4B
:102EAC00C54053052D032D0B5B0D03E000240023BF
:102EBC00002500261B052B43E40723433000190093
:102ECC0070BD0B38854053052D0300262D0B5B0D73
:102EDC00F0E7C0461E04000010B5041E10D000F030
:102EEC00F1F80F4B1B1A0A2811DC0B222100121AC5
:102EFC00D14015300A035B058440120B5B0D01E0D9
:102F0C00002300221B0513432000190010BD2200D2
:102F1C000B3882405B0512030024120B5B0DF1E7AA
:102F2C001E04000070B543004602C40FFE201B0EA9
:102F3C00591C750A08420CD0E022920094466D0789
:102F4C00360B63441B053343E40723432800190065
:102F5C0070BD002B14D1002D1BD0280000F0B2F84E
:102F6C000A281CDC0B232A001B1ADA400300153339
:102F7C009D400E4B12031B1A5B05160B5B0DE1E714
:102F8C00002D09D0320B80263603094B6D071643F2
:102F9C00D8E700230026D5E70026054BD2E703002F
:102FAC002A000B3B9A400025E3E7C046890300004A
:102FBC00FF07000002004B00F0B508035B0D3D4E0F
:102FCC00CC0F400A510F5F1C0843D50037420AD082
:102FDC0039495E18FE2E16DDFF230021DB050B435D
:102FEC00E0071843F0BD002B06D1284327D005215C
:102FFC008901490ADBB2F1E70543EDD08021C90311
:10300C00FF230143EAE7002E1CDD920111004A1E4A
:10301C009141C0006D0F014329434B0748D00F234A
:10302C000B40042B00D004318023DB040B403FD039
:10303C00721CFE2ED0D08901490AD3B2CEE70023F0
:10304C000021CBE73200173222DB80211E2209043B
:10305C000843921B1F2A1DDD022149428E1B0100D1
:10306C00F1400E00202A04D0144A94466344984040
:10307C00054329004D1EA941314300264B07CED1F3
:10308C0080200B00C004012203400142D3D1AFE7E2
:10309C000023ACE70A498C4629006344D1409D408B
:1030AC000A00290098404D1EA94101431143E4E751
:1030BC0033009DE7FE07000080FCFFFFA2FCFFFF32
:1030CC0082FCFFFF1C2101231B04984201D3000C3E
:1030DC0010391B0A984201D3000A08391B0998427F
:1030EC0001D30009043902A2105C40187047C04695
:1030FC0004030202010101010000000000000000B5
:10310C0010B5002903D1FFF7DDFF203002E0081CC9
:10311C00FFF7D8FF10BDC046F0B505000B78FF24B3
:10312C00002B00D104780A4B1E78002E0EDD0023F4
:10313C00002002E00133B34209DAEA5CA242F9D280
:10314C00CF5C002FF6D1D8B21400F3E70020F0BD0D
:10315C001C00002010B50100064B1C78002C07DD6C
:10316C0000230120CA5C10400133A342FADB10BDDE
:10317C000120FCE71C000020F8B5DE4657464E4601
:10318C004546E0B532200FF0D5F8804600286CD0CB
:10319C00384B1B78FE2B6AD1374B9946354C0123A3
:1031AC0043449A4626E0002543465B19013B1B78B5
:1031BC00002B01D00135EDB228000FF0BBF85B46B7
:1031CC00D86000283DD02A0041460FF0E9FA2B4B7D
:1031DC001B780133294A13702A00002140460FF056
:1031EC00E8FA3B78FE2B36D1EA3B9C46E144244B73
:1031FC00994530D02100143123004246161B1A7811
:10320C00F25401338B42FAD11434CB46142251467A
:10321C0048460FF0C5FA1422002140460FF0C9FAB7
:10322C0027002378FD2BBED80025143E33550134DE
:10323C000135EDB227002378FD2BB5D8322DF5D111
:10324C00B2E71422002158460FF0B3FA40460FF0B3
:10325C007BF80E2003E040460FF076F80020F0BC1F
:10326C00BB46B246A946A046F8BDFB20F7E7FF20B7
:10327C00F5E7C04600DC01081C6800209311002013
:10328C0080680020F0B583B0234B1B889BB2234A87
:10329C00934211D01A0A17D021490A70214A13708F
:1032AC001F4B1878002835D0012602226B46D91DF9
:1032BC0000239C461C4D0FE0194B01221A70194B30
:1032CC0000221A70FA2025E0154A01211170E5E759
:1032DC000136F6B286421CD863460B700B78DBB213
:1032EC000A2BF5D8731E9C00E4186400E4180A4BF2
:1032FC00D7180B783F881B195B00EF52023292B241
:10330C000B780133DBB20B700B78DBB20A2BEED9E6
:10331C00DEE7002003B0F0BD00D80108FFFF00007D
:10332C001C000020F80F0020900A0020F8B50E4B6E
:10333C001D78002D16D0012400250C4F1E0008E02E
:10334C00601C04F0A3FB09E00134E4B23378A3421F
:10335C0008D3631E5B00D95B0029F1D1192CF3D97A
:10336C000A25F1E72800F8BD1C000020A46B002002
:10337C00F8B53222002110480FF01BFA0F4B1D78C4
:10338C00002D16D0012400250B4F1E0008E0601CF8
:10339C0004F07CFB09E00134E4B23378A34208D397
:1033AC00631E5B00D95B0029F1D1192CF3D90A25D6
:1033BC00F1E72800F8BDC046A46B00201C000020DB
:1033CC00F8B50E4B1D78002D16D00D49022004F0D7
:1033DC0031FB01240025094E094F0134E4B2337846
:1033EC00A34209D3611E4900C919601C04F022FBD9
:1033FC00192CF2D90A25F0E72800F8BD1C00002092
:10340C00A46B0020F0B5DE464F464646C0B50025FD
:10341C00002399461A4B9B461A4F04E00135EDB236
:10342C003B78AB4225D3AB005B195B005A469B5CE7
:10343C00002BF3D0AE0076197600114B9C466644F7
:10344C004C461C34A4B24B4621339BB2984633787D
:10345C001B027178C91889B2200004F017FB0236E0
:10346C000134A4B2A045F2D14B4605339BB2994628
:10347C00D4E70020E0BCBB46B146A846F0BDC04630
:10348C00F40E00201C000020F0B5DE4657464E46D8
:10349C004546E0B583B06B460022DA802127002335
:1034AC0098461A4B9B469A4610E04B469B004B4461
:1034BC005B00534400225A7243460133DBB29846F8
:1034CC000537BFB2124B1B78434517D37C1FA4B2F0
:1034DC0043469D0045446D005D446B469E1DC146B0
:1034EC003100200004F0A6FA33886B701B0A2B7095
:1034FC000134A4B20235A742F2D1D6E7002003B0C2
:10350C00F0BCBB46B246A946A046F0BDF40E002066
:10351C001C000020F0B5D6464F464646C0B582B0DA
:10352C006B460022DA80234B1B78002B1DD0002425
:10353C00214E204DE1B2490071182000CB3080B2F1
:10354C0004F078FA631C9CB22A78DBB29A42F1D868
:10355C001A4B994627009E37BFB2D034A3B2984677
:10356C006B469E1D00239A460BE00024F0E74B4669
:10357C0052465A720A239C46E1440537BFB247456E
:10358C0010D07C1FA4B24D463100200004F052FA3A
:10359C0033886B701B0A2B700134A4B20235BC4209
:1035AC00F2D1E4E7002002B0E0BCBA46B146A8462E
:1035BC00F0BDC0461C000020500E0020EC0D002079
:1035CC0070B584B00E21694400230B8003AA1380CC
:1035DC00E42004F02FFA0025002802D10E236B44BE
:1035EC001D780E216944E52004F024FA040003A997
:1035FC00E62004F01FFA0443A4B20026002C06D1E6
:10360C000E236B441E88360403AB1B88F6180E2160
:10361C006944E72004F00EFA040003A9E82004F042
:10362C0009FA204380B20024002806D10E236B44F3
:10363C001C88240403AB1B88E4180E216944E92080
:10364C0004F0F8F9002807D10E236B441B88190AE3
:10365C00284A1170284A13700E216944EA2004F09C
:10366C00E9F9002807D10E236B441B88190A234A59
:10367C001170234A13700E216944EB2004F0DAF91F
:10368C00002807D10E236B441B88190A1D4A1170A0
:10369C001D4A1370174B1B78002B03D0164A127857
:1036AC00002A12D1154B1B78002B03D0144A127828
:1036BC00002A11D1134B1B78002B03D0124A12781D
:1036CC00002A10D1002004B070BD009222003100FD
:1036DC00280005F083FBE5E700922200310028006A
:1036EC0005F07CFBE6E7009222003100280005F093
:1036FC0075FBE7E7C1100020E90D0020C210002087
:10370C00EA0D0020C3100020EB0D0020F8B5DE46BA
:10371C0057464E464546E0B50F0016001C000AAB56
:10372C001B789B460BAB1B789A460CAB1B789946C7
:10373C000DAB1D780EAB1B7898460100E42004F00D
:10374C00A5F9390A89B2E52004F0A0F9B9B2E6204E
:10375C0004F09CF9310A89B2E72004F097F9B1B270
:10376C00E82004F093F924025C44A1B2E92004F0AF
:10377C008DF953461902494489B2EA2004F086F9BE
:10378C002D024544A9B2EB2004F080F90020F0BCD6
:10379C00BB46B246A946A046F8BD000010B582B0A3
:1037AC008A206B46991D400004F044F9002800D093
:1037BC0064E06B4606331B88464A93711B0AD3712F
:1037CC0016206B46991DFF3004F034F900285CD1AB
:1037DC006B46DA883F4B1A808B206B46991D400054
:1037EC0004F028F9002853D16B46DA88394B5A80FB
:1037FC0018206B46991DFF3004F01CF900284AD1A3
:10380C006B4606331B88334A13711B0A53718C2089
:10381C006B46991D400004F00DF904001A2001A913
:10382C00FF3004F007F90443A4B2002C3AD101ABE9
:10383C001B881B046A46063212881343254A936080
:10384C008D206B46991D400004F0F4F8002837D108
:10385C006B4606331B881F4A13731B0A53731C20B9
:10386C006B46991DFF3004F0E5F800282ED16B460D
:10387C009A79184BDA76002002B010BD154B164A17
:10388C0091799971D279DA719AE7134B1A88A1E779
:10389C00114B5A88AAE70F4B0F4A117919715279BB
:1038AC005A71B4E70D4B1B78002B04D0094BE12265
:1038BC0052029A60C4E7084B9A68064B9A60BFE7BD
:1038CC00044B18225A7300221A73C8E7024BDA7E93
:1038DC00CFE7C04600680020000000208E0A0020C0
:1038EC0010B51A4CE3795B01A17919438A20400089
:1038FC0004F0CCF821881620FF3004F0C7F861885A
:10390C008B20400004F0C2F863791B02217B194321
:10391C001820FF3004F0BAF821898C20400004F004
:10392C00B5F861891A20FF3004F0B0F8637B1B02F4
:10393C00217919438D20400004F0A8F8E17E1C2069
:10394C00FF3004F0A3F8002010BDC0460068002032
:10395C00F0B5CE46474680B589B01E236B44002295
:10396C001A80364EEC2401250F270123984605E0DA
:10397C0001350434A4B20936062D59D01E236B44EC
:10398C001900200004F056F80028F1D16B46DB8BAF
:10399C00190A1A0BAA42EBD13A000A400F42E7D09F
:1039AC00B2727374A80083B299461800E93080B2E1
:1039BC001E236B44190004F03DF86B46DB8B1A0A8E
:1039CC00F272B3734846EA3080B21E236B4419007E
:1039DC0004F030F86B46DB8B1A0A3273F3734846EB
:1039EC00EB3080B21E236B44190004F023F86B46B5
:1039FC00DB8B1A0A72733374EBB2B07A99461900E6
:103A0C0004F012FF717CF37A4A10404602400140E8
:103A1C0000200590307C0490F07B0390B07B0290EA
:103A2C00707B0190307B0090484605F013F89FE7BF
:103A3C00002009B0C0BCB946B046F0BDD41300207C
:103A4C0010B5FFF71FFCFFF7BBFCFFF71DFDFFF7E1
:103A5C0061FDFFF7B5FDFFF7A1FEFFF779FFFFF75B
:103A6C008BFB10BD30B58FB004AB009307AB1222AB
:103A7C006A4408A9012008F0B7FE03AC009405AB1A
:103A8C000E226A4406A9022008F0AEFE01230A9316
:103A9C0000250B956B465B8A099309A908980CF0D5
:103AAC0095FD0A9502230B932388099309A9059880
:103ABC000CF08CFD6B46598A002208980CF076FEAF
:103ACC00052009F00DFA218805980CF069FE030019
:103ADC000020002B01D00FB030BD12336B4419887D
:103AEC00012208980CF062FE052009F0F9F903ABED
:103AFC00198805980CF054FE013843425841C0B265
:103B0C00E9E7000010B5074B074A12689A4200D14A
:103B1C0010BD04F06BF80028FAD1034B014A1A606F
:103B2C00F6E7C046ADDEEFBEF07F002010B509F021
:103B3C0023FB0400E1231B0243608023DB000361B1
:103B4C0080235B0183600EF05BFA226813682021EE
:103B5C000B43136010BD000010B5044B9968FCF7C3
:103B6C00CBFA43425841C0B210BDC0469800002069
:103B7C00F8B505001B49FCF7BFFA060006271A4CDE
:103B8C00002E23D021002800FCF7B6FA00281FD005
:103B9C0016492800FCF7B0FA00281BD0144928005D
:103BAC00FCF7AAFA002817D012492800FCF7A4FA4F
:103BBC00002813D010492800FCF79EFA00280FD0DB
:103BCC00013FFFB2002FDBD13800F8BD0127FBE726
:103BDC000227F9E70327F7E70427F5E70527F3E7BB
:103BEC000627F1E7F08A0108F48A0108F88A01082F
:103BFC00FC8A0108008B0108048B0108F0B583B026
:103C0C00070001240E4D032603E00134E4B2052C19
:103C1C0012D0A742F9D00B4B1B881A0A2A706B7072
:103C2C00AC7000960A2300220021200005F0E0F978
:103C3C000A2009F0EEFBE8E7002003B0F0BDC04617
:103C4C00C40E002050000020F0B5DE4657464E460C
:103C5C004546E0B583B000AF454B1D78EB1DDB0846
:103C6C00DB006A46D31A9D466946002D09D0414AAD
:103C7C0000230024CC54148001330232DEB2B5424E
:103C8C00F8D8013801230B54162444433A4BE4185A
:103C9C000026384A40000123984601339C467D603B
:103CAC008B4603E001360234042E11D06388002BBE
:103CBC00F8D0855AA9464546B540AA464D465146C8
:103CCC000D438552DB085B44013B61461970E9E703
:103CDC007D68594602239B46274B023399465B4627
:103CEC000133DBB29B46002D38D0002300229446D2
:103CFC005A46561E21E001340230042C15D002889D
:103D0C00002AF8D0D208013AAB5C002BF3D1194B46
:103D1C00CB5A0126A6403343164E8B535B46AB540D
:103D2C0063460133DBB29C46E5E729004546534622
:103D3C007E680133DAB295420DD9CA5CB242F8D131
:103D4C001620584348445A000024A8460D00110080
:103D5C009A467E60D3E76346002BC0D10020BD4657
:103D6C0003B0F0BCBB46B246A946A046F0BDC04667
:103D7C001C000020B80C0020900A0020F0B5DE4694
:103D8C0057464E464546E0B591B006008A4600249B
:103D9C0003942E22002104A80EF00BFD1922002101
:103DAC0058480EF006FD3500701E574B1C54574BEF
:103DBC001C5416267043564E81190191012053460E
:103DCC009AB202E00130072810D04300CB5A002BE6
:103DDC00F8D0DB089342F5D14B4B5344013B012205
:103DEC001A70484B52461A70C0B283E0494B19788E
:103DFC00002914DD0123444A541EFF229046434AF5
:103E0C00501E0022944602E001338B4207DC9D4297
:103E1C00FAD04246E2541A1866461670F4E70024AB
:103E2C003B4B98460C2343449946374DD34603A845
:103E3C00FFF790F900282ED103A93348FFF76CF94E
:103E4C000130C4B25C450BD0671E03AB0122DA55BE
:103E5C00162078434346C118484403AABA4605E0E5
:103E6C00DA465C4618E002318142E0D04B88002BE8
:103E7C00F9D0DB08DBB2013BD65C002EF3D1564601
:103E8C00AE5D0136F6B2EF5CB742ECD91E4FFE5474
:103E9C001E4EF454E7E7DA461C4B1B19013B19780C
:103EAC00002300290DD0174D184800E011001A000E
:103EBC000133DBB2AC544218013A12780C00002AE0
:103ECC00F4D101200F4C104B53441F00013F0199BA
:103EDC0002E0013007280CD04300CB5A002BF8D05D
:103EEC003A78A218013A1278DB089A42F1D1C0B2A2
:103EFC0000E0002011B0F0BCBB46B246A946A0467B
:103F0C00F0BDC046B86800208C100020A81000201E
:103F1C00900A00201C000020F0B5CE46474680B524
:103F2C0085B080460D0016001F00364B1878FFF741
:103F3C0025FF0400002F24D0324B1B78AB425ED0FF
:103F4C0000229146434550D03000FFF7EFFD200092
:103F5C00FFF7ECFD2B4B1B784B453FD0294B1978C9
:103F6C0000230393013B02930193033300930B0053
:103F7C002200300005F08AFA05B0C0BCB946B04644
:103F8C00F0BD214B5B19013B1A78012A22D01F4B43
:103F9C009B18013B1B7899461A4B1B784345D3D190
:103FAC0009F05AFB80461A4B19682A000EF0F6FDF0
:103FBC00184B196840460EF011FE4046FCF7A6F867
:103FCC0082B232234146300009F020F964200BF014
:103FDC0093FAB9E70B4B1B789946DDE7200009F003
:103FEC00CBF8012109F060F9B8E709F035FB804600
:103FFC00094B19683B002A000EF0D0FDD8E7A94602
:10400C003C009FE7F80F00208C100020B8680020BF
:10401C0078000020800000207C000020F0B5DE46F7
:10402C0057464E464546E0B583B006005A4C5B4BAE
:10403C00220023CB23C2196811609B889380200037
:10404C00FCF764F882B201235B4200933333210006
:10405C00300009F0AFF80124514B98464E4D012722
:10406C007F422200414628000EF098FD2800FCF704
:10407C004DF882B2009732232900300009F09AF8EB
:10408C000134052CEDD101235B4200933333032221
:10409C004449300009F08EF8434B1B78002B6AD052
:1040AC000023984601277F42404B9A463A4B99464B
:1040BC002EE007231340D208514648460EF06EFD01
:1040CC00354B9B461800FCF721F882B2009732233F
:1040DC005946300009F06EF8013CE4B20235002C70
:1040EC0007D02A88002AE4D131492B480EF056FD1E
:1040FC00E6E70097322302222E49300009F05AF8E5
:10410C0043460133DBB29846274B1B78434532D9E3
:10411C0043465A1C204C284920000EF03FFD20003D
:10412C00FBF7F4FF82B2009732232100300009F034
:10413C0041F8224B9B46162543465D435B46EB5AA2
:10414C005900C91849001E4BC918052220000EF051
:10415C0079FD0097322305222100300009F02AF85E
:10416C000097322301221749300009F023F8023559
:10417C005D440424B5E701235B42009333330122F1
:10418C001149300009F016F803B0F0BCBB46B2463A
:10419C00A946A046F0BDC0461C100020088B0108A3
:1041AC001C8B0108109501081C000020348B0108A1
:1041BC00308B0108408C0108248B0108900A0020E8
:1041CC00B88F0108188B0108A4A80108F0B5D646D1
:1041DC004F464646C0B582B08046314C314B22002A
:1041EC0023CB23C223CB23C21B6813602000FBF715
:1041FC008DFF82B201235B42009333332100404692
:10420C0008F0D8FF284B1B780127002B2CD0274E09
:10421C00274B994624E0224B9A4623003A00494604
:10422C0050460EF0BBFC5046FBF770FF82B20123E8
:10423C005B42009333335146404608F0BBFF0A2CD7
:10424C0008D021000134AA5B80231B020B411342CE
:10425C00F5D0E0E70137FFB2134B1B78BB4203D319
:10426C0000247D1E6D00ECE70D4C124B220023CB7D
:10427C0023C223CB23C203CB03C22000FBF746FF90
:10428C0082B201235B42009333332100404608F095
:10429C0091FF02B0E0BCBA46B146A846F0BDC0469C
:1042AC001C1000203C8B01081C000020A46B00207B
:1042BC00588B01086C8B0108F0B5D6464F46464624
:1042CC00C0B582B0804609F0C7F904000023037022
:1042DC00914B1A78914D924928000EF05FFC290001
:1042EC0020000EF07BFC8F4B1A788F4928000EF0C3
:1042FC0055FC290020000EF071FC04230093023BB6
:10430C0000228A4928000EF049FC290020000EF0FA
:10431C0065FC874A874928000EF040FC29002000E4
:10432C000EF05CFC844A854928000EF037FC29000D
:10433C0020000EF053FC824B2A0043CB43C2196879
:10434C001160998891809B799371290020000EF05F
:10435C0045FC01257B4B9946704F7B4B9A460EE0F2
:10436C006E4B7A4A116819609188998092799A718A
:10437C006A4920000EF032FC0135052D39D02A0097
:10438C00494638000EF00AFC390020000EF026FCDD
:10439C005346EB5C042BEBD85346EB5C9B006C4A0E
:1043AC00D3589F465D496B4B0A0043CB43C203CBAA
:1043BC0003C21B781370DBE7584A674B43CB43C2ED
:1043CC00D6E75649654B0A0043CB43C243CB43C2A5
:1043DC001B881380CCE75149614B0A0043CB43C285
:1043EC0043CB43C219681160998891809B79937172
:1043FC00BEE74A495B4B0A0061CB61C261CB61C22B
:10440C0020000EF0EBFB584F0125444E0EE0434BC1
:10441C009A462A00554918000EF0C0FB5146200060
:10442C000EF0DCFB01353837072D17D03B68002B1D
:10443C00EDD0786A06F0B8FF8246AB004C4AD058F3
:10444C0006F0B2FF009053462A004A4930000EF0A5
:10445C00A5FB310020000EF0C1FBE3E72000FBF7C9
:10446C0055FE2018032244490EF09AF92000FBF760
:10447C004DFE20181D2241490EF092F92000FBF749
:10448C0045FE814600253E4E234F0CE0234B9A46B9
:10449C002A003C4918000EF081FB514620000EF01A
:1044AC009DFB042D0BD0290001353B78013B5B00B3
:1044BC009A5B80231B020B411342F2D0E6E72000EB
:1044CC00FBF724FE4B461E04360CB04210D02000E5
:1044DC00FBF71CFE2018032227490EF061F9434616
:1044EC00002B0BD102B0E0BCBA46B146A846F0BDD9
:1044FC002018052224490EF053F9E8E72000FBF7B9
:10450C0005FE82B201235B42009333332100404607
:10451C0008F050FEE6E7C046F80F00201C10002003
:10452C008C8B01088F0A0020A88B0108C48B010812
:10453C00E48B0108F08B0108088C0108148C01082D
:10454C00308C0108448C01086C1000204C8C010844
:10455C00488D0108548C01086C8C0108788C01087A
:10456C00948C0108B48C0108D0170020CC8C010865
:10457C0088130020E88C0108408C0108188D010874
:10458C00A46B0020388D0108408D0108F0B5C6469B
:10459C0000B506002949FBF7AFFD002810D02849CB
:1045AC003000FBF7A9FD002845D033789846232B23
:1045BC000BD0244B1F78002F2AD0234D00241CE055
:1045CC00224B187880BCB846F0BD701C0DF087FEED
:1045DC00C3B2002B03D01B4A12789A4206D21B4A54
:1045EC00127866209A42EDD118B2EBE718B2E9E7DF
:1045FC000134E4B20A35BC420AD029003000FBF782
:10460C007BFD0028F4D14346002BF1D020B2D9E732
:10461C000F4F002539003000FBF76EFD002805D048
:10462C0001350A370A2DF5D16420CBE72C02FE2088
:10463C00204300B2C6E7FF20C4E7C0465C8D0108EA
:10464C00608D01081C000020F40E0020F80F0020E3
:10465C00EC0D0020F0B583B001900E00284C250025
:10466C00103521003000FBF747FD00283FD0043403
:10467C00AC42F6D1234B1F78012F0BDD224C0125C8
:10468C0021003000FBF738FD002832D001350A3408
:10469C00BD42F5DB1D4C2500643521003000FBF7D5
:1046AC002BFD002828D00A34AC42F6D1184C194BFB
:1046BC001C601F0023681D682800FBF727FD020003
:1046CC00290030000EF0ADFA002817D064683C6069
:1046DC00002CEFD1019B98009C46604440000E4F8B
:1046EC00C01931000EF095FAFEF78CFE02E00620A0
:1046FC0000E0072003B0F0BD0720FBE70820F9E736
:10470C00948F01081C000020FE0E0020EC0D0020F0
:10471C00AC00002074100020F40E0020F0B5CE4642
:10472C0000B582B001900E00364F3D0000242900E8
:10473C003000FBF7E1FC002847D001340A350A2C85
:10474C00F5D1314C2500103521003000FBF7D4FC9D
:10475C00002850D00434AC42F6D12C4B1B7899462F
:10476C00012B0BDD2A4C012521003000FBF7C4FC8A
:10477C00002842D001350A344D45F5DB254C264B3B
:10478C001C60994623681D682800FBF7BFFC0200DB
:10479C00290030000EF045FA002830D064684B46F2
:1047AC001C60002CEED13B78002B1BD001340A3757
:1047BC000A2CF8D1019F013F18497F000122A24029
:1047CC007B5A13437B52002008E0019F013F1349A1
:1047DC007F000122A2407B5A13437B5202B080BC63
:1047EC00B946F0BDA00000194000064B1818310066
:1047FC000EF00FFADEE70620F0E70720EEE70820C0
:10480C00ECE7C046EC0D0020948F01081C00002042
:10481C00FE0E0020AC00002078100020500E00206E
:10482C00F0B5DE464F464646C0B5224B1F78002FEA
:10483C003AD001240027204B9846204B9946204B18
:10484C009B461FE000258026360202E00135042D30
:10485C0012D0681CC0B208F08FFC436BB342F5D188
:10486C00154B1B78013B5B004A469A5A3100294193
:10487C000A4349465A52E9E70134E4B20D4B1B781E
:10488C00A34211D343461B78A342DBD00022132151
:10489C00200004F0D5FD322008F022FB5B461B788B
:1048AC00002BE9D00227E7E73800E0BCBB46B14655
:1048BC00A846F0BD1C000020F80F0020A46B0020BF
:1048CC0088100020F8B500240F4F104E80252D02C3
:1048DC0007E008F051FC012108F0E6FC0134042C3F
:1048EC000FD0601CC0B23378013B5B00DB5B2A004D
:1048FC0022411A42EDD108F03FFC002108F0D4FC13
:10490C00ECE70020F8BDC046A46B0020F80F002097
:10491C0070B508F09DF908F03BFA03F0CBF907F0FD
:10492C002DFF06F0CFFE08F067FA07F0D3FE08F073
:10493C0095FA07F0A5FF00281AD1FFF793F8002885
:10494C0021D03E4B01221A70322008F0C9FA06F031
:10495C0013FD3B4BE12252029A6001241D00A96811
:10496C00200008F097FC0134E4B2052CF7D10FE0DD
:10497C00FFF7C8F8BFF34F8F324B334ADA60BFF3FF
:10498C004F8FC046FDE7322008F0AAFA06F0F4FC7F
:10499C00FFF756F8FFF796FF07F0F2FA2B4B1B7850
:1049AC00002B17D180256D009024E40501222900ED
:1049BC0020000BF0FBFEFA20400008F091FA0022D8
:1049CC00290020000BF0F2FE02F0B4FF204B012274
:1049DC001A7070BD80256D009024E4050122290019
:1049EC0020000BF0E3FEFA20400008F079FA0022D8
:1049FC00290020000BF0DAFE642008F071FA012285
:104A0C00290020000BF0D2FE642008F069FA002285
:104A1C00290020000BF0CAFE642008F061FA012284
:104A2C00290020000BF0C2FE642008F059FA002285
:104A3C00290020000BF0BAFEC6E7C0468E0A002003
:104A4C000068002000ED00E00400FA05F80F0020DB
:104A5C008D0A002010B582B01E200DF06BFC0400F6
:104A6C001E2200210DF0A5FE08498B7D0A7D013A1E
:104A7C00920007481258088B0190497D0091054916
:104A8C0020000EF08BF8200002B010BD0068002052
:104A9C003C900108A48F010800B585B00A00074BB3
:104AAC00197801230393023B029301930333009380
:104ABC000B0004F0EBFC05B000BDC046F80F002065
:104ACC0030B587B005000C000023049303930293C8
:104ADC0001930093002200210020FEF717FE6A1EAE
:104AEC00D3009B1ADB00144A9B58002B14D0621E77
:104AFC00D3009B1ADB00104A9B58002B04D12800D2
:104B0C0002F088FE002013E0280002F083FE200053
:104B1C0002F080FE00200BE0621ED3009B1ADB002B
:104B2C00054A9B58002B05D0200002F073FE002094
:104B3C0007B030BD6820FBE7D017002030B50378F4
:104B4C00002B0FD0084D032404E0017001300378D2
:104B5C00002B07D0EA5C22401900012AF5D1203342
:104B6C001900F2E730BDC04639B60108F0B5CE46A3
:104B7C00474680B589B00500DE4B1C78052C00D16A
:104B8C001AE2DD49A3001A199200002050541A1998
:104B9C0092008A18507018198000023040180422B4
:104BAC0000210DF006FE2B78622B02D1AB782E2B58
:104BBC0032D0D24C290020000EF02BF8D04D290019
:104BCC0020000EF09DFE0400290000200EF098FE3F
:104BDC000600290000200EF093FE0500002C00D1E9
:104BEC00ECE12000FEF7B8FF041E00D194E1002E8A
:104BFC0000D093E16736002D00D0BAE1BD4D2B7883
:104C0C00BD499A00D0188000653E46540A18D470ED
:104C1C0001332B700026ACE16F78303FFFB20026D9
:104C2C00042F00D9A5E1B44AA30019198900012069
:104C3C008854531800225A709F70EE1C0732B149E9
:104C4C0030000DF0EEFF002824D1A3001C19A400A5
:104C5C00A94B1C190523E370FA00D219AA4B9B1817
:104C6C001B7A012216001E401A4205D00026A14ACA
:104C7C001378013313707CE1012305930023049313
:104C8C00039302930193009300220121380003F057
:104C9C00E1FEECE70E229D4930000DF0C2FF00282A
:104CAC0020D1A3001C19A400934B1C190623E370FC
:104CBC00FA00D219944B9B181B7A022216001E4044
:104CCC001A4201D00026D2E7012305930023049356
:104CDC000393029301930093013A0021380003F0EF
:104CEC00B9FEC4E70C228A4930000DF09AFF002867
:104CFC007BD1FA00D219844B9B189E78002E0FD0D2
:104D0C00FA00D219804B9B18DE78002E29D0FA00BD
:104D1C00D2197D4B9B181E79002E44D00C26A6E789
:104D2C00754B9846A3001B199B0043440922DA706B
:104D3C0028000F300DF0CDFAC3B26E4A11788A00FC
:104D4C0052189200424413710122059200220492DF
:104D5C0003920292019200920021380003F07AFE35
:104D6C0085E7654B9846A3001B199B0043440A2218
:104D7C00DA7028000F300DF0ACFAC0B25D4B1A7827
:104D8C0093009B189B004344187101230593002347
:104D9C0004930393029301930090002200213800A6
:104DAC0003F058FE63E7544B9846A3001B199B0075
:104DBC0043440B22DA7028000F300DF08AFAC0B28F
:104DCC004C4B1A7893009B189B0043441871012399
:104DDC000593002304930393029301900093002204
:104DEC000021380003F036FE41E70D22494930001E
:104DFC000DF017FF0026002800D038E7FA00D21972
:104E0C00414B9B185E79002E0FD0FA00D2193E4B05
:104E1C009B189E79002E2AD0FA00D2193A4B9B1877
:104E2C00DE79002E44D00D2621E7334B9846A300A3
:104E3C001B199B0043440C22DA70280010300DF033
:104E4C0048FAC0B22B4B1A7893009B189B00434432
:104E5C00187101230593002304930393029001938B
:104E6C00009300220021380003F0F4FDFFE6224BF2
:104E7C009846142399465C434444073BE37028004E
:104E8C0010300DF026FAC0B21A4B1B784A46534329
:104E9C00434418710123059300210491039002915E
:104EAC00019100910B000A00380003F0D3FDDEE6FF
:104EBC00114B9846142399465C434444063BE370DB
:104ECC00280010300DF005FAC0B20A4B1B784A4688
:104EDC00534343441871012305930490002103911B
:104EEC000291019100910B000A00380003F0B2FD11
:104EFC00BDE6C046931100201C680020F81000206D
:104F0C00488C0108EC970108D41300205890010834
:104F1C006890010878900108002E51D0002D51D0D6
:104F2C002800FEF719FE002829D0284B1D78284AA6
:104F3C00AB005919890004278F545919890051184D
:104F4C00CC70C871214C25783000FEF711FE204A38
:104F5C00AB005B199B00D318587021788B005B1841
:104F6C009B00D3185B78002B2ED00131174B197096
:104F7C000026300009B0C0BCB946B046F0BD134B9A
:104F8C0098461A78124F9300991889000320C85537
:104F9C007B18DC7028000DF097F9FEF70BF80790E2
:104FAC0043461B789800C01880000630C0190422B4
:104FBC0007A90DF0F5FBC5E70E26DAE76726D8E75B
:104FCC006726D6E76726D4E76726D2E79311002039
:104FDC001C680020F8B50C00022817D0032803D059
:104FEC0001280FD00020F8BD354B1A78013A9300F8
:104FFC009B189B00334AD31801221A7406F086F8CA
:10500C000020F0E70800FFF7B1FDECE72C4B1D7812
:10501C00013DAB005B199B002A4AD318DE68002EB9
:10502C0032D03000FBF772F807002000FBF76EF867
:10503C003918023130000DF0EFFB224EAB005D1938
:10504C00AD007519E8601E4D2A78013A93009B1843
:10505C009B00F3187A1CD868801821000DF0D9FD3C
:10506C002A78013A93009B189B00F318DB681322F3
:10507C00DA552A78013A93009B189B00F618F368CE
:10508C00002B12D00020AEE70800FBF73FF80130F0
:10509C000DF050F9AB005D19AD000A4B5D19E860DD
:1050AC0021000DF0B6FD00209DE7900080188000D7
:1050BC00044A8018142200210DF07BFB0E2092E78D
:1050CC00931100201C680020F0B5DE4657464E4672
:1050DC004546E0B58BB00490039115001C000023ED
:1050EC0007930522002108A80DF063FBD84B9946C5
:1050FC0029E1E91C0130FFF76DFF002805D1D44BE5
:10510C0002221A700D23237027E05222D14920006D
:10511C000DF046FBCE4B00221A701EE00622CE4943
:10512C0028000DF07EFD00280BD0022E00D01AE1D5
:10513C0029000220FFF74EFF002824D10D232370F5
:10514C000BE0C34B00221A70C4490330FFF742FF37
:10515C004122C34920000DF023FB2378002B00D102
:10516C00A8E1039B002B00D1BFE100272000FAF738
:10517C00CDFF82B201235B420093333321000498AC
:10518C0008F018F8D4E05222B24920000DF008FBC8
:10519C00E3E79922701C9200210008F0D3F9070074
:1051AC00C2E02722AF4920000DF0FAFAD5E72522FC
:1051BC00AD4920000DF0F4FACFE719220021AB48DD
:1051CC000DF0F7FA01362800FAF7A0FF070007A840
:1051DC00FAF79CFF013F3A1A3100A5480DF032FD59
:1051EC002800FAF793FF070007A8FAF78FFF3B1A7E
:1051FC009BB21722FF21404604F0FAF89922920044
:10520C002100300008F09EF907002000FAF77EFF1D
:10521C0020181D2297490DF0C3FA85E0059B181242
:10522C00C3B29A46944B9B4652461A7019220021DF
:10523C008E480DF0BEFA731C05932800FAF766FF32
:10524C00060007A8FAF762FF013E321A0599884852
:10525C000DF0F8FC2800FAF759FF060007A8FAF73A
:10526C0055FF331A9BB217225146404604F0C0F842
:10527C00824B1B78013B5B00814A9B5A5A46127841
:10528C001341DB0706D407AB22007E4920000DF04A
:10529C0085FC49E0992292002100059808F052F90A
:1052AC000700F0E72800FAF731FF070007A8FAF724
:1052BC002DFF013F3A1A31006D480DF0C3FC280058
:1052CC00FAF724FF060007A8FAF720FF013E361A6A
:1052DC00B2B21721504604F0B3F8059A6A4920007F
:1052EC000DF05CFC2378002B02D0039B002B08D123
:1052FC002000FAF70BFF0200002120000DF059FAF4
:10530C007CE02000FAF702FF82B2012300933133D4
:10531C002100049807F04EFFEAE799229200210041
:10532C00280008F00FF907002378002B00D07FE04D
:10533C002000FAF7EBFE0200002120000DF039FAF4
:10534C00002F00D1BEE02800FFF7F8FB4B461E787B
:10535C00002E00D0E2E603224C4928000DF061FC3F
:10536C00002800D1C5E62E2128000DF044FC061EB5
:10537C00D3D00338032246490DF053FC0028CCD07F
:10538C007378444AD35C5B07C7D4721B290007A807
:10539C000DF058FC07A8FFF7F9F80590374A12787A
:1053AC009046904200D1F4E6642800D1F9E66628D4
:1053BC0000D1FCE6FF2800D1FFE66B461B7D9A4628
:1053CC00FE2B00D12AE701360622334930000DF0BE
:1053DC0028FC002800D065E7304B00229A71192177
:1053EC00504604F02DF8642008F013F82C4B1A7872
:1053FC00224B187800235146FEF78EFD274B9B79E4
:10540C00602B00D0A9E6FA218900012009F0BEFD2D
:10541C00244B1B78002B00D19FE6234A13880133C1
:10542C001380059B2200214920000DF0B7FB94E668
:10543C00039B002B00D17BE798E601235B42009392
:10544C00333338221A49049807F0B4FE46E0C046BC
:10545C00C01100208C900108E0900108208B0108FD
:10546C00E89001083091010858910108EC0C0020DB
:10547C00C40E00208091010892110020F80F00202A
:10548C00500E0020A0910108D491010888900108C9
:10549C002C91010839B60108CC9101080068002054
:1054AC008F0A002088100020D6150020F8910108E2
:1054BC00189201082000FAF729FE020000212000B2
:1054CC000DF077F90922002107A80DF072F90B4BAA
:1054DC001B78002B02D1039B002BAED10BB0F0BC80
:1054EC00BB46B246A946A046F0BD2000FAF70EFE18
:1054FC000200002120000DF05CF9E3E7C011002050
:10550C00F0B5D6464F464646C0B584B00121494257
:10551C00012009F03BFD0F236B4400221A7008F0A8
:10552C009BF88246E1231B03584A92689A420FD09B
:10553C000124574E1D0003E00134E4B2052C07D0C2
:10554C003378A342F8D02900200007F0A3FEF3E73C
:10555C00504B1A8853009B185B004F4A9B184F4ABC
:10556C0012784F4C4A4D297800914E4920000DF08D
:10557C0015FB28780A234C4A4C4907F047FE2000BB
:10558C00FAF7C4FD82B228780A23210007F03EFE08
:10559C0000239846464B99461F005CE00F20684458
:1055AC0002709801434A121800201055404AD454F6
:1055BC000F246C44364B18780A230122210007F083
:1055CC0025FE23780D2B27D00A2B42D0082B51D047
:1055DC001A00203A5E2A3CD84246312A39DC364A37
:1055EC0041465354434601335BB2984631E00022A6
:1055FC00FA5408F091F93E3C3378013B9A01AA1811
:10560C00125D002ACAD13F2CF1D008F085F9013483
:10561C00A4B23F2CF0D9CBE71D4B18780A230222F9
:10562C00264907F0F3FD4346002B1ED0224C184BA5
:10563C001878534622000121FFF746FD210020482F
:10564C000DF0E7FA3222002120000DF0B2F8002311
:10565C00984608F061F90E4B1B784B44013B1C78C3
:10566C003F2CA5D80A4E134DC6E7154912480DF02C
:10567C00D0FADBE74346002BEBDD013B5BB29846EF
:10568C000D4B002241465A54E3E7C0460068002007
:10569C008F0A002050000020B88F0108F80F00205E
:1056AC00941100205492010893020000809201088A
:1056BC004013002040120020C410002018A601083E
:1056CC006011002070B50C001C4B1A78013A930045
:1056DC009B189B001A4AD318DB68002B2CD0194B53
:1056EC001B68002B14D0174B1E683378002B12D07C
:1056FC00132130000DF07FFA051E11D0821B3100F2
:10570C0020000DF09FFA01350E4B1D60012070BD7D
:10571C000C4B1860E7E70B4B00221A600020F6E7F1
:10572C00310020000DF075FA2000FAF7EFFC361866
:10573C00044B1E600120EAE70020E8E793110020EB
:10574C001C680020BC110020F0B583B0040083005D
:10575C001B189B003E4A9B5C012B21D00020032B85
:10576C0030D13B4DA60033199B00EB18DA78013A87
:10577C0053009B189B00374A9B581F6831198900AE
:10578C0006314919042201A80DF00AF83619B600A1
:10579C00AD196B78062B53D89B002F4AD3589F46D4
:1057AC002B4A800003199B00D3189978CB005B1807
:1057BC000019800012182949585CD378C01A43424A
:1057CC005841C0B203B0F0BD391C0198FAF77AFE0B
:1057DC00431E9841F6E7391C0198FAF779FE431EEF
:1057EC009841EFE7391C0198FAF786FE002829D07A
:1057FC000021381CFAF766FE43425841E2E7391C97
:10580C000198FAF76FFE431E9841DBE7391C0198AB
:10581C00FAF77CFE002817D00021381CFAF752FE4C
:10582C0043425841CEE7391C0198FAF74BFE002849
:10583C000CD10021381CFAF745FE43425841C1E710
:10584C000020BFE70020BDE70020BBE70020B9E740
:10585C001C6800209800002014950108D413002027
:10586C00F8B5CE46474680B507F0F6FE0600204B4D
:10587C001B78002B36D000241E4F1F4B98461AE085
:10588C001E4B1878330042460021FFF71DFC3000F8
:10589C00FAF73CFC0200002130000CF08AFF49466C
:1058AC00E868FFF70FFF0028EAD10134A4B2104BCF
:1058BC001B78A34216D9A3001B199B00FB181B7C59
:1058CC00002BF2D0E0B2FFF73FFF0028EDD00C4BDD
:1058DC0020229A71084B9946A3001D19AD00054B67
:1058EC005D19DCE70020C0BCB946B046F8BDC04627
:1058FC00931100201C6800202C1100208F0A00201E
:10590C00006800200020704770B582B004001500BC
:10591C00002301930093002815D001AA012128002F
:10592C0007F09EFE0023C356702B0ED06A46022150
:10593C00280007F095FE0CF0D2FC13221049200031
:10594C000CF02EFF18E072B6FEE701300CF0C7FC2D
:10595C0006006A460221280007F082FE0CF0BFFC0C
:10596C000500F0B2290007F095FCFF2333402A0014
:10597C00044920000DF012F9002002B070BDC046A1
:10598C00589501083095010810B5002806D0044B35
:10599C001A8804490DF002F9002010BD72B6FEE71A
:1059AC00CCF7FF1F6C950108F0B5D6464F4680B575
:1059BC0085B00400100000230393634B1A7802ABEC
:1059CC001A70002C12D003AA012107F049FE050021
:1059DC005E49FAF791FB002874D15D4B1A785D4B48
:1059EC009B18013B1F780125594E3EE072B6FEE72D
:1059FC002A00594920000DF0D1F82000FAF786FB57
:105A0C0082B2534B1878642300935A3B210007F061
:105A1C00D1FB5422514920000CF0C2FE2000FAF7B1
:105A2C0075FB82B24A4B1878642300935A3B2100D1
:105A3C0007F0C0FB0137464B1B78013B9B01484AE2
:105A4C00D318DB5D002B0DD19246414B99460120BA
:105A5C0009F052FD4B461B78013B9B015344DB5D27
:105A6C00002BF4D00135052D35D0EBB299463378A7
:105A7C004B45F7D00CF0B6FE6B46187264230093BE
:105A8C005A3B012202A9484607F094FB484607F00E
:105A9C0073FB03689B8C6A46127ADBB29A42A7D0DE
:105AAC002A00304920000DF079F82000FAF72EFB7F
:105ABC0082B2274B1878642300935A3B210007F0DD
:105ACC0079FBA6E70023EB56702B0AD00F22264950
