:020000040800F2
:10000000008000203DDA0008C9DA0008B9D00008F5
:1000100000000000000000000000000000000000E0
:10002000000000000000000000000000F5DF0008F4
:1000300000000000000000008DE00008ADD00008C6
:10004000C9DA0008C9DA0008C9DA0008C9DA000804
:10005000C9DA0008C9DA0008C9DA0008C9DA0008F4
:10006000C9DA0008F5D0000801D1000841D1000824
:10007000C9DA0008C9DA0008C9DA0008C9DA0008D4
:10008000C9DA0008C9DA0008C9DA0008C9DA0008C4
:10009000C9DA0008C9DA0008C9DA0008C9DA0008B4
:1000A000C9DA0008C9DA0008C9DA0008BDD00008BA
:0C00B000CDD00008DDD00008C9DA00083F
:1000BC0010B5064C2378002B07D1054B002B02D032
:1000CC00044800E000BF0123237010BDC00A0020CB
:1000DC0000000000807C0108044B10B5002B03D0FD
:1000EC000349044800E000BF10BDC04600000000FA
:1000FC00C40A0020807C010802780B78002A03D007
:10010C00013001319A42F7D0D01A70470023C25CFB
:10011C000133002AFBD1581E7047000002B471460F
:10012C0049084900095C49008E4402BC7047C0462E
:10013C0003B47146490840004900095E49008E44E9
:10014C0003BC7047002243088B4274D303098B42D3
:10015C005FD3030A8B4244D3030B8B4228D3030C8B
:10016C008B420DD3FF22090212BA030C8B4202D32D
:10017C001212090265D0030B8B4219D300E0090A55
:10018C00C30B8B4201D3CB03C01A5241830B8B425E
:10019C0001D38B03C01A5241430B8B4201D34B0347
:1001AC00C01A5241030B8B4201D30B03C01A5241AC
:1001BC00C30A8B4201D3CB02C01A5241830A8B4231
:1001CC0001D38B02C01A5241430A8B4201D34B021A
:1001DC00C01A5241030A8B4201D30B02C01A52417E
:1001EC00CDD2C3098B4201D3CB01C01A5241830932
:1001FC008B4201D38B01C01A524143098B4201D36C
:10020C004B01C01A524103098B4201D30B01C01A96
:10021C005241C3088B4201D3CB00C01A5241830810
:10022C008B4201D38B00C01A524143088B4201D33D
:10023C004B00C01A5241411A00D20146524110469D
:10024C007047FFE701B5002000F0F0F802BDC04692
:10025C000029F7D076E7704703460B437FD4002282
:10026C0043088B4274D303098B425FD3030A8B423E
:10027C0044D3030B8B4228D3030C8B420DD3FF22A8
:10028C00090212BA030C8B4202D31212090265D076
:10029C00030B8B4219D300E0090AC30B8B4201D329
:1002AC00CB03C01A5241830B8B4201D38B03C01A70
:1002BC005241430B8B4201D34B03C01A5241030BE7
:1002CC008B4201D30B03C01A5241C30A8B4201D398
:1002DC00CB02C01A5241830A8B4201D38B02C01A43
:1002EC005241430A8B4201D34B02C01A5241030ABA
:1002FC008B4201D30B02C01A5241CDD2C3098B429F
:10030C0001D3CB01C01A524183098B4201D38B011B
:10031C00C01A524143098B4201D34B01C01A5241BE
:10032C0003098B4201D30B01C01A5241C3088B4203
:10033C0001D3CB00C01A524183088B4201D38B00EE
:10034C00C01A524143088B4201D34B00C01A524190
:10035C00411A00D201465241104670475DE0CA0F67
:10036C0000D04942031000D34042534000229C4627
:10037C0003098B422DD3030A8B4212D3FC22890131
:10038C0012BA030A8B420CD3890192118B4208D307
:10039C00890192118B4204D389013AD0921100E069
:1003AC008909C3098B4201D3CB01C01A524183097D
:1003BC008B4201D38B01C01A524143098B4201D3AA
:1003CC004B01C01A524103098B4201D30B01C01AD5
:1003DC005241C3088B4201D3CB00C01A524183084F
:1003EC008B4201D38B00C01A5241D9D243088B42A5
:1003FC0001D34B00C01A5241411A00D20146634648
:10040C0052415B10104601D34042002B00D54942AB
:10041C00704763465B1000D3404201B5002000F0EA
:10042C0005F802BD0029F8D016E770477047C046A2
:10043C008446101C62468C46191C634600E0C0467C
:10044C001FB501F0EFFD002801D40021C8421FBDEB
:10045C0010B501F047FD4042013010BD10B501F060
:10046C00E1FD002801DB002010BD012010BDC046BD
:10047C0010B501F0D7FD002801DD002010BD0120D2
:10048C0010BDC04610B501F069FD002801DC00204C
:10049C0010BD012010BDC04610B501F05FFD002855
:1004AC0001DA002010BD012010BDC0468446081C96
:1004BC006146FFE71FB500F007FB002801D40021BF
:1004CC00C8421FBD10B500F089FA4042013010BD82
:1004DC0010B500F0F9FA002801DB002010BD012056
:1004EC0010BDC04610B500F0EFFA002801DD002069
:1004FC0010BD012010BDC04610B500F097FA0028C1
:10050C0001DC002010BD012010BDC04610B500F06C
:10051C008DFA002801DA002010BD012010BDC04664
:10052C00994201D1801A04D002D201204042704776
:10053C0001207047002B11D1002A0FD1002900D1C6
:10054C00002802D00021C943081C07B4024802A1AC
:10055C004018029003BDC046D5FEFFFF03B46846A9
:10056C0001B5029800F066F8019B9E4602B00CBCE7
:10057C007047C046F0B5CE46474615042D0C2E00EC
:10058C0080B50704140C3F0C9946030C7E435D4365
:10059C00674363437F19340CE4199C46A54203D985
:1005AC0080235B029846C4444B4643435143250C7D
:1005BC0036046544360C2404A4195B195918200020
:1005CC000CBC90469946F0BD9E2110B5C905041C83
:1005DC00FFF79CFF002803D1201C00F0BBFD10BDD1
:1005EC009E21201CC90500F0F1FB00F0B3FD802317
:1005FC001B069C466044F2E770B500220C4B0400CD
:10060C000D00FFF749FF002804D12000290002F05B
:10061C0047FB70BD064B00222000290001F0DCFFD7
:10062C0002F03EFB80231B069C466044F1E7C0466B
:10063C000000E041F0B54F464646D646C0B5040032
:10064C0082B00D00914698468B422FD82CD0414653
:10065C00484602F0BBFC29000600200002F0B6FC64
:10066C00331A9C46203B9A4600D576E04B465246C0
:10067C0093401F004B46624693401E00AF4228D861
:10068C0025D05346A41BBD41002B00DA7BE0002291
:10069C0000230092019301235246934001930123BE
:1006AC0062469340009318E08242D0D90022002386
:1006BC00009201930A9B002B01D01C605D60009896
:1006CC00019902B01CBC90469946A246F0BDA342CB
:1006DC00D7D900220023009201936346002BE9D066
:1006EC00FB079846414672080A437B0866460EE0B3
:1006FC00AB4201D1A2420CD8A41A9D41012024196D
:10070C006D410021013E24184D41002E06D0AB4214
:10071C00EED9013E24196D41002EF8D100980199B3
:10072C00534600196941002B23DB2B005246D34062
:10073C002A006446E2401C0053461500002B2DDBBA
:10074C0026005746BE40330026006746BE403200A6
:10075C00801A994100900191ACE7624620239B1AC4
:10076C004A46DA406146130042468A4017001F434E
:10077C0080E7624620239B1A2A0066469A40230093
:10078C00F3401343D4E76246202300219B1A002236
:10079C00009101920122DA40019280E72023624607
:1007AC0026009B1ADE402F00B0466646B7404646F0
:1007BC003B003343C8E7C046F8B557464E4645465E
:1007CC00DE464402E0B546008846640A360EC70F82
:1007DC00002E63D0FF2E24D08023E400DB041C43C6
:1007EC00002399469B467F3E434642465D02D20F0C
:1007FC005B006D0A1B0E9046924665D0FF2B55D0C0
:10080C0080220021ED00D2047F3B1543F61A4346AB
:10081C004A467B400F2A00D98DE06D4892008258E1
:10082C009746002C54D108239946063BFF269B463D
:10083C00DAE70025534602291BD0032900D1BFE07B
:10084C00012928D030007F30002820DD6A0704D031
:10085C000F222A40042A00D004352A0103D5300087
:10086C005C4A80301540FE2803DCAC01640AC2B23D
:10087C0001E0FF2200246402D205600ADB0710436A
:10088C0018433CBC90469946A246AB46F8BD0122A3
:10089C00101A1B287CDD00220024ECE7002C1DD153
:1008AC0004239946033B00269B469DE7FF3E002D03
:1008BC0020D1022143464A467B400A430F2AD8D80E
:1008CC004548920082589746002D19D10121F1E735
:1008DC000C239946093BFF269B4685E7200002F036
:1008EC0057FB7626431F9C4000237642361A9946C6
:1008FC009B4679E74A4603231A439146032186E730
:10090C00280002F045FB431F36189D407636002127
:10091C007DE780240023E403FF22ACE7002580233D
:10092C00DB031C4228D01D4226D12B435C02640AF7
:10093C004346FF229FE762016C01A24224D21B2195
:10094C000025013E012710006D005200002801DB3C
:10095C00944201D8121B3D4301390029F3D11400F4
:10096C00621E944125436DE7BA465946250053460D
:10097C00022900D061E77CE78023DB031C4364027F
:10098C00640A3B00FF2276E7121B1A210125D9E7E6
:10099C009E362A00B5402C00C240651EAC41144363
:1009AC00620704D00F222240042A00D004346201D2
:1009BC0003D4A401640A00225DE7012200245AE753
:1009CC008024E4032C436402640AFF2253E7C046EC
:1009DC00CC7C0108FFFFFFF70C7D010870B54200CD
:1009EC004E024C0045026D0A120EC30F760A240EFD
:1009FC00C90FFF2A0FD0FF2C11D00120A24200D02A
:100A0C0070BDB542FCD18B420DD0002AF8D1280024
:100A1C00451EA841F4E70120002DF1D1EBE70120A0
:100A2C00002EEDD1E9E70020EAE7C04670B54A0098
:100A3C004E02450244006D0A240EC30F760A120EB4
:100A4C00C90FFF2C15D0FF2A0ED0002C15D1002A6F
:100A5C0001D1002E1CD0002D14D08B4227D00220A7
:100A6C00013B1840013870BD002EEED002204042F0
:100A7C00F9E7002DFAD1FF2A0ED0002A0ED1002E54
:100A8C00EDD00BE001230139994308000130EAE76E
:100A9C000020002DE7D0E2E7002EE7D18B42DED11B
:100AAC00944205DD0221581E08400138DBE7002482
:100ABC00A24204DCB542D2D80020B542D3D2581E93
:100ACC00012398430130CEE730B5420044024D0279
:100ADC00C30F4800640A120E6D0A000EC90FFF2ADC
:100AEC0012D0FF280CD0002A12D1002819D1002DC9
:100AFC0017D1002C2BD00220013B1840013826E0E6
:100B0C00002DF0D0022022E0002CFBD1FF281FD0BA
:100B1C0000281FD1002D1DD10220013B18400138A7
:100B2C0015E0002C0ED08B42E5D10022904204DC63
:100B3C00AC42E0D80020AC4209D2581E01239843A5
:100B4C00013004E00123013999430800013030BD24
:100B5C00002DD7D18B42CED18242E7DD0221581E27
:100B6C0008400138F3E7C046F0B54E4657464546B7
:100B7C00DE46E0B543025B0A450083B00F1C994684
:100B8C002D0EC60F002D57D0FF2D24D08020DB005A
:100B9C00C0041843002381469A469B467F3D7C0245
:100BAC007A00FB0F640A120E984623D0FF2A4BD012
:100BBC00E30080240020E4047F3A1C43AD186B1C36
:100BCC0047460193534677403A000F2B48D87D494E
:100BDC009B00CB589F46002B00D085E008339A46EB
:100BEC00063B9B467C027A00FB0FFF25640A120E23
:100BFC009846DBD1002C00D090E0524601231A43DA
:100C0C0092460120DBE74C4658461700022824D0B8
:100C1C00032800D1CFE00022002301284DD1580237
:100C2C00D205400AFF071043384303B03CBC904642
:100C3C009946A246AB46F0BD002B5BD104239A46E5
:100C4C00033B00259B46AAE7FF35002C60D152469A
:100C5C0002231A4392460220B1E7FF220023DEE76B
:100C6C004B461B0C9C464B462604360C180461461E
:100C7C003300220C6446000C43434E435043544310
:100C8C0080191A0C1218964203D9802149028C46FD
:100C9C0064441B041B0C1004C01883015E1EB3417A
:100CAC00800E1843130C1B199B0103431C002301DA
:100CBC0079D5012362081C401443019A7F32002A23
:100CCC004DDD630704D00F232340042B00D00434E4
:100CDC00230103D53C4B019A1C408032FE2ABCDC1C
:100CEC00A3015B0AD2B29AE70C239A46093BFF2573
:100CFC009B4654E7180002F04BF94A46431F7625F1
:100D0C009A4000236D4291462D1A9A469B4646E71F
:100D1C00524603231A439246032050E7200002F068
:100D2C0037F9431F2D1A9C40763D002047E780235E
:100D3C000027DB03FF2272E7424666E74C4632008F
:100D4C00584662E780234A46DB031A4222D01C42F3
:100D5C0020D123435B025B0A4746FF225FE7012356
:100D6C009A1A1B2A21DC23000199D3409E318C4016
:100D7C001A0023005C1EA34113435A0704D00F2210
:100D8C001A40042A00D004335A0111D49B015B0A87
:100D9C00002244E780234A46DB0313435B025B0AD1
:100DAC003700FF223BE7019587E70022002336E757
:100DBC000122002333E78023DB0323435B025B0A1E
:100DCC00FF222CE74C7D0108FFFFFFF7F8B54746E3
:100DDC00CE464400C20F80B547024802400A844602
:100DEC00664648007F0A240EF60025009046FB005C
:100DFC00000EC90FB146FF2800D185E001267140D5
:100E0C00261A914257D0002E43DD002800D07FE0F7
:100E1C004946002900D1AAE0013E002E00D0F7E09F
:100E2C005B1A5A0100D48BE09B019C09200002F054
:100E3C00AFF805388440854200DDD3E0451B230024
:100E4C0020200135EB40451BAC40621E94412343EE
:100E5C00072400251C40012241460A40002C04D0E6
:100E6C000F211940042900D00433590100D480E02B
:100E7C000135ECB2FF2D00D0A3E0FF2400235B0270
:100E8C00E405580AD207204310430CBC90469946FF
:100E9C00F8BD002E74D1601CC0B2012800DCA7E0A4
:100EAC004A469C1A620100D5B6E0002CBED1002245
:100EBC0000240023E3E7002E00DC85E0002846D068
:100ECC00FF2C49D080224846D2041043814601228F
:100EDC001B2E09DC20204C46801B84404A462000F7
:100EEC00F240441EA04102439B185A0128D50135FB
:100EFC00FF2D00D1A8E00122072494491A405B0879
:100F0C000B4013431C40A6E7002E00D078E775E792
:100F1C00FF2C54D080224946D20411438946012229
:100F2C001B2E09DC20214846891B88404A460100BB
:100F3C00F240481E81410A439B1A5A0100D573E7BF
:100F4C00012241460A40590700D089E711E0484682
:100F5C00002858D1FF2C0CD1DB08002B00D18CE7DA
:100F6C008020C00303435B025B0AFF2487E7FF2C4E
:100F7C0025D0DB08FF2DF0D05B025B0AECB27EE7DC
:100F8C00002C4DD0FF2818D08024E4047242234357
:100F9C001B2A00DDC4E01C002025D440AA1A934073
:100FAC005A1E934123434A460500D31A884638E714
:100FBC00721CF8D0F243FF28EAD10A004B46FF25F9
:100FCC00D7E79B015B0A5AE7002E41D1651CE9B2B9
:100FDC00012945DDFF2D00D14FE707244B445B0869
:100FEC001C4038E707225A4B2D1A2340144032E795
:100FFC00002C1DD1002B7AD14B46002B00D191E057
:10100C000A000025B5E7013E002E19D14B446CE7D0
:10101C00FF2C84D1FF25ACE74A468846D41A05E755
:10102C00002BC5D10A00FF28C8D005004B46A0E70D
:10103C00002B49D14B46002B77D00A00FF2598E7AF
:10104C00FF2C00D043E787E70A00FF24002316E7B4
:10105C00002C15D1002B57D1FF28E6D14B467BE74E
:10106C00002C20D1002B57D04946002953D04B449B
:10107C005A0168D50724364A1C4001251340EAE67C
:10108C00FF28EBD08022D204764213431B2E53DC74
:10109C002025AD1B1A00AB40F2405C1EA34113434C
:1010AC004B44050021E7002BD8D04946002900D13C
:1010BC0052E78021C9030F4200D14DE76046084238
:1010CC0000D049E74B4647E74846FF25002800D1AA
:1010DC004FE78022D203174204D06046104201D160
:1010EC004B46884601224146FF250A4041E74846C7
:1010FC0000281FD01A1A500120D54A460724D31AAB
:10110C001C4088460025A6E6741CC9D0F643FF286F
:10111C00BCD14B4620E799464B460025DB082BE714
:10112C00012340E700220023A9E680230022DB03F1
:10113C00FF24A4E600251CE70123B1E7002AF1D027
:10114C0013000025FCE60025FAE6C046FFFFFF7DF4
:10115C00FFFFFFFB41024200C30F490A120E0020A1
:10116C007E2A0DD99D2A0CD8802000040143952A93
:10117C000ADC9620821AD1404842002B00D108008C
:10118C007047034A9818FBE7963A9140F4E7C0463B
:10119C00FFFFFF7F70B500283DD0C317C5185D4019
:1011AC00C40F280001F0F4FE9E22121A962A07DCC6
:1011BC00D2B2082833DD083885406802400A23E0A3
:1011CC00992A0BDD052329001B1AD94003001B3378
:1011DC009D402B005D1EAB4119430D00052801DD20
:1011EC00431F9D402B000F490B406E0709D00F2663
:1011FC003540042D05D004335D0102D59F220B40F0
:10120C00121A9B01580AD2B24002D205400AE407D6
:10121C001043204370BD002400220020F4E7680234
:10122C00400AF1E7FFFFFFFB70B5041E34D001F05C
:10123C00AFFE9E22121A962A07DCD2B208282EDDA7
:10124C00083884406002400A21E0992A09DD030035
:10125C0021001B3399404B1E994105231B1ADC407E
:10126C000C43052801DD431F9C4023000D490B4016
:10127C00650709D00F252C40042C05D004335C01E4
:10128C0002D59F220B40121A9B01580AD2B240027F
:10129C00D205400A104370BD00220020F7E760021F
:1012AC00400AF4E7FFFFFFFBF0B54F464646D64633
:1012BC000C000903C0B5490A470F5E0039431F03F0
:1012CC00DB0F9C4665007B0A570F1F436D0DE40F27
:1012DC00760DA146C000B846D200AB1B64457BD04E
:1012EC00002B5FDD002E00D0A4E03E00164300D1A1
:1012FC0012E15E1E002E00D09EE1871A4346B842D2
:10130C0080410125C91A4042091A0B0200D431E16F
:10131C0049024E0A002E00D16EE1300001F038FE79
:10132C000300083B1F2B00DD61E120223900D21A9B
:10133C009E40D1409F400E439D4200DD51E15D1B1C
:10134C006B1C1F2B00DD7CE12021C91A3D003000F5
:10135C008F408840DD40791E8F41310007222843A1
:10136C00D940002507433A40002A09D00F233B40BF
:10137C00042B05D03B1DBB42BF417F42C9191F0046
:10138C000B0200D426E26A1CC64B55056D0D9A4221
:10139C0000D106E1C44AFF080A40530752023B43FE
:1013AC00120B8EE0002B00D0B8E06B1C5B055B0DC4
:1013BC00012B00DC30E1871A4346B842B641CB1A08
:1013CC0076429E1B330200D54CE13B003343A1D146
:1013DC0000220024002570E0002B00DCE5E0002E4C
:1013EC0000D183E0AF4EB54260D08026360437433F
:1013FC00B846382B00DC3EE1434613431F007A1EEF
:10140C0097413F1887428041404209180B0200D493
:10141C00B0E0A44B01359D4200D1C3E0A24A7B0849
:10142C000A4001210F401F435108D30707221F43D5
:10143C003A4099E79B4EB54238D080263604374364
:10144C00B846382B00DDDCE01F2B00DC30E11E0041
:10145C004746203EF740BC46202B04D04026F31ACA
:10146C0046469E403243170063467A1E97411F43FF
:10147C00CCE0002B00D104E24346134300D159E1E8
:10148C004B07C00818438023C9081B03194208D016
:10149C004546ED081D4204D14346D0085907084380
:1014AC002900420FC9007F4D1143C0004B07CA08E9
:1014BC007C49C00803438D4268D012036D05120BA2
:1014CC006D0D002112031800130B0A0D12051A439F
:1014DC00764B2D0513402B435B00E4075B0823433D
:1014EC0019001CBC90469946A246F0BD3E0016431E
:1014FC0012D05E1E002E00D000E18718874280417A
:10150C0041444042091801250B0233D5022585E7D9
:10151C0064463300414610001D00C7E7002D00D083
:10152C00DAE00C000443F3D05C1C00D19FE15D4C6D
:10153C00A64200D12FE1DB43382B00DD66E11F2BE7
:10154C0000DD83E120240500E41A0F00DD40D940C2
:10155C00A0404346A7405B1A441EA04198462F4327
:10156C003843171ABA42924143465242991A64467A
:10157C003500CAE607223A40002A00D0F6E64B07AF
:10158C00CA084849FF083B438D4296D119001143C4
:10159C0000D19EE1802109030A431203120B414D35
:1015AC008FE71500002200238BE7002B00D0C7E04B
:1015BC006B1C5F057F0D012F00DCF1E0394DAB4258
:1015CC0000D1B9E085180A0085428941424449425C
:1015DC0051180722CF076D082F4349083A401D00C8
:1015EC00C2E607223049ED1A31403A40BCE63E00D3
:1015FC002838864000279FE6380001F0C9FC2030CF
:10160C008EE6434613431F007A1E9741C71BB84210
:10161C0080414042091A78E60E003B000643134312
:10162C00002D61D1002E00D0F4E0002B00D11BE185
:10163C0064463900100039E71A4FBB427AD03300A8
:10164C00FFE630001F3DE840202B03D04021CB1A91
:10165C009E4037437B1E9F41072207433A4000219F
:10166C00002589E7171A4346BA42B641591A764201
:10167C008E1B64464EE61F2B00DDADE02026474650
:10168C00F61AB740B9461700B246DF404E463E4305
:10169C0037005646B240561EB24117434246DA4016
:1016AC008918AEE6FF070000FFFF7FFFFFFF0F80EA
:1016BC0020264746F61AB740B9461700B246DF4017
:1016CC004E463E4337005646B240561EB241174373
:1016DC004246DA40891A99E77F4CA6425BD08024B7
:1016EC0024045B42214327E7002E0CD1002B00D1B0
:1016FC00CBE0644639001000774DD7E6764FBB42FD
:10170C0018D0330075E6002B14D04B07C0081843D3
:10171C008023C9081B03194207D0FC081C4204D1C2
:10172C007907D0080843E14621004C46420FC90016
:10173C001143C000684DB9E61D0000220023C0E62D
:10174C00002D5BD10D00054300D1E2E65D1C00D1FC
:10175C00B0E0614DAE421FD0DB43382B71DC1F2B48
:10176C0000DD96E020250F00ED1AAF40B9460700CA
:10177C00AA46DF404D463D432F005546A840D94070
:10178C00451EA84188440743BF18974292415142D5
:10179C00414435003AE6644635004146100085E682
:1017AC000B000343002D00D063E6002BF5D043461D
:1017BC00134300D17AE687188742804107224144BF
:1017CC00404209183A400B0200D4D5E6434B013590
:1017DC001940C9E5380069E61E004746203EF7402F
:1017EC00BC46202B04D04026F31A46469E4032437A
:1017FC00170063467A1E97411F4302E6364DAE42F0
:10180C00CAD080252D045B422943A6E70843411E1C
:10181C008841A6E6002B00D148E6871A4346B84219
:10182C00B641CB1A76429E1B33024BD5171A434650
:10183C00BA429241591A5242891A072264463A40D6
:10184C0092E501430F00791E8F419DE71C000F00AC
:10185C00203CE740202B03D04024E31A9940084356
:10186C00411E884138437CE60022002425E6171AE5
:10187C004346BA429241591A5242891A644635007B
:10188C0043E541461000144D10E68022002412035B
:10189C0080E61D000F00203DEF40BC46202B03D0FE
:1018AC004025EB1A9940084307006346781E874190
:1018BC001F4369E7871897429B4141445B42C91813
:1018CC003500A3E53B003343CED0072231003A402C
:1018DC0052E600231A00F4E5FF070000FFFF7FFF2C
:1018EC00F0B55746DE464E464546E0B58346070002
:1018FC000E03480085B092461C00360B400DCD0FF0
:10190C00002800D19DE0954B984239D08023F600F9
:10191C001B041E43924A7B0F3343994694460300A3
:10192C006344009300230026FF00029323031B0B48
:10193C0098466300E40F52465B0D019400D1B3E06E
:10194C0086498B4200D19EE04246D100802212048F
:10195C000A435146490F11438B46814952468C46E6
:10196C0000996344CB1A0021D20000932B006340F2
:10197C009A460F2E00D905E17A4BB6009B599F462B
:10198C005B463343994600D0B8E002230826002773
:10199C0000900293CAE7CB463A0002990195019B4D
:1019AC009A46022927D0032900D180E2012944D08C
:1019BC006D49009B8C4663441C00002C38DD53079A
:1019CC0000D013E2D2085B46DB0109D55946674BC0
:1019DC0019408B468021C9008C46009B63441C0037
:1019EC00634B9C4207DC5B4664055F075B02174355
:1019FC001B0B620D02E000230027584A00211B0339
:101A0C001C0B0B0D1B05234314055A4A38001340BD
:101A1C001C4353466400DB0764081C43210005B0DB
:101A2C003CBC90469946A246AB46F0BD01225242C0
:101A3C0001231B1B382B00DCADE100220023002707
:101A4C00DCE75B46334399465ED0002E00D18AE139
:101A5C00300001F09DFA03000B3B1C2B00DD7BE1F9
:101A6C001D22D31A5A460100DA4008398E40130061
:101A7C005F46334399468F403F4B00261B1A009319
:101A8C000023029352E7414653460B433B499B4686
:101A9C008C46009B634400935B46002B3BD1022396
:101AAC0000221E43022161E7434613439B4637D075
:101ABC004346002B00D162E1404601F069FA030075
:101ACC000B3B1C2B00DD53E102004146083A9140D0
:101ADC0088461D21CB1A5146D9400B0041460B4379
:101AEC009B46534693401A00009B25499C466044F4
:101AFC0003008C4663440093002137E70323B1466F
:101B0C0000900C26029311E7002300930133042666
:101B1C00002702930AE70323C3461E43032125E74C
:101B2C0001331E430022012120E700239A46802323
:101B3C0000271B03094A61E7802349461B0319420E
:101B4C0000D1E2E05946194200D0DEE00B431B0302
:101B5C0017001B0BA246014A50E7C046FF070000C6
:101B6C0001FCFFFF8C7D0108FF030000FFFFFFFE5F
:101B7C00FE070000FFFF0F800DFCFFFF01F8FFFFC9
:101B8C00F3030000D94500D9CBE000D1C6E03C00FE
:101B9C0048460027009B013B00935B46160E1B0238
:101BAC001E431302984633041B0C9946310C0191C9
:101BBC00FEF74EFB4A4642430B04210C0500194329
:101BCC008A4207D98919013D8E4203D88A4201D92C
:101BDC00851E8919881A0199FEF73AFB09048C466F
:101BEC004A46210464464243090C030021438A42BD
:101BFC0004D98919013B8E4200D8F1E02D041D4314
:101C0C00AB464346891A4246280C12041D0C5B460F
:101C1C00140C22001B041B0C5A4303946B434443C7
:101C2C00029568431B19150CEB189C4203D98024B0
:101C3C006402A44660441C0C15041B042D0C2018D3
:101C4C005D19814277D373D00C1AA24A7D1BAF4227
:101C5C00BF419446009B7F426344E01B1C008642BC
:101C6C0000D1DBE00199FEF7F3FA4A4642430B043C
:101C7C00290C070019438A4207D98919013F8E4262
:101C8C0003D88A4201D9871E8919881A0199FEF74F
:101C9C00DFFA09044A46894629044D464243090C99
:101CAC00030029438A4207D98919013B8E4203D884
:101CBC008A4201D9831E89193F04891A3A00039F6D
:101CCC001A43380013041B0C584381460298150C18
:101CDC006F43434345434846000C8446DB19634439
:101CEC009F4203D9802040028446654448461F0C1D
:101CFC0000041B04000C7D191818A94200D284E0C2
:101D0C0000D17FE001231A4357E680234A461B0388
:101D1C0013431B031B0BAA466F4A6FE6BA4200D94A
:101D2C0035E74B46DC0758087B081C43FF0734E7B4
:101D3C000024AF4289D247444745A4415B466442E4
:101D4C00A4196418013BA6421ED2A0426DD800D142
:101D5C00B6E0241A9B4678E703005A46283B9A4083
:101D6C000027914688E6584601F012F9203072E6B9
:101D7C0003005246283B9A4093460022B4E6504654
:101D8C0001F006F920309AE6A642E2D1B845DCD93A
:101D9C00341A9B4659E71F2B65DC504C0099A4461E
:101DAC005C46614408008C4011008240D940501EB2
:101DBC0082410C4314435A46DA401300620709D09F
:101DCC000F222240042A05D02200141D944289417E
:101DDC0049425B181A0262D50122002300270DE646
:101DEC008A4200D80AE7831E891907E70F2313409C
:101DFC00042B00D1E6E5171D9742924153429B44B8
:101E0C00FA08E0E5002800D1D7E57118531EB1425D
:101E1C0027D3A94215D358D01A0073E7002B00DC46
:101E2C0004E6012300229B44CDE5022347444745A9
:101E3C0089415B429C46494289190C19E344241A96
:101E4C0003E743465F0047459B41B8465B429E19FA
:101E5C00023A8919A94200D054E7404500D051E715
:101E6C00ABE51A00F6E71F215F4649420C1BE74021
:101E7C00202B07D01A49009B8C46634418005B4604
:101E8C0083401A43501E82413A43072700231740D0
:101E9C0009D00F21002311401400042995D12200F0
:101EAC005F075B021B0BD20817430022A6E58023B9
:101EBC0059461B030B431B0317001B0B064A9DE5DE
:101ECC00BD42B2D89B460024BFE68045B9D31A0068
:101EDC00C3E7C046FF030000FF0700001E0400001C
:101EEC003E040000F0B54F464646D6468446C0B583
:101EFC008046194E18030F034D00000B5C00824600
:101F0C003F0B6D0DC90F9146640DDB0F0120B542DF
:101F1C000AD0B44203D0A54201D157450CD01CBC09
:101F2C0090469946A246F0BD66463E43F7D1AC4278
:101F3C00F5D154461443F2D10120C845EFD1994252
:101F4C0007D0002DEBD163461F433800471EB84124
:101F5C00E5E70020E3E7C046FF070000F0B54F4679
:101F6C004646D6464D00C0B50E03C90F8A462C49CD
:101F7C001F035C008046360B6D0D91463F0B640DC4
:101F8C00DB0F8D421ED08C4216D0002D1ED130435B
:101F9C008446002C01D13A4323D06246002A1AD041
:101FAC009A4529D0514602200139084001381CBC01
:101FBC0090469946A246F0BD39001143E5D0022067
:101FCC004042F4E73043FAD1AC420FD0002C0FD191
:101FDC003A43E7D00CE00122013B93431800013057
:101FEC00E5E763460020002BE1D0DBE73A43E6D17E
:101FFC009A45D7D1A542D5DCA54205DBBE42D1D846
:10200C0008D00020BE42D2D250460123013898435A
:10201C000130CCE7C845C5D80020C845F4D3C6E785
:10202C00FF070000F0B54F464646D6464D00C0B5FA
:10203C000E03C90F8A462E491F035C008046360BDF
:10204C006D0D91463F0B640DDB0F8D4218D08C4209
:10205C0011D0002D18D130438446002C1ED13A43A8
:10206C001CD163460020002B30D051460220013990
:10207C00084001382AE039001143EAD0022025E05B
:10208C003043FBD1AC4226D0002C26D13A4324D18C
:10209C005146022001390840013817E06246002AF7
:1020AC000FD09A45E1D1A54205DBBE42DDD819D04F
:1020BC000020BE420AD25046012301389843013019
:1020CC0004E00122013B9343180001301CBC9046F4
:1020DC009946A246F0BD3A43D0D19A45C5D1A54206
:1020EC00C3DCE0E7C845C0D80020C845E3D3EDE722
:1020FC00FF070000F0B55746DE464E464546E0B5B4
:10210C00834606000F03480087B092461D003F0B24
:10211C00400DCC0F002800D16FE0DE4B984238D038
:10212C008023FF001B041F43730F3B430193DA4BC7
:10213C000027994600239B46F60081442B03690037
:10214C001B0B52469846490DED0F002900D185E036
:10215C00D04B994200D173E04346DA0080231B0434
:10216C0013435246CC48520F844613435246002028
:10217C006144D20089442100694000918C460121C0
:10218C0049448A460F2F00D990E0C449BF00CF596B
:10219C00BF465B463B43019300D06AE1022308270C
:1021AC00002681469B46C9E732005846019B614692
:1021BC000091022800D175E0032800D1FEE101282E
:1021CC0000D02CE100230027002600253F032A0D18
:1021DC003F0BB34812053A4302401B051343009AC8
:1021EC005B00D1075B080B433000190007B03CBC07
:1021FC0090469946A246AB46F0BD5B463B430193E5
:10220C0000D12FE1002F00D1A5E1380000F0C0FE75
:10221C0003000B3B1C2B00DD96E11D22D31A5A4602
:10222C000100DA405E4608398F4013008E403B4374
:10223C0001939C4B00271B1A994600239B467DE774
:10224C00414653460B4393498C46E144002B00D046
:10225C001AE102220220174300228CE7134300D11B
:10226C000DE14346002B00D181E1404600F090FE89
:10227C0002000B3A1C2A00DD72E1010043460839CA
:10228C008B4098461D239A1A5346D3401A00434656
:10229C00134352468A404946081A8249894681446A
:1022AC00002068E77B4B002700268EE7140C1204F5
:1022BC00120C1100370C3604350C794328008C466F
:1022CC002E0060436044834656432100300C804608
:1022DC005846794340440291844506D9884680216A
:1022EC0049028C46E044414602913604010C360CFE
:1022FC0000048B4681191E0C1B041B0C0391190046
:10230C0079438C46280075436544A8465843050C10
:10231C0045447743A94203D9802149028C4667443E
:10232C00290C8C4639000004000C2D042D18614436
:10233C00AB4405915946049101990F043F0C080CCC
:10234C00390051434243904602008C46090C8B469F
:10235C0062437C4344445C44A04503D98021490238
:10236C0088464244210C884661460904090C8C4677
:10237C0039005943434370437E430F0CF618240431
:10238C00BE19644442448C46B34203D980235B0299
:10239C0098464044029B61469846049B370443444C
:1023AC009B46AB45AD416B420D0405992D0C8C46FB
:1023BC007F196744FD18A8465D462D19A542A44116
:1023CC0093466442A446C344DC448F42BF419845C3
:1023DC009B4193459241A445A4415B427F421F43DC
:1023EC00360C52426442BF192243BF186246381859
:1023FC004302D20D039913436A020A43501E8241D1
:10240C006146ED0D2A434E023243D90100D4B3E0AC
:10241C000126500832400243DE0732435B08224C4F
:10242C005444002C62DD510709D00F2010400428C1
:10243C0005D0101D9042924152429B180200D901C6
:10244C0004D580241948E4000340544418488442BD
:10245C0000DD27E75E075B02D2081F0B63051643FE
:10246C005B0DB2E6002399460133042700269B46F8
:10247C0064E60323019781460C279B465EE6012206
:10248C0001201743002276E6032303201F43434613
:10249C0071E6C046FF07000001FCFFFFCC7D010880
:1024AC00FFFF0F800DFCFFFFFF030000FFFFFFFE8F
:1024BC00FE0700000023802700933F030026434BB8
:1024CC0083E6019B3200A446584670E6AC466EE6A5
:1024DC00802701993F0339422DD03B422BD11F431A
:1024EC003F033F0B00951600384B6EE601252D1B64
:1024FC00382D00DD66E61F2D40DC35481C005044AD
:10250C00160082408440EE40501E824134431443F6
:10251C00EB40620709D00F222240042A05D022008A
:10252C00141D9442804140421B181A023ED50123CF
:10253C000027002649E68027019B3F031F433F03EA
:10254C003F0B0094214B40E603005A46283B9A402F
:10255C00002601926DE6584600F01AFD203057E631
:10256C0003005246283B9A401300002293E6504643
:10257C0000F00EFD20307BE6CA4650E71F201E00FF
:10258C004042041BE640202D03D0124C5444A3407F
:10259C001A43501E8241324307260027164009D0A9
:1025AC000F200023104014000428B9D122005E072C
:1025BC005B021F0BD2081643002306E680273F035D
:1025CC001F433F033F0B1600004BFEE5FF070000C7
:1025DC001E0400003E040000F8B557464E46454622
:1025EC00DE460C000903E0B5490A460F5F00314393
:1025FC001E03DB0F760A9B46530F3343C84E650010
:10260C00C000E40FD2006D0DA24681467F0D9C46A2
:10261C009046B74200D1B9E05B46012673409B4619
:10262C00EE1BA34500D183E0002E63DD002F00D00C
:10263C00B1E06346134300D123E1731E002B00D09D
:10264C00BAE1861A6346B04280410125C91A40425C
:10265C00091A0B0200D447E149024B0A984643463B
:10266C00002B00D189E1404600F092FC0300083BAE
:10267C001F2B00DD7CE120223000D21A4146D040D5
:10268C00994002009E400A439D4200DD6AE15D1BB9
:10269C006B1C1F2B00DD94E1202110003500C91AA2
:1026AC008E40DA408840DD40711E8E4111000722B9
:1026BC002843002506433240002A09D00F2333401B
:1026CC00042B05D0331DB342B641764289191E0046
:1026DC000B0200D43DE26A1C914B55056D0D9A42DC
:1026EC0000D119E18F4AF6080A40570752023743C6
:1026FC00120B9BE0002E00D0C5E06E1C7605760D0B
:10270C00012E00DC48E16746861ACB1BB042BF4164
:10271C007F42B8461F004346FF1A3B00B8461B02D7
:10272C0000D55FE137439AD100220024002579E0DF
:10273C00002E00DCFAE0002F00D18DE0784B9D429A
:10274C0067D0802367461B041F43BC46382E00DC31
:10275C0052E1634613435A1E93411E188642804130
:10276C00404209180B0200D4BEE06D4B01359D426E
:10277C0000D1D2E06B4A73080A4001210E401E437F
:10278C005108D30707221E43324095E71E0016431B
:10279C0000D045E740E7624B9D423AD08023674624
:1027AC001B041F43BC46382E00DDEBE01F2E00DC63
:1027BC003AE133006746203BDF403B00202E05D03A
:1027CC004027BF1B6646BE40324390464646721EAB
:1027DC0096413343DAE0002B00D114E263461343F5
:1027EC0000D168E180234E07C008C9081B030643CB
:1027FC00194208D06046C008184204D16346010053
:10280C00D2085E071643F3009946C900720F444D77
:10281C0011434B46DE08424B4F073743CA089D42D3
:10282C0000D16EE012036D05120B6D0D0021120329
:10283C00130B0A0D12051A433B4B2D0513402B436A
:10284C005B00E4075B082343380019003CBC90464E
:10285C009946A246AB46F8BD6346134311D0731E8E
:10286C00002B00D007E1861886428041614440422B
:10287C00091801250B0237D502257BE73E0061467E
:10288C0091463500C5E75C46002D00D0E1E00B0019
:10289C000343F3D0731C00D1ACE1214B9F4200D118
:1028AC003AE1F343382B00DD6FE11F2B00DD8CE1A7
:1028BC0020250E00ED1AAE40B0460600AA46DE40BA
:1028CC00454635432E005546D940A8406346451E23
:1028DC00A8415B1A9C463043161AB2429241634699
:1028EC005242991A3D00B4E607223240002A00D029
:1028FC00E4E60B4BF6084F073743CA089D4200D05D
:10290C0090E73B00134300D1A6E180231B031A433D
:10291C001203120B024D89E715000022002785E7F0
:10292C00FF070000FFFF7FFFFFFF0F80002E00D08E
:10293C00C7E06B1C5E05760D012E00DCF0E0C84D87
:10294C00AB4200D1B9E085180A0085428941624446
:10295C00494251180722CE076D082E4349083240D0
:10296C001D00A9E6BF49ED1A114007223240A3E62B
:10297C00320028388240002686E6300000F008FB42
:10298C00203073E6634613435A1E9341C61AB04275
:10299C0080414042091A5CE60E0067460643174325
:1029AC00002D5ED1002E00D0F3E0002F00D11EE1EF
:1029BC005C46614691462CE7A94FBE427BD01E0077
:1029CC00F1E610001F3DE840202B03D04021CB1A2C
:1029DC009A401643731E9E41072206433240002143
:1029EC00002583E7161A6346B2428041591A4042C9
:1029FC000B1A98465C4632E61F2E00DDABE0202712
:102A0C00BB1B9A4663465746BB40994613004F463C
:102A1C00F3401F433B005746BA40571EBA4113437D
:102A2C006246F240891898E62027BB1B9A466346FB
:102A3C005746BB40994613004F46F3401F433B009B
:102A4C005746BA40571EBA4113436246F240891AA0
:102A5C009CE7834B9F425FD080252D047342294312
:102A6C0020E7002E0CD1002F00D1D0E05C4661464F
:102A7C0091467B4DCDE67A4FBE421CD01E0065E6DA
:102A8C00002F18D0C0084E0706438020C908000349
:102A9C00014208D06346DC08044204D12100DA4626
:102AAC00D2085E071643F300994601245346C90029
:102ABC00720F11431C406A4DABE61D00002200272B
:102ACC00B4E6002D59D10B00034300D1D6E6731C9C
:102ADC0000D1B2E0624B9F421ED0F343382B6FDC27
:102AEC001F2B00DD97E020250E00ED1AAE40B046FE
:102AFC000600AA46DE40454635432E005546A84002
:102B0C00D940451EA8418C440643B61896429241C2
:102B1C00514261443D0025E63D006146914678E610
:102B2C000B000343002D00D055E6002BF5D0634677
:102B3C00134300D16DE686188642804161444042C1
:102B4C00091800220B0200D4D0E6464B013519407F
:102B5C00B2E5B1465DE633006746203BDF403B0003
:102B6C00202E05D04027BF1B6646BE403243904600
:102B7C004646721E96413343EFE5394B9F42CBD00C
:102B8C0080252D0473422943A8E70843411E884140
:102B9C00A2E6002F00D13CE66346861ACF1AB0425B
:102BAC009B415B42FB1A98461B024ED5161A634694
:102BBC00B2429241591A5242891A5C4600227BE574
:102BCC0001430E00711E8E419FE71D000E00203D3B
:102BDC00EE40B046202B04D04025EB1A9940084318
:102BEC00814648464346411E8841184374E60022FC
:102BFC00002417E6161A6346B2429241591A524201
:102C0C00891A3D0025E561469146154D01E6802265
:102C1C000024120379E61D000E00203DEE40B04664
:102C2C00202B04D04025EB1A9940084381464E4690
:102C3C004346711E8E411E4367E7861896429B41A0
:102C4C0061445B42C9183D008CE547463743CED002
:102C5C0007224146324049E600273A00E6E5C046E5
:102C6C00FF070000FFFF7FFF70B50C4E0D031C0328
:102C7C0049005B002D0B490D240B5B0DB14208D0B4
:102C8C00064900208B4203D114432000441EA0416E
:102C9C0070BD05430120002DFAD1F1E7FF070000BC
:102CAC0030B5144D0A034B00120B5B0DC90F0024F9
:102CBC00AB4211DD104CA34210DC80246403224390
:102CCC000E4CE41A1F2C0CDD0D48C31ADA4013000D
:102CDC005C42002900D11C00200030BD094BCC18EF
:102CEC00FAE7094DE040AC4663449A4013000343B5
:102CFC00EEE7C046FE0300001D0400003304000094
:102D0C0013040000FFFFFF7FEDFBFFFF70B50028F1
:102D1C002DD0C317C5185D40C40F280000F038F93A
:102D2C00154B1B1A5B055B0D0A2815DD0B3885400E
:102D3C0000222D032D0B002110002D030A0D2D0B4D
:102D4C0012052A430D4D1B052A4013435B00E40773
:102D5C005B082343190070BD020029001532914015
:102D6C000A000B21081AC5402D032D0BE3E70024A4
:102D7C00002300250022DEE71E040000FFFF0F8069
:102D8C0010B5041E25D000F003F9144B1B1A5B057B
:102D9C005B0D0A2812DD0B38844000222403240B1F
:102DAC000021100024030A0D240B120522430C4CA5
:102DBC001B05224013435B00590810BD0200210083
:102DCC00153291400A000B21081AC4402403240B2D
:102DDC00E6E7002300240022E2E7C0461E040000C0
:102DEC00FFFF0F804100090E4B1C70B5DBB2460291
:102DFC00750AC40F012B14DDE0239B006D07360B05
:102E0C00CB1800210A0D280012051C4D32435B051E
:102E1C002A405B0813435B00E4075B08234319005B
:102E2C0070BD002914D1002D1ED0280000F0B0F880
:102E3C000A281CDC0B232A001B1ADA40030015336A
:102E4C009D400F4B12031B1A5B05160B5B0DD8E74D
:102E5C00002D06D0320B802636036D071643094B26
:102E6C00CFE7084B0026CCE700230026C9E7030078
:102E7C002A000B3B9A400025E3E7C046FFFF0F807A
:102E8C0089030000FF070000F0B54C00640D0B0334
:102E9C00621C5B0A460F5205C90F1E43C500520D3A
:102EAC00012A29DD374BE718FE2F1CDC002F3BDDF8
:102EBC008001431E98410722F3006D0F03432B43FF
:102ECC001A40002A04D00F221A40042A00D00433DE
:102EDC008022D2041A4024D00137FAB2FF2F02D03C
:102EEC009B01580A01E0FF2200204002D205400A53
:102EFC00C90710430843F0BD3543002C04D1002D05
:102F0C000AD100220020F0E7002DECD08020C00375
:102F1C003043FF22E9E7002400235B02580AE2B2A7
:102F2C00E3E7DB083C00F8E73B001733F3DB8023D7
:102F3C001B0433431E26F61B1F2E14DD02225242A5
:102F4C00D71B1A00FA401700202E04D00E4A9446C4
:102F5C006444A3401D432B005D1EAB4107223B4341
:102F6C001A400027ADE7094A2800A2189540934063
:102F7C006C1EA541F04007222B4303431A40002747
:102F8C009FE7C04680FCFFFFA2FCFFFF82FCFFFF17
:102F9C001C2101231B04984201D3000C10391B0A7D
:102FAC00984201D3000A08391B09984201D3000941
:102FBC00043902A2105C40187047C0460403020298
:102FCC0001010101000000000000000010B5002903
:102FDC0003D1FFF7DDFF203002E0081CFFF7D8FF1C
:102FEC0010BDC04670B50124002501E00134E4B2E7
:102FFC00084B1B78A3420BD3611E4900064BC91822
:10300C00601C04F0AFFBA31C1B2BEFDD0A25EDE7C6
:10301C00280070BD1C00002000690020F0B583B0B2
:10302C006B460022DA800026002523E06B469F1DAC
:10303C0028001C3080B2390004F094FB3988124A05
:10304C00B3009F19780010180155671E090A9B19C7
:10305C0058001218D1550135ADB20234E4B2092C26
:10306C00E4D9B3009B195A00074B9B1800225A72E3
:10307C000136F6B2054B1B78B34201D30124EEE7BF
:10308C00002003B0F0BDC046D80C00201C0000206E
:10309C00F0B583B06B460022DA80002400250BE0EB
:1030AC0063001E49C9182800CB3080B204F05AFBCB
:1030BC000135ADB20134E4B2194B1B78A342EFD801
:1030CC00002623E06B469F1D2800993080B2390002
:1030DC0004F048FB3988134AB3009F197800101884
:1030EC000155671E090A9B1958001218D155013554
:1030FC00ADB20234E4B2092CE4D9B3009B195A00E6
:10310C00084B9B1800225A720136F6B2092E01D8D0
:10311C000124F0E7002003B0F0BDC046640C002091
:10312C001C000020000C002070B584B00E216944F6
:10313C0000230B8003AA1380E42004F013FB002867
:10314C0000D075E00E236B441E780E216944E520F7
:10315C0004F008FB040003A9E62004F003FB04437D
:10316C00A4B2002C00D065E00E236B441D882D0406
:10317C0003AB1B88ED180E216944E72004F0F2FA2A
:10318C00040003A9E82004F0EDFA0443A4B2002CD7
:10319C0052D10E236B441C88240403AB1B88E41807
:1031AC000E216944E92004F0DDFA002807D10E2332
:1031BC006B441B88190A2C4A11702C4A13700E216F
:1031CC006944EA2004F0CEFA002807D10E236B44A0
:1031DC001B88190A264A1170264A13700E2169445D
:1031EC00EB2004F0BFFA002807D10E236B441B8898
:1031FC00190A214A1170214A13701B4B1B78002BA2
:10320C0003D01A4A1278002A18D1194B1B78002BBC
:10321C0003D0184A1278002A17D1174B1B78002BB1
:10322C0003D0164A1278002A16D1002004B070BDC3
:10323C0000268AE700259EE70024B1E700922200D1
:10324C002900300005F0D4FEDFE7009222002900AF
:10325C00300005F0CDFEE0E700922200290030009E
:10326C0005F0C6FEE1E7C0467A0D0020FD0B0020FC
:10327C007B0D0020FE0B00207C0D0020FF0B00209E
:10328C0010B582B08A206B46991D400004F06AFA92
:10329C00002800D064E06B4606331B88494A9371C2
:1032AC001B0AD37116206B46991DFF3004F05AFA95
:1032BC0000285CD16B46DA88424B1A808B206B4617
:1032CC00991D400004F04EFA002855D16B46DA885F
:1032DC003C4B5A8018206B46991DFF3004F042FA83
:1032EC0000284ED16B4606331B88364A13711B0AD5
:1032FC0053718C206B46991D400004F033FA040086
:10330C001A2001A9FF3004F02DFA0443A4B2002CBA
:10331C003ED16B4606331B8801AA12881204134354
:10332C00284A93608D206B46991D400004F01AFAD0
:10333C0000283BD16B4606331B88224A13731B0AA9
:10334C0053731C206B46991DFF3004F00BFA0028B8
:10335C0032D01D4BDA7E1B4BDA76002002B010BD4A
:10336C00194A9179174B9971D279DA719AE7164B00
:10337C001A88144B1A80A1E7134B5A88114B5A80A8
:10338C00A8E7114A11790F4B197152795A71B0E7AC
:10339C000E4B1B78002B04D00A4BE12252029A6090
:1033AC00C0E7094B9A68074B9A60BBE7054B18229C
:1033BC005A7300221A73C4E76B469A79014BDA767A
:1033CC00CBE7C0462865002000000020DE0A002064
:1033DC00F0B589B01E236B4400221A80002401E052
:1033EC000134E4B2042C54D825003B35AD00ADB209
:1033FC001E216944280004F0B5F90028F0D11E23E1
:10340C006B4419880B0A1809621C9042E8D10F20F2
:10341C000340E5D0D700BA181F4FBF187B70397224
:10342C001E266E44681C80B2310004F09BF9338870
:10343C001A0ABA707B71A81C80B2310004F092F9A0
:10344C0033881A0AFA70BB710335A8B2310004F044
:10345C0089F933881A0A3A71FB71651CEDB27878D8
:10346C00290004F037FE397A4A08BB780120024063
:10347C00014000200590F8790490B8790390787990
:10348C00029038790190F8780090280004F038FF09
:10349C00A6E7002009B0F0BDA4100020F0B5D64678
:1034AC004F4680B583B032200FF0A2FD071E65D0C9
:1034BC00364B1B78FE2B63D10026344C4BE0227824
:1034CC00FA540133DBB20134132BF8D9B246B300F2
:1034DC009B199A002E4B91469944791C142248460C
:1034EC000FF0D3FF1422002138000FF0D7FF002576
:1034FC0003E07A5501340135EDB201942278931C26
:10350C00DBB2012B01D9312DF3D97B19013B1B788F
:10351C00002B01D00135EDB228000FF069FD5346A8
:10352C009B0053449A001A4B9B18D860002816D065
:10353C002A0039000FF0A9FF164A137801331370D3
:10354C002A00002138000FF0A9FF019B1B78FE2BED
:10355C000FD10136F6B2042E0BD80023B4E7142297
:10356C00002148460FF09AFF38000FF04BFD0E205B
:10357C0007E038000FF046FD002002E0FB2000E0E1
:10358C00FF2003B00CBC91469A46F0BD00DC01084C
:10359C00446500204F0E002010B5FFF723FDFFF708
:1035AC003DFDFFF775FDFFF7BFFDFFF769FEFFF768
:1035BC000FFFFFF773FF10BD70B50124002605E067
:1035CC00601C04F081F90CE00134E4B2084B1B7868
:1035DC00A3420BD32500631E5B00064A995A0029AF
:1035EC00EED102351B2DEFDD0A26EDE7300070BD64
:1035FC001C00002000690020F8B50026002517E00B
:10360C00601EBA00D2195100114B5B18195C0902EB
:10361C001B5DC91889B228001C3080B204F054F923
:10362C000135ADB20234E4B2092CE9D90136F6B257
:10363C00084B1B78B34209D33700B3009B195A00CF
:10364C00034BD35C002BF1D00124EDE70020F8BD37
:10365C00D80C00201C000020F8B5DE4657464E461C
:10366C004546E0B50F00160099460AAB1B789B4601
:10367C000BAB1D780CAB1B789A460DAB1C780EABC4
:10368C001B78984681B2E42004F01EF9390A89B2FD
:10369C00E52004F019F9B9B2E62004F015F9310A65
:1036AC0089B2E72004F010F9B1B2E82004F00CF96B
:1036BC004B461902594489B2E92004F005F92D0250
:1036CC005544A9B2EA2004F0FFF824024444A1B204
:1036DC00EB2004F0F9F800203CBC90469946A24639
:1036EC00AB46F8BD10B51A4CE3795B01A1791943CF
:1036FC008A20400004F0E8F821881620FF3004F0FE
:10370C00E3F861888B20400004F0DEF863791B023B
:10371C00217B19431820FF3004F0D6F821898C2026
:10372C00400004F0D1F861891A20FF3004F0CCF885
:10373C00637B1B02217919438D20400004F0C4F8EF
:10374C00E17E1C20FF3004F0BFF8002010BDC04605
:10375C002865002070B5042200210F480FF09EFE52
:10376C000124002605E0601C04F0AEF80CE00134E6
:10377C00E4B20A4B1B78A3420BD32500631E5B00FB
:10378C00054A995A0029EED102351B2DEFDD0A2688
:10379C00EDE7300070BDC046006900201C00002021
:1037AC0010B5064B1A68064B9A4206D004F0A2F8E4
:1037BC00002802D1014B024A1A6010BDF07F002094
:1037CC00ADDEEFBE70B58EB012256D4404AB009328
:1037DC0007AB2A0008A9012009F09CFB03AC00945C
:1037EC0005AB0E226A4406A9022009F093FB0123C3
:1037FC000A9300260B962B88099309A908980DF0BB
:10380C0041FD0A9602230B932388099309A9059875
:10381C000DF038FD2988002208980DF084FE052053
:10382C0009F0F6FE218805980DF076FE002802D0EE
:10383C0000200EB070BD12236B4419880122089829
:10384C000DF071FE052009F0E3FE03AB1988059815
:10385C000DF062FE0128ECD00020EAE710B50AF06A
:10386C0019F80400E1231B0243608023DB00036191
:10387C0080235B0183600FF017FA22681368202104
:10388C000B43136010BD000070B505000024002C24
:10389C0001D0002070BD63001B199A00064B9B18C9
:1038AC0099682800FCF728FC002802D00134E4B207
:1038BC00EDE70134E0B2EDE7F000002070B5040054
:1038CC00002501E00135EDB2052D25D81849200061
:1038DC00FCF712FC002821D016492000FCF70CFC48
:1038EC0000281DD014492000FCF706FC002819D034
:1038FC0012492000FCF700FC002815D010492000CC
:10390C00FCF7FAFB002811D00E492000FCF7F4FB61
:10391C000028D7D1062000E0002070BD0120FCE774
:10392C000220FAE70320F8E70420F6E70520F4E785
:10393C00788001087C80010880800108848001085F
:10394C00888001088C80010870B509F019FD09F018
:10395C00B7FD04F033F809F0A7FA08F047F809F0BE
:10396C00E3FD09F04FFA09F011FE09F01FFB0028E6
:10397C0011D1FFF727FF002851D0354B01221A70C7
:10398C00322009F045FE07F087FE324BE12252024D
:10399C009A60012411E0FFF703FFBFF34F8F2E4B0A
:1039AC002E4ADA60BFF34F8FC046FDE7294B99686A
:1039BC00200009F0FBFF0134E4B2042CF6D9FFF728
:1039CC00EBFD08F071FD264B1B78002B2DD08025CC
:1039DC006D009024E4050122290020000DF0A3FDC8
:1039EC00FA20400009F014FE0022290020000DF0FE
:1039FC009AFD642009F00CFE0122290020000DF034
:103A0C0092FD642009F004FE0022290020000DF034
:103A1C008AFD03F00DFE134B01221A7070BD32208B
:103A2C0009F0F6FD07F038FEC9E780256D009024FB
:103A3C00E4050122290020000DF075FDFA2040005C
:103A4C0009F0E6FD0022290020000DF06CFDE0E7F6
:103A5C00DE0A00202865002000ED00E00400FA05D5
:103A6C0070000020DD0A002010B50CF0C1F807F042
:103A7C00CFFCFFF769FF04F0BFF90AF056F810BD50
:103A8C00F0B5DE4657464E464546E0B583B000AF2E
:103A9C00424B1B780733DB08DB006A46D31A9D4682
:103AAC006C46002306E00022E2545D003C496A5259
:103ABC000133DBB2394A12789342F4D30138012333
:103ACC002354012201E00132D2B2042A17D8C300D8
:103ADC001B1A9B185B0033495B5A002BF3D0551E05
:103AEC000121A9400D002E4E41008C46895B2943D3
:103AFC006546A953DB08013B0221E154E3E70223AD
:103B0C009B465E460136F3B29B4600239C462CE056
:103B1C000131C9B2042926D8EA00521B52185200AE
:103B2C002048125A002AF3D0D208013A7A60A05CDD
:103B3C000028EDD10800013801268640B04618480F
:103B4C0081466800824648465646305A46463043BF
:103B5C004E46524690537A685846A05462460132FB
:103B6C00D2B29446D4E70133DBB20C4A12789342BA
:103B7C0007D21D00E15C5A46013A9142F3D1012172
:103B8C00C8E76346002BBCD10020BD4603B03CBC4B
:103B9C0090469946A246AB46F0BDC0461C0000209C
:103BAC00E40A00202000002070B50B78002B03D114
:103BBC0004780023002602E0FF24FAE70133074AC9
:103BCC0012789A4208DDC25CA242F7D2CD5C002D7D
:103BDC00F4D1DEB21400F1E7300070BD1C000020FF
:103BEC000023012202E0C15C0A400133024909783A
:103BFC009942F8DC100070471C000020F0B58FB023
:103C0C0005000E003222002101A80FF047FC022211
:103C1C00002145480FF042FC2900013D0023434A96
:103C2C005355434A5355012000E00130062814DC5B
:103C3C00EB005B1B1B185B003E4A9B5A002BF4D01D
:103C4C00DB08B2B29342F0D1731E384A0121D15431
:103C5C00354B1E70C0B20FB0F0BD012300E0013334
:103C6C00354A12789A4209DB9942F8D05A1E2F48ED
:103C7C00FF2484542E4800248454F0E7002401A827
:103C8C00FFF7AEFF00280CD101A92848FFF78CFFE5
:103C9C000130C4B2B44204D0611E01AB01225A54AB
:103CAC0003E0002223E00132D2B2062AE7D8CB008F
:103CBC005B1A9B185B001F481B5A002BF3D0DB08C8
:103CCC00DBB2013B01A8C05C0028ECD1174F785C3B
:103CDC000130C0B2FF5C8742E5D9144FF854144848
:103CEC00C454E0E7531C10498C54DAB20400631E30
:103CFC000F49C85C0028F5D1012200E00132062AE8
:103D0C00A9DCEB005B1B9B185B000A495B5A002B80
:103D1C00F4D0DB08711E054C615C0139024C615C0E
:103D2C008B42EBD1D0B296E72C660020740D0020AC
:103D3C00780D0020200000201C000020F0B587B07A
:103D4C0007000E0005921C00314B1878FFF756FF48
:103D5C000490002C03D02E4B1D78B5420DD0002CB6
:103D6C000DD1731E2B4AD35C012B03D0013B2A4A85
:103D7C00D55C05E0264B1D7802E0049400E000259C
:103D8C00234B1B78BB4219D00598FFF767FD0498AD
:103D9C00FFF764FD1E4B1B78AB4232D01C4B1978DD
:103DAC0000230393013B02930193033300930B0015
:103DBC00049A059805F05CFC07B0F0BD09F0DCFF37
:103DCC000700002C16D1154B196832000FF060FD5E
:103DDC00134B196838000FF07BFD3800FCF796F98F
:103DEC0082B232233900059809F09EFD64200BF055
:103DFC001DFFC9E70B4B1968230032000FF048FD7B
:103E0C00E6E7049809F046FD012109F0D9FDC5E764
:103E1C0070000020740D00202C66002098000020FB
:103E2C00A00000209C000020F0B585B00400039099
:103E3C00544D554B2A0043CB43C219001B681360E9
:103E4C008B8893802800FCF761F982B201235B42D6
:103E5C00009333332900200009F038FD012513E0CD
:103E6C00484E2A00494930000FF012FD3000FCF793
:103E7C004DF982B201235B42009333333100039836
:103E8C0009F024FD0135EDB2042DE9D901235B4283
:103E9C000093333303223E49039809F017FD0027A2
:103EAC002FE007231340D2083A4936480FF0F0FCB4
:103EBC00344E3000FCF72AF982B201235B420093A6
:103ECC0033333100039809F001FD0135EDB2042DB7
:103EDC000CD8E3001B1B5B195B002F4A9A5A002A73
:103EEC00DFD12E4927480FF0D3FCE1E701235B42D9
:103EFC000093333302222A49039809F0E7FC013777
:103F0C00FFB2284B1B78BB4231D93C007A1C1D4DAB
:103F1C00254928000FF0BCFC2800FCF7F7F882B20A
:103F2C0001267642009632232900039809F0CEFC34
:103F3C00FB00DB1B5A00184BD25A53009B1859003C
:103F4C001A4BC918052228000FF0F7FC00963223F3
:103F5C0005222900039D280009F0B8FC00963223A5
:103F6C0001221349280009F0B1FC0125AFE7012318
:103F7C005B420093333301220E49039809F0A6FCEF
:103F8C0005B0F0BD080D00203C80010850800108F0
:103F9C00C494010868800108200000206480010896
:103FAC00E47E01081C00002058800108A480010850
:103FBC004C80010888960108F0B583B005002D4CA3
:103FCC002D4923000A0043CA43C343CA43C31268A2
:103FDC001A602000FCF79AF882B201235B4200932E
:103FEC0033332100280009F071FC012623E0013451
:103FFC00E4B20A2C1DD8731E5B00204A9A5A611E2B
:10400C0080231B020B411342F1D01A4F23003200C4
:10401C001B4938000FF03CFC3800FCF777F882B2F3
:10402C0001235B42009333333900280009F04EFC26
:10403C00DDE70136F6B2134B1B78B34201D30124F2
:10404C00D7E70C4C104923000A0043CA43C343CAA8
:10405C0043C303CA03C32000FCF758F882B2012300
:10406C005B42009333332100280009F02FFC03B08E
:10407C00F0BDC046080D0020EC7F0108006900204F
:10408C00088001081C0000201C800108F0B5C64601
:10409C0000B584B0070009F06FFE04000023037024
:1040AC00934B1A78934D944928000FF0F1FB29009B
:1040BC0020000FF00DFC914B1A78914928000FF05D
:1040CC00E7FB290020000FF003FC05230093033BC2
:1040DC0000228C4928000FF0DBFB290020000FF098
:1040EC00F7FB894A894928000FF0D2FB29002000F0
:1040FC000FF0EEFB864A874928000FF0C9FB290018
:10410C0020000FF0E5FB844B2A0043CB43C219007F
:10411C001B6813608B8893808B7993712900200026
:10412C000FF0D6FB01250DE0724B7C4A116819602B
:10413C009188998092799A716E4920000FF0C8FB92
:10414C000135EDB2042D3BD86A4E2A00744930007B
:10415C000FF09EFB310020000FF0BAFB714B5B5D42
:10416C00042BE9D89B00704AD3589F4661496F488D
:10417C000B00020043CA43C303CA03C312781A706C
:10418C00DAE75C4A6A4B43CB43C2D5E759496948E5
:10419C000B00020043CA43C343CA43C312881A80AC
:1041AC00CAE7544964480B00020043CA43C343CADC
:1041BC0043C3116819609188998092799A71BBE711
:1041CC004C495E480B00020061CA61C361CA61C3FD
:1041DC0020000FF07DFB01260BE0464D32005849C4
:1041EC0028000FF055FB290020000FF071FB013661
:1041FC00F6B2062E22D8751EEB005B1BDA00514B73
:10420C00D358002BE9D0EB005B1BDA004D4B9B180D
:10421C00586A07F059FA0390AD004B4BE85807F079
:10422C0053FA344D0090039B3200484928000FF09C
:10423C002FFB290020000FF04BFBD8E72000FBF7E9
:10424C0065FF2018032242490FF01FF92000FBF7ED
:10425C005DFF20181D223F490FF017F92000FBF7D6
:10426C0055FF8046012501E00135EDB2042D16D82D
:10427C001F4B1B78013B5B00374A9A5A691E8023FF
:10428C001B020B411342EFD01A4E2A003349300067
:10429C000FF0FEFA310020000FF01AFBE4E72000CB
:1042AC00FBF734FF43461B041B0C98420DD0200037
:1042BC00FBF72CFF2018032225490FF0E6F8002FFE
:1042CC0009D104B004BC9046F0BD20180522244945
:1042DC000FF0DBF8EBE72000FBF718FF82B20123AD
:1042EC005B42009333332100380009F0EFFAE8E722
:1042FC0070000020080D0020307E0108DF0A00202D
:10430C004C7E0108687E0108887E0108947E0108B5
:10431C00AC7E0108B87E0108D47E0108F07E01084D
:10432C00E87E0108580D00200C7E0108F87E01087B
:10433C00107F01081C7F0108387F0108587F010895
:10434C00707F0108F8140020481000208C7F0108B1
:10435C00E47E0108BC7F010800690020DC7F0108B5
:10436C00E47F010870B505002949FBF7C5FE00285C
:10437C000AD028492800FBF7BFFE002844D02E782D
:10438C00232E04D0002416E0234B187870BD681C33
:10439C000EF0F1FDC0B2002803D0204B1B788342F5
:1043AC0005D21D4B1C78844230D120B2EEE700B20E
:1043BC00ECE70134E4B2194B1B78A3420DD9A300EE
:1043CC001B195A00164989182800FBF795FE00287E
:1043DC00EFD1002EEDD020B2D8E70026092E11D84F
:1043EC00B3009B195A000F4989182800FBF784FE6B
:1043FC00002802D00136F6B2F0E73402FE2020434A
:10440C0000B2C3E76420C1E7FF20BFE76620BDE729
:10441C007080010874800108700000201C000020CE
:10442C00D80C0020000C0020F8B506000D0000246C
:10443C00032C09DCA3002949C9182800FBF75CFEF2
:10444C00002843D00134F3E70124254B1B78A34209
:10445C000BDDA3001B195A00224989182800FBF711
:10446C004BFE002834D00134EFE70024092C0BDC80
:10447C00A3001B195A001C4989182800FBF73CFEA5
:10448C00002827D00134F1E7184B194A1A60174B52
:10449C001C68002C0FD023681F683800FBF736FE11
:1044AC000200390028000FF037FA002814D0626897
:1044BC000E4B1A60EBE7B3009E1973000948C01845
:1044CC0029000FF021FAFFF797F802E0062000E030
:1044DC000720F8BD0720FCE70820FAE7207E01083A
:1044EC001C000020D80C0020000C0020600D0020C7
:1044FC0004010020F8B506000D000024092C14DC82
:10450C00A3001B195A00334989182800FBF7F4FD46
:10451C00002801D00134F1E7013E0122A2402E49CE
:10452C007600735A13437352F8BD0024032C09DC34
:10453C00A3002A49C9182800FBF7DEFD002845D046
:10454C000134F3E70124264B1B78A3420BDDA300B7
:10455C001B195A00234989182800FBF7CDFD0028A8
:10456C0036D00134EFE7204B204A1A6002E0626833
:10457C001D4B1A601C4B1C68002C1CD023681F6838
:10458C003800FBF7C3FD0200390028000FF0C4F916
:10459C000028ECD10820C7E70E48801829000FF03E
:1045AC00B3F9013E0122A2400B497600735A134322
:1045BC0073520020B8E7092CF3DCA3001B195A0036
:1045CC00044BD35C002BE7D00134F4E70620ABE7B7
:1045DC000720A9E7000C0020640C0020207E0108B5
:1045EC001C000020D80C0020640D002004010020C9
:1045FC0070B5012600251DE00134E4B2042C17D857
:10460C00200009F047F9426B80231B029A42F3D138
:10461C00144B1B78013B611E802212020A411100CF
:10462C0011485B001A5A0A431A52E5E70124E5E7E0
:10463C000136F6B20D4B1B78B34211D3094B1B78E4
:10464C00B342F3D000221321300004F0EBFF3220F0
:10465C0008F0DEFF064B1B78002BE9D00225E7E7BC
:10466C00280070BD70000020006900201C00002094
:10467C00700D002030B583B01E200EF0B9FC040084
:10468C001E2200210EF00AFF08490A7D013A8B7D9B
:10469C00487D098B9200064D5259019100900549B5
:1046AC0020000FF0F5F8200003B030BD2865002085
:1046BC00848301089080010800B585B00A00074B7F
:1046CC00197801230393023B029301930333009364
:1046DC000B0004F0CDFF05B000BDC04670000020FB
:1046EC0030B587B004000D000023049303930293AC
:1046FC0001930093002200210020FEF7ADFF621E03
:10470C00D3009B1ADA00154BD258002A07D0691E29
:10471C00CB005B1AD900114BCB58002B0ED1002AC1
:10472C0015D16A1ED3009B1ADA000C4BD358002B00
:10473C0012D0280002F0ECFE002006E0200002F06F
:10474C00E7FE280002F0E4FE002007B030BD200098
:10475C0002F0DEFE0020F8E76820F6E7F8140020EF
:10476C00F8B50700002501E0347001357E19347866
:10477C00002C09D00EF02EFC0019427803231340B4
:10478C00012BF1D12034EFE7F8BD0000F0B5C6469F
:10479C0000B588B00500D74B1C78052C00D10DE274
:1047AC00D548A3001A19910000220A5440184270EF
:1047BC000230043200210EF071FE2B78622B02D1F4
:1047CC00AB782E2B4FD0CD4E290030000FF09CF83B
:1047DC00CB4C210030000FF017FF0500210000200A
:1047EC000FF012FF0600210000200FF00DFF040057
:1047FC00002D00D1E9E12800FFF746F8051E02D094
:10480C00002E00D1ACE1002E00D1E0E1002C00D153
:10481C00DFE12000FFF738F8002800D1B1E1B54BFB
:10482C001978B54A8B005F18BC000427A7541419DB
:10483C00E570E071AF4D2C783000FFF73FF8AE4AD1
:10484C00A10009198B00D31858702B789900C9183E
:10485C00880012185278002A00D1BCE10133A54A15
:10486C0013700020ABE16E78303EF6B2042E00D906
:10487C00A9E1A14BA200101981000120C8545B18BA
:10488C0000225A709E70EF1C07329E4938000FF0C0
:10489C0043F8002822D1A3001C19A200964B9B18A8
:1048AC000522DA70F2009219974B9B181B7ADB07E2
:1048BC0005D500208F4A1378013313707FE1012353
:1048CC000593002304930393029301930093002216
:1048DC000121300003F014FD0020EBE70E228B4980
:1048EC0038000FF019F800281ED1A3001C19A200E3
:1048FC00814B9B180622DA70F2009219824B9B189E
:10490C001B7A9B0701D50020D4E7012305930023D4
:10491C00049303930293019300930122002130002E
:10492C0003F0EEFC0020C5E70C22794938000EF0AC
:10493C00F3FF00287BD1F2009219734B9B189B78E4
:10494C00002B0FD0F20092196F4B9B18DB78002BC9
:10495C0029D0F20092196C4B9B181B79002B44D078
:10496C000C20A7E7644FA3001C19A300FB18092215
:10497C00DA7028000F300EF0F8FA5E4B1978C3B2DB
:10498C008A00521891007F183B7101220592002277
:10499C00049203920292019200920021300003F0E3
:1049AC00AFFC002086E7544FA3001C19A300FB1892
:1049BC000A22DA7028000F300EF0D7FA4D4B1A7815
:1049CC00C0B293009B189A00BF183871012305934D
:1049DC00002304930393029301930090002200217F
:1049EC00300003F08DFC002064E7434FA3001C193A
:1049FC00A300FB180B22DA7028000F300EF0B5FA6A
:104A0C003C4B1A78C0B293009B189A00BF183871AF
:104A1C0001230593002304930393029301900093C5
:104A2C0000220021300003F06BFC002042E70D2235
:104A3C00384938000EF070FF002800D08EE0F200EC
:104A4C009219314B9B185B79002B0FD0F200921905
:104A5C002D4B9B189B79002B2AD0F20092192A4BD4
:104A6C009B18DB79002B57D00D2023E7224FA30096
:104A7C001C19A300FB180C22DA70280010300EF061
:104A8C0074FA1C4B1A78C0B293009B189A00BF188A
:104A9C00387101230593002304930393029001932F
:104AAC00009300220021300003F02AFC002001E7D3
:104ABC00114FA3001C19A300FB180D22DA7028005B
:104ACC0010300EF052FA0B4B1A78C0B293009B18B0
:104ADC009A00BF18387101230593002304930390A7
:104AEC0002930193009300220021300003F008FC94
:104AFC000020DFE64F0E002044650020B40D00209E
:104B0C00EC7E0108F8940108A410002088850108A7
:104B1C0098850108A8850108304F143398465C43EA
:104B2C003C19063BE370280010300EF01EFA2C4B9B
:104B3C001B78C0B242465343FF18387101230593CA
:104B4C000490002403940294019400942300220006
:104B5C002100300003F0D4FB2000ABE60020A9E6D6
:104B6C00002C00D04FE61E4803781C499A00D6183A
:104B7C00B400022666540919CD700133037000206D
:104B8C001DE0174B98461A78144F93009818810023
:104B9C000320C8557A18D57020000EF0E1F9FEF705
:104BAC0073F9079043461A7893009B189800C01924
:104BBC000630042207A90EF068FC3BE60E2008B074
:104BCC0004BC9046F0BD0020F9E76720F7E76720AA
:104BDC00F5E76720F3E76720F1E7C046446500205E
:104BEC004F0E0020F8B50C00022817D0032803D074
:104BFC0001280FD000200CE0344B1A78013A9300B6
:104C0C009B189A00324B9B1801221A7406F058FC20
:104C1C000020F8BD0800FFF7B9FDFAE72B4B1D7813
:104C2C00013DAB005B199A00294B9B18DE68002EE6
:104C3C0034D03000FBF76AFA07002000FBF766FA65
:104C4C003918023130000EF05BFC214EAB005D19BF
:104C5C00AB00F318D8601D4D2B78013B9A00D2188D
:104C6C009300F318D8687B1CC01821000EF04CFE82
:104C7C002A78013A93009B189A00B618F36813220D
:104C8C00DA55124B1B78013B9A00D2189100104A4E
:104C9C005218D268002A11D00020BAE70800FBF79E
:104CAC0035FA01300EF0A4F9AB005D19AA00084BDF
:104CBC009B18D86021000EF027FEE2E7044BC818C1
:104CCC00142200210EF0EAFB0E20A2E74F0E00206A
:104CDC0044650020F0B5DE4657464E464546E0B5E5
:104CEC008BB00490039115001C000922002107A829
:104CFC000EF0D4FB60E1E91C0130FFF773FF0028D4
:104D0C0006D1CF4B02221A700D232370002784E1A9
:104D1C005222CC4920000EF0B8FBC94B00221A706D
:104D2C0000277AE1C64B00221A70C7490330FFF7FF
:104D3C0059FF4122C54920000EF0A7FB00276CE16A
:104D4C0029000220FFF74EFF002803D10D2323700A
:104D5C00002762E15222BB4920000EF096FB00278F
:104D6C005BE10EF037F97378C01843785B0700D518
:104D7C004CE1721B290007A80EF0DFFD07A8FFF716
:104D8C00F1FA0590B24A1278914690422CD06428E0
:104D9C0032D0662837D0FF283CD06B461B7D9A4614
:104DAC00FE2B68D001360622AA4930000EF0B4FD65
:104DBC00002800D0A3E0A84B00229A71192150467C
:104DCC0004F030FC642008F0B5FEA44B1A78A04B1C
:104DDC00187800235146FEF7B1FF9F4B9B79602B4F
:104DEC0000D1C8E0002718E1701C99229200210024
:104DFC0008F05CFF070010E12722994920000EF013
:104E0C0044FB002709E12522964920000EF03DFBCA
:104E1C00002702E10222002193480EF03FFB0136ED
:104E2C002800FBF773F9070007A8FBF76FF93A1A8C
:104E3C00013A31008D480EF080FD2800FBF766F931
:104E4C00070007A8FBF762F93B1A9BB21722FF2158
:104E5C00484604F0BFFB992292002100300008F074
:104E6C0025FF07002000FBF751F920181D2280496F
:104E7C000EF00BFBD1E0059B1B12DBB29A467D4B6F
:104E8C009B4652461A700222002177480EF006FB10
:104E9C00731C98462800FBF739F9060007A8FBF7A6
:104EAC0035F9321A013A414670480EF046FD280099
:104EBC00FBF72CF9060007A8FBF728F9331A9BB26D
:104ECC0017225146484604F085FB614B1B78013B89
:104EDC005B00694A9B5A5A4612781341DB0706D489
:104EEC0007AB2200654920000EF0D2FC95E0992218
:104EFC0092002100404608F0D9FE0700F0E7280098
:104F0C00FBF704F9070007A8FBF700F93A1A013A76
:104F1C00310056480EF011FD2800FBF7F7F806009B
:104F2C0007A8FBF7F3F8321A92B2013A92B21721A2
:104F3C00504604F077FB059A514920000EF0A8FC6E
:104F4C002378002B02D0039B002B08D12000FBF709
:104F5C00DDF80200002120000EF0A0FA3DE7200051
:104F6C00FBF7D4F882B2012300933133210004986B
:104F7C0008F0ACFCEAE7FA21890001200AF08CFB6E
:104F8C00404B1B78002B0BD03F4A13880133138006
:104F9C00059B22003D4920000EF07AFC00273CE0E6
:104FAC0000273AE02000FBF7B1F8020000212000B6
:104FBC000EF074FA002F71D02800FFF7D1FB204BB4
:104FCC001E78002E07D10322314928000EF0A4FCD4
:104FDC00002800D18FE6002E07D006222D4928008C
:104FEC000EF09AFC002800D19CE6022E00D1A7E618
:104FFC002E2128000EF07AFC061E07D0033803225F
:10500C0025490EF089FC002800D0AAE699229200CE
:10501C002100280008F04AFE07002378002BC1D09D
:10502C00039B002BBED02000FBF770F882B201234B
:10503C005B42009333332100049808F047FCB1E73E
:10504C007C0E0020C0830108548001081C840108D8
:10505C00700000200085010828650020DF0A002070
:10506C00648401088C840108180B0020A80C002013
:10507C00B48401084E0E0020640C0020D484010876
:10508C0008850108700D0020FE1200202C850108F7
:10509C00BC830108148401086084010809220021E2
:1050AC0007A80EF0FBF90C4B1B78002B02D1039BCD
:1050BC00002B06D10BB03CBC90469946A246AB46A1
:1050CC00F0BD01235B42009333333822034904982B
:1050DC0008F0FCFBEEE7C0467C0E00204C85010876
:1050EC0070B584B00121494201200AF0D5FA0F2392
:1050FC006B4400221A7008F03FFE0500524B9A6870
:10510C00E1231B039A4230D1504B1B885A00D21812
:10511C0053004F4A9B184F4A12784F4C4F4E3178E0
:10512C0000914F4920000EF0B3FBA42230780A23E3
:10513C0092004C4908F0F8FB2000FAF7E7FF82B226
:10514C0030780A23210008F0EFFB002668E0434B7F
:10515C001B78A34204D0E1210903200008F026FCAF
:10516C000134E4B2042CF2D9CEE70124FAE70F2083
:10517C006844027098013C4A1218002010553B4AB2
:10518C00D4540F246C44354B18780A230122210087
:10519C0008F0CAFB23780D2B25D00A2B3ED0082B08
:1051AC0049D01A00203AD2B25E2A37D8312E35DCDB
:1051BC002F4A9355013676B230E008F031FF0134B6
:1051CC00A4B23F2CDDD8254B1B78013B9801264A15
:1051DC001218125D002ACAD13F2CEED1234A0021AD
:1051EC00D1540024E9E71D4B18780A2302222149E7
:1051FC0008F09AFB002E19D01D4C184B18782B0078
:10520C0022000121FFF766FD21001B480EF07CFBFC
:10521C003222002120000EF041F9002608F000FF98
:10522C000E4B1B78013B114AD45CCAE7124910485B
:10523C000EF06AFBE0E7002EF0DD013E76B20C4B7F
:10524C0000229A55EAE7C04628650020720000202B
:10525C00A480010870000020500E0020DF0A0020FE
:10526C00B8850108E4850108FC0E0020FC0F002025
:10527C00800D0020949E01081C0E002070B50C00BF
:10528C001C4B1A78013A93009B189A001A4B9B18E6
:10529C00DB68002B2CD0194B1B68002B14D0174B40
:1052AC001D682B78002B12D0132128000EF01EFB4A
:1052BC00061E11D0421B290020000EF03EFB0136C9
:1052CC000E4B1E60012006E00C4B1860E7E70B4B01
:1052DC0000221A60002070BD290020000EF014FB83
:1052EC002000FAF713FF2D18044B1D600120F2E784
:1052FC000020F0E74F0E002044650020780E0020BF
:10530C00F0B583B0040083001B189A00464BD35CA5
:10531C00012B04D0032B15D0002003B0F0BD424A62
:10532C008300181881000800511889781218D27857
:10533C00CB005B183D495B5C9A4201D00020ECE746
:10534C000120EAE7384E85002B1899007118CA78AD
:10535C00013A53009B189A00354BD3581F680631FD
:10536C00042201A80EF091F82C19A300F6187378FA
:10537C00062B47D89B002F4AD3589F46391C0198BF
:10538C00FBF7A0F800283FD00120C6E7391C019894
:10539C00FBF79EF8002801D10020BEE70120BCE7F6
:1053AC00391C0198FBF7A8F800282FD00021381CD5
:1053BC00FBF788F800282BD10130AEE7391C019897
:1053CC00FBF790F8002825D00120A6E7391C01989E
:1053DC00FBF79CF800281FD00021381CFBF772F853
:1053EC0000281BD1013098E7391C0198FBF76AF8AB
:1053FC00002815D10021381CFBF764F8002811D1C6
:10540C0001308AE7002088E7002086E7002084E747
:10541C00002082E7002080E700207EE700207CE768
:10542C0000207AE7002078E744650020A4100020D3
:10543C00F0000020A083010870B508F09DFC050069
:10544C0000241BE0194B18782B00194A0021FFF798
:10545C0041FC2800FAF75AFE0200002128000EF049
:10546C001DF8B3009B199A00124B9B18D868104971
:10547C00FFF704FF0028E5D10134A4B20E4B1B78D2
:10548C00A34211D92600A3001B199A00094B9B18A3
:10549C001B7C002BF0D0E0B2FFF732FF0028EBD0E2
:1054AC00064B20229A71DCE7002070BDDF0A002039
:1054BC00E80D0020446500204F0E002028650020D8
:1054CC00F0B583B00500160000230193009300286B
:1054DC0001D172B6FEE701AA0121300008F050FCA0
:1054EC000023C356702B17D068276A460221300060
:1054FC0008F046FC0DF03FFD0600682F12D00100AD
:10550C00200008F053FA23003200094928000EF05D
:10551C00BFF9002003B0F0BD01300DF02CFDC4B27A
:10552C000027E2E71322034928000DF0AEFFF0E755
:10553C004C9201083892010810B5002801D172B6BE
:10554C00FEE7044B1A681204120C03490EF0A0F982
:10555C00002010BDCCF7FF1F2C8C010810B582B0B9
:10556C00040010000023019300230093002C01D1B0
:10557C0072B6FEE701AA012108F002FC0023C35613
:10558C00323BDBB2012B07D915220B4920000DF061
:10559C007CFF002002B010BD0DF0EDFCC0B26946DE
:1055AC0003F078F90098FDF71DFC02000B0003498D
:1055BC0020000EF06DF9ECE7388901081489010818
:1055CC0010B582B00400002301930093002801D190
:1055DC0072B6FEE7694601A803F0A0F801A9200005
:1055EC000EF092F90098FDF7FDFB02000B00034949
:1055FC0020000EF04DF9002002B010BD8489010886
:10560C0010B582B00400002301930093002801D14F
:10561C0072B6FEE7694601A803F080F801A92000E4
:10562C000EF072F90198FDF7DDFB02000B00034947
:10563C0020000EF02DF9002002B010BD5089010899
:10564C0070B584B00400150000230393029300236B
:10565C000193002801D172B6FEE703AA01212800AC
:10566C0008F08EFB060002AA0221280008F088FB35
:10567C0005000023F356323BDBB2012B07D9152270
:10568C00194920000DF001FF002004B070BD30005E
:10569C000DF071FCC6B215492800FAF72DFD002853
:1056AC0005D013492800FAF727FD002816D10F4D15
:1056BC002900300003F0BCF901AA2900300003F0E6
:1056CC00E5F901A920000EF01FF90198FAF77CFF0B
:1056DC0082B2084920000EF0DBF8D5E71222064909
:1056EC0020000DF0D2FECFE738890108C4880108EC
:1056FC00C8880108D0880108E0880108F0B585B099
:10570C0004001000002303935D4B1A7802AB1A704F
:10571C00002C01D172B6FEE703AA012108F030FB80
:10572C0005005849FAF7E8FC002866D1564B1B785F
:10573C00013B564AD65C012521E02A005449200041
:10574C000EF0A6F82000FAF7E1FC82B24E4B187866
:10575C00642300935A3B210008F0B8F83BE0012089
:10576C000AF064FA484B1B78013B711C9B01494AB7
:10577C00D3185B5C002BF2D00E000135EDB2042D7A
:10578C0068D8414B1B78AB42F7D00DF09FFE02AFAF
:10579C003870642300935A3B01223900280008F02A
:1057AC0095F8280008F076F803689B8CDBB23A7801
:1057BC009342C2D02A00384920000EF069F820002C
:1057CC00FAF7A4FC82B2304B1878642300935A3B4E
:1057DC00210008F07BF85422304920000DF055FED2
:1057EC002000FAF793FC82B2274B187864230093BD
:1057FC005A3B210008F06AF8B4E70023EB56702BF3
:10580C0005D00F22264920000DF03FFE22E0681C37
:10581C000DF0B1FB0500C7B27B1EDBB2032B1CD80D
:10582C000DF054FE02AE307064230093323B012223
:10583C003100380008F04AF8380008F02BF80368FB
:10584C009B8CDBB23278934210D1EAB21049200023
:10585C000EF01EF8002005B0F0BD6623662B07D1B4
:10586C001B22104920000DF010FEF3E70623F5E78C
:10587C00062BEFD1EAB2084920000EF009F8E9E74F
:10588C00987C010874800108DF0A0020FC0F0020BE
:10589C00E4A40108FC0E002000A5010814A50108D1
:1058AC0084A5010868A50108F0B585B00400019233
:1058BC00002303930293002801D172B6FEE703AADA
:1058CC000121019808F05CFA0023C356702B16D006
:1058DC00672702AA0221019808F052FA0023C35646
:1058EC00702B12D0672000281AD0672821D01922DB
:1058FC00134920000DF0C9FD002005B0F0BD0130AA
:10590C000DF039FBC5B20027E3E701300DF033FB96
:10591C00C6B2002F0BD131002800FEF7E1FEE2E702
:10592C0033002A00074920000DF0B2FFE4E767209E
:10593C00DBE70F22044920000DF0A7FDDCE7C04691
:10594C0030A6010810A6010884A50108F0B585B0A1
:10595C0004000192002303930293002801D172B634
:10596C00FEE703AA0121019808F00AFA0023C356A6
:10597C00702B16D0672702AA0221019808F000FAB2
:10598C000023C356702B12D0672000281AD067282A
:10599C0021D01722134920000DF077FD002005B00F
:1059AC00F0BD01300DF0E7FAC5B20027E3E7013096
:1059BC000DF0E1FAC6B2002F0BD131002800FEF732
:1059CC007BFEE2E733002A00074920000DF060FF60
:1059DC00E4E76720DBE70F22044920000DF055FDBA
:1059EC00DCE7C046D88A0108B48A010884A50108FE
:1059FC00F0B583B00600100000230193002E01D1F6
:105A0C0072B6FEE701AA012108F0BAF90DF0ADFA61
:105A1C00C4B2002C3FD0284B1B78A34201D2FF23E9
:105A2C003AE0C0B20138254D14235843002747559E
:105A3C002D186F70A81C042239000DF02FFD2F7447
:105A4C00E8680DF0DFFAEF6008E0A3001B199A007C
:105A5C001A4BD35C002B0CD10134E4B2164B1B78DF
:105A6C00A342F2D8013B144A137005F029FD002320
:105A7C0012E0601E14277843104BC0183D0065439C
:105A8C00ED183A0029000DF000FD3A000021280025
:105A9C000DF004FDE0E7FF23002B05D0232208497D
:105AAC0030000DF0F2FC04E03622064930000DF017
:105ABC00ECFC002003B0F0BD4F0E0020446500202C
:105ACC00F88B0108C08B010810B582B004001000DF
