:020000040800F2
:1000000000800020BDD7000849D8000861CE000854
:1000100000000000000000000000000000000000E0
:1000200000000000000000000000000009DD0008E2
:100030000000000000000000C1DD000855CE0008EF
:1000400049D8000849D8000849D8000849D800080C
:1000500049D8000849D8000849D8000849D80008FC
:1000600049D800089DCE0008A9CE0008E9CE0008B6
:1000700049D8000849D8000849D8000849D80008DC
:1000800049D8000849D8000849D8000849D80008CC
:1000900049D8000849D8000849D8000849D80008BC
:1000A00049D8000849D8000849D8000865CE00089A
:0C00B00075CE000885CE000849D8000875
:1000BC0010B5064C2378002B07D1054B002B02D032
:1000CC00044800E000BF0123237010BD900A0020FB
:1000DC00000000008C770108044B10B5002B03D0F6
:1000EC000349044800E000BF10BDC04600000000FA
:1000FC00940A00208C77010802780B78002A03D030
:10010C00013001319A42F7D0D01A70470023C25CFB
:10011C000133002AFBD1581E7047000002B471460F
:10012C0049084900095C49008E4402BC7047C0462E
:10013C0003B47146490840004900095E49008E44E9
:10014C0003BC7047002243088B4274D303098B42D3
:10015C005FD3030A8B4244D3030B8B4228D3030C8B
:10016C008B420DD3FF22090212BA030C8B4202D32D
:10017C001212090265D0030B8B4219D300E0090A55
:10018C00C30B8B4201D3CB03C01A5241830B8B425E
:10019C0001D38B03C01A5241430B8B4201D34B0347
:1001AC00C01A5241030B8B4201D30B03C01A5241AC
:1001BC00C30A8B4201D3CB02C01A5241830A8B4231
:1001CC0001D38B02C01A5241430A8B4201D34B021A
:1001DC00C01A5241030A8B4201D30B02C01A52417E
:1001EC00CDD2C3098B4201D3CB01C01A5241830932
:1001FC008B4201D38B01C01A524143098B4201D36C
:10020C004B01C01A524103098B4201D30B01C01A96
:10021C005241C3088B4201D3CB00C01A5241830810
:10022C008B4201D38B00C01A524143088B4201D33D
:10023C004B00C01A5241411A00D20146524110469D
:10024C007047FFE701B5002000F0F0F802BDC04692
:10025C000029F7D076E7704703460B437FD4002282
:10026C0043088B4274D303098B425FD3030A8B423E
:10027C0044D3030B8B4228D3030C8B420DD3FF22A8
:10028C00090212BA030C8B4202D31212090265D076
:10029C00030B8B4219D300E0090AC30B8B4201D329
:1002AC00CB03C01A5241830B8B4201D38B03C01A70
:1002BC005241430B8B4201D34B03C01A5241030BE7
:1002CC008B4201D30B03C01A5241C30A8B4201D398
:1002DC00CB02C01A5241830A8B4201D38B02C01A43
:1002EC005241430A8B4201D34B02C01A5241030ABA
:1002FC008B4201D30B02C01A5241CDD2C3098B429F
:10030C0001D3CB01C01A524183098B4201D38B011B
:10031C00C01A524143098B4201D34B01C01A5241BE
:10032C0003098B4201D30B01C01A5241C3088B4203
:10033C0001D3CB00C01A524183088B4201D38B00EE
:10034C00C01A524143088B4201D34B00C01A524190
:10035C00411A00D201465241104670475DE0CA0F67
:10036C0000D04942031000D34042534000229C4627
:10037C0003098B422DD3030A8B4212D3FC22890131
:10038C0012BA030A8B420CD3890192118B4208D307
:10039C00890192118B4204D389013AD0921100E069
:1003AC008909C3098B4201D3CB01C01A524183097D
:1003BC008B4201D38B01C01A524143098B4201D3AA
:1003CC004B01C01A524103098B4201D30B01C01AD5
:1003DC005241C3088B4201D3CB00C01A524183084F
:1003EC008B4201D38B00C01A5241D9D243088B42A5
:1003FC0001D34B00C01A5241411A00D20146634648
:10040C0052415B10104601D34042002B00D54942AB
:10041C00704763465B1000D3404201B5002000F0EA
:10042C0005F802BD0029F8D016E770477047C046A2
:10043C008446101C62468C46191C634600E0C0467C
:10044C001FB501F0E5FD002801D40021C8421FBDF5
:10045C0010B501F03DFD4042013010BD10B501F06A
:10046C00D7FD002801DB002010BD012010BDC046C7
:10047C0010B501F0CDFD002801DD002010BD0120DC
:10048C0010BDC04610B501F05FFD002801DC002056
:10049C0010BD012010BDC04610B501F055FD00285F
:1004AC0001DA002010BD012010BDC0468446081C96
:1004BC006146FFE71FB500F0FDFA002801D40021CA
:1004CC00C8421FBD10B500F07FFA4042013010BD8C
:1004DC0010B500F0EFFA002801DB002010BD012060
:1004EC0010BDC04610B500F0E5FA002801DD002073
:1004FC0010BD012010BDC04610B500F08DFA0028CB
:10050C0001DC002010BD012010BDC04610B500F06C
:10051C0083FA002801DA002010BD012010BDC0466E
:10052C00002B11D1002A0FD1002900D1002802D0B4
:10053C000021C943081C07B4024802A140180290CC
:10054C0003BDC046E9FEFFFF03B4684601B502983F
:10055C0000F066F8019B9E4602B00CBC7047C0468A
:10056C00F0B5CE46474615042D0C2E0080B5070479
:10057C00140C3F0C9946030C7E435D436743634365
:10058C007F19340CE4199C46A54203D980235B02E5
:10059C009846C4444B4643435143250C36046544AA
:1005AC00360C2404A4195B19591820000CBC904675
:1005BC009946F0BD9E2110B5C905041CFFF7A6FF96
:1005CC00002803D1201C00F0BBFD10BD9E21201C77
:1005DC00C90500F0F1FB00F0B3FD80231B069C461F
:1005EC006044F2E770B500220C4B04000D00FFF7DD
:1005FC0053FF002804D12000290002F047FB70BDF6
:10060C00064B00222000290001F0DCFF02F03EFB2B
:10061C0080231B069C466044F1E7C0460000E04185
:10062C00F0B54F464646D646C0B5040082B00D0024
:10063C00914698468B422FD82CD04146484602F022
:10064C00BBFC29000600200002F0B6FC331A9C46C5
:10065C00203B9A4600D576E04B46524693401F000D
:10066C004B46624693401E00AF4228D825D05346D5
:10067C00A41BBD41002B00DA7BE00022002300927A
:10068C000193012352469340019301236246934008
:10069C00009318E08242D0D90022002300920193EB
:1006AC000A9B002B01D01C605D600098019902B080
:1006BC001CBC90469946A246F0BDA342D7D9002255
:1006CC000023009201936346002BE9D0FB07984668
:1006DC00414672080A437B0866460EE0AB4201D1E4
:1006EC00A2420CD8A41A9D41012024196D4100216D
:1006FC00013E24184D41002E06D0AB42EED9013EEE
:10070C0024196D41002EF8D1009801995346001917
:10071C006941002B23DB2B005246D3402A00644650
:10072C00E2401C0053461500002B2DDB26005746DB
:10073C00BE40330026006746BE403200801A994105
:10074C0000900191ACE7624620239B1A4A46DA409E
:10075C006146130042468A4017001F4380E76246F9
:10076C0020239B1A2A0066469A402300F340134329
:10077C00D4E76246202300219B1A002200910192AB
:10078C000122DA40019280E72023624626009B1A60
:10079C00DE402F00B0466646B74046463B0033432A
:1007AC00C8E7C046F8B557464E464546DE464402B5
:1007BC00E0B546008846640A360EC70F002E63D09B
:1007CC00FF2E24D08023E400DB041C430023994635
:1007DC009B467F3E434642465D02D20F5B006D0A4C
:1007EC001B0E9046924665D0FF2B55D080220021DF
:1007FC00ED00D2047F3B1543F61A43464A467B4034
:10080C000F2A00D98DE06D48920082589746002C33
:10081C0054D108239946063BFF269B46DAE7002570
:10082C00534602291BD0032900D1BFE0012928D04F
:10083C0030007F30002820DD6A0704D00F222A40C8
:10084C00042A00D004352A0103D530005C4A8030DC
:10085C001540FE2803DCAC01640AC2B201E0FF22A1
:10086C0000246402D205600ADB07104318433CBC29
:10087C0090469946A246AB46F8BD0122101A1B2899
:10088C007CDD00220024ECE7002C1DD104239946CA
:10089C00033B00269B469DE7FF3E002D20D1022105
:1008AC0043464A467B400A430F2AD8D84548920013
:1008BC0082589746002D19D10121F1E70C23994656
:1008CC00093BFF269B4685E7200002F057FB762666
:1008DC00431F9C4000237642361A99469B4679E783
:1008EC004A4603231A439146032186E7280002F067
:1008FC0045FB431F36189D40763600217DE780244A
:10090C000023E403FF22ACE700258023DB031C4219
:10091C0028D01D4226D12B435C02640A4346FF2299
:10092C009FE762016C01A24224D21B210025013EEB
:10093C00012710006D005200002801DB944201D801
:10094C00121B3D4301390029F3D11400621E94415E
:10095C0025436DE7BA46594625005346022900D077
:10096C0061E77CE78023DB031C436402640A3B00E1
:10097C00FF2276E7121B1A210125D9E79E362A00A1
:10098C00B5402C00C240651EAC411443620704D034
:10099C000F222240042A00D00434620103D4A401A3
:1009AC00640A00225DE7012200245AE78024E40354
:1009BC002C436402640AFF2253E7C0469C7E010864
:1009CC00FFFFFFF7DC7E010870B542004E024C00C1
:1009DC0045026D0A120EC30F760A240EC90FFF2AA8
:1009EC000FD0FF2C11D00120A24200D070BDB54217
:1009FC00FCD18B420DD0002AF8D12800451EA8410D
:100A0C00F4E70120002DF1D1EBE70120002EEDD110
:100A1C00E9E70020EAE7C04670B54A004E024502FD
:100A2C0044006D0A240EC30F760A120EC90FFF2C58
:100A3C0015D0FF2A0ED0002C15D1002A01D1002E82
:100A4C001CD0002D14D08B4227D00220013B184023
:100A5C00013870BD002EEED002204042F9E7002D87
:100A6C00FAD1FF2A0ED0002A0ED1002EEDD00BE0C9
:100A7C0001230139994308000130EAE70020002DD9
:100A8C00E7D0E2E7002EE7D18B42DED1944205DDC0
:100A9C000221581E08400138DBE70024A24204DC86
:100AAC00B542D2D80020B542D3D2581E0123984368
:100ABC000130CEE730B5420044024D02C30F48006E
:100ACC00640A120E6D0A000EC90FFF2A12D0FF28FD
:100ADC000CD0002A12D1002819D1002D17D1002CCE
:100AEC002BD00220013B1840013826E0002DF0D01D
:100AFC00022022E0002CFBD1FF281FD000281FD1A0
:100B0C00002D1DD10220013B1840013815E0002CAE
:100B1C000ED08B42E5D10022904204DCAC42E0D8EE
:100B2C000020AC4209D2581E01239843013004E046
:100B3C000123013999430800013030BD002DD7D174
:100B4C008B42CED18242E7DD0221581E084001388B
:100B5C00F3E7C046F0B54E4657464546DE46E0B58F
:100B6C0043025B0A450083B00F1C99462D0EC60F3D
:100B7C00002D57D0FF2D24D08020DB00C00418435B
:100B8C00002381469A469B467F3D7C027A00FB0FF0
:100B9C00640A120E984623D0FF2A4BD0E30080241F
:100BAC000020E4047F3A1C43AD186B1C47460193AC
:100BBC00534677403A000F2B48D87D499B00CB58C1
:100BCC009F46002B00D085E008339A46063B9B4697
:100BDC007C027A00FB0FFF25640A120E9846DBD1CB
:100BEC00002C00D090E0524601231A43924601207B
:100BFC00DBE74C4658461700022824D0032800D1C6
:100C0C00CFE00022002301284DD15802D205400A22
:100C1C00FF071043384303B03CBC90469946A246AC
:100C2C00AB46F0BD002B5BD104239A46033B002559
:100C3C009B46AAE7FF35002C60D1524602231A438B
:100C4C0092460220B1E7FF220023DEE74B461B0C45
:100C5C009C464B462604360C180461463300220C85
:100C6C006446000C43434E435043544380191A0CC2
:100C7C001218964203D9802149028C4664441B0405
:100C8C001B0C1004C01883015E1EB341800E184368
:100C9C00130C1B199B0103431C00230179D5012361
:100CAC0062081C401443019A7F32002A4DDD630711
:100CBC0004D00F232340042B00D00434230103D58C
:100CCC003C4B019A1C408032FE2ABCDCA3015B0A1F
:100CDC00D2B29AE70C239A46093BFF259B4654E770
:100CEC00180002F04BF94A46431F76259A40002320
:100CFC006D4291462D1A9A469B4646E7524603236F
:100D0C001A439246032050E7200002F037F9431FA4
:100D1C002D1A9C40763D002047E780230027DB03FB
:100D2C00FF2272E7424666E74C463200584662E7BD
:100D3C0080234A46DB031A4222D01C4220D1234393
:100D4C005B025B0A4746FF225FE701239A1A1B2AC4
:100D5C0021DC23000199D3409E318C401A002300E2
:100D6C005C1EA34113435A0704D00F221A40042AD5
:100D7C0000D004335A0111D49B015B0A002244E7D2
:100D8C0080234A46DB0313435B025B0A3700FF22D6
:100D9C003BE7019587E70022002336E70122002379
:100DAC0033E78023DB0323435B025B0AFF222CE740
:100DBC001C7F0108FFFFFFF7F8B54746CE464400FD
:100DCC00C20F80B547024802400A84466646480076
:100DDC007F0A240EF60025009046FB00000EC90F7A
:100DEC00B146FF2800D185E001267140261A9142B8
:100DFC0057D0002E43DD002800D07FE04946002963
:100E0C0000D1AAE0013E002E00D0F7E05B1A5A0197
:100E1C0000D48BE09B019C09200002F0AFF8053850
:100E2C008440854200DDD3E0451B230020200135A2
:100E3C00EB40451BAC40621E944123430724002524
:100E4C001C40012241460A40002C04D00F211940BD
:100E5C00042900D00433590100D480E00135ECB2F0
:100E6C00FF2D00D0A3E0FF2400235B02E405580A09
:100E7C00D207204310430CBC90469946F8BD002E77
:100E8C0074D1601CC0B2012800DCA7E04A469C1A51
:100E9C00620100D5B6E0002CBED100220024002354
:100EAC00E3E7002E00DC85E0002846D0FF2C49D07B
:100EBC0080224846D2041043814601221B2E09DCB5
:100ECC0020204C46801B84404A462000F240441EA1
:100EDC00A04102439B185A0128D50135FF2D00D1A2
:100EEC00A8E00122072494491A405B080B401343E5
:100EFC001C40A6E7002E00D078E775E7FF2C54D0F5
:100F0C0080224946D2041143894601221B2E09DC5A
:100F1C0020214846891B88404A460100F240481E61
:100F2C0081410A439B1A5A0100D573E701224146BD
:100F3C000A40590700D089E711E04846002858D1EB
:100F4C00FF2C0CD1DB08002B00D18CE78020C003D8
:100F5C0003435B025B0AFF2487E7FF2C25D0DB08E9
:100F6C00FF2DF0D05B025B0AECB27EE7002C4DD07B
:100F7C00FF2818D08024E404724223431B2A00DD8E
:100F8C00C4E01C002025D440AA1A93405A1E934159
:100F9C0023434A460500D31A884638E7721CF8D01A
:100FAC00F243FF28EAD10A004B46FF25D7E79B0105
:100FBC005B0A5AE7002E41D1651CE9B2012945DDD7
:100FCC00FF2D00D14FE707244B445B081C4038E74A
:100FDC0007225A4B2D1A2340144032E7002C1DD106
:100FEC00002B7AD14B46002B00D191E00A00002552
:100FFC00B5E7013E002E19D14B446CE7FF2C84D190
:10100C00FF25ACE74A468846D41A05E7002BC5D124
:10101C000A00FF28C8D005004B46A0E7002B49D199
:10102C004B46002B77D00A00FF2598E7FF2C00D009
:10103C0043E787E70A00FF24002316E7002C15D1AD
:10104C00002B57D1FF28E6D14B467BE7002C20D153
:10105C00002B57D04946002953D04B445A0168D530
:10106C000724364A1C4001251340EAE6FF28EBD042
:10107C008022D204764213431B2E53DC2025AD1B59
:10108C001A00AB40F2405C1EA34113434B440500D5
:10109C0021E7002BD8D04946002900D152E7802106
:1010AC00C9030F4200D14DE76046084200D049E722
:1010BC004B4647E74846FF25002800D14FE78022E2
:1010CC00D203174204D06046104201D14B468846E9
:1010DC0001224146FF250A4041E7484600281FD01F
:1010EC001A1A500120D54A460724D31A1C408846A8
:1010FC000025A6E6741CC9D0F643FF28BCD14B468C
:10110C0020E799464B460025DB082BE7012340E7F7
:10111C0000220023A9E680230022DB03FF24A4E69F
:10112C0000251CE70123B1E7002AF1D013000025AC
:10113C00FCE60025FAE6C046FFFFFF7DFFFFFFFB44
:10114C0041024200C30F490A120E00207E2A0DD91B
:10115C009D2A0CD8802000040143952A0ADC962095
:10116C00821AD1404842002B00D108007047034A34
:10117C009818FBE7963A9140F4E7C046FFFFFF7FD3
:10118C0070B500283DD0C317C5185D40C40F2800AA
:10119C0001F0F4FE9E22121A962A07DCD2B208281D
:1011AC0033DD083885406802400A23E0992A0BDDBC
:1011BC00052329001B1AD94003001B339D402B002B
:1011CC005D1EAB4119430D00052801DD431F9D40F9
:1011DC002B000F490B406E0709D00F263540042D0C
:1011EC0005D004335D0102D59F220B40121A9B01DE
:1011FC00580AD2B24002D205400AE40710432043F9
:10120C0070BD002400220020F4E76802400AF1E7D8
:10121C00FFFFFFFB70B5041E34D001F0AFFE9E2221
:10122C00121A962A07DCD2B208282EDD0838844020
:10123C006002400A21E0992A09DD030021001B33DA
:10124C0099404B1E994105231B1ADC400C43052881
:10125C0001DD431F9C4023000D490B40650709D05D
:10126C000F252C40042C05D004335C0102D59F22A1
:10127C000B40121A9B01580AD2B24002D205400A06
:10128C00104370BD00220020F7E76002400AF4E72B
:10129C00FFFFFFFBF0B54F464646D6460C00090350
:1012AC00C0B5490A470F5E0039431F03DB0F9C464C
:1012BC0065007B0A570F1F436D0DE40F760DA14699
:1012CC00C000B846D200AB1B64457BD0002B5FDD61
:1012DC00002E00D0A4E03E00164300D112E15E1EA9
:1012EC00002E00D09EE1871A4346B842804101256A
:1012FC00C91A4042091A0B0200D431E149024E0AC4
:10130C00002E00D16EE1300001F038FE0300083BE6
:10131C001F2B00DD61E120223900D21A9E40D14002
:10132C009F400E439D4200DD51E15D1B6B1C1F2B4A
:10133C0000DD7CE12021C91A3D0030008F4088403F
:10134C00DD40791E8F41310007222843D94000250A
:10135C0007433A40002A09D00F233B40042B05D009
:10136C003B1DBB42BF417F42C9191F000B0200D479
:10137C0026E26A1CC64B55056D0D9A4200D106E15A
:10138C00C44AFF080A40530752023B43120B8EE03B
:10139C00002B00D0B8E06B1C5B055B0D012B00DC57
:1013AC0030E1871A4346B842B641CB1A76429E1BAF
:1013BC00330200D54CE13B003343A1D10022002481
:1013CC00002570E0002B00DCE5E0002E00D183E06E
:1013DC00AF4EB54260D0802636043743B846382B22
:1013EC0000DC3EE1434613431F007A1E97413F1831
:1013FC0087428041404209180B0200D4B0E0A44B54
:10140C0001359D4200D1C3E0A24A7B080A4001216C
:10141C000F401F435108D30707221F433A4099E757
:10142C009B4EB54238D0802636043743B846382B0D
:10143C0000DDDCE01F2B00DC30E11E004746203EC7
:10144C00F740BC46202B04D04026F31A46469E405B
:10145C003243170063467A1E97411F43CCE0002BA2
:10146C0000D104E24346134300D159E14B07C008B5
:10147C0018438023C9081B03194208D04546ED08C0
:10148C001D4204D14346D008590708432900420F96
:10149C00C9007F4D1143C0004B07CA087C49C008E6
:1014AC0003438D4268D012036D05120B6D0D0021A4
:1014BC0012031800130B0A0D12051A43764B2D0557
:1014CC0013402B435B00E4075B08234319001CBC4F
:1014DC0090469946A246F0BD3E00164312D05E1EC1
:1014EC00002E00D000E187188742804141444042E1
:1014FC00091801250B0233D5022585E76446330014
:10150C00414610001D00C7E7002D00D0DAE00C00AA
:10151C000443F3D05C1C00D19FE15D4CA64200D18A
:10152C002FE1DB43382B00DD66E11F2B00DD83E16F
:10153C0020240500E41A0F00DD40D940A0404346AA
:10154C00A7405B1A441EA04198462F433843171AF4
:10155C00BA42924143465242991A64463500CAE651
:10156C0007223A40002A00D0F6E64B07CA08484941
:10157C00FF083B438D4296D11900114300D19EE1E7
:10158C00802109030A431203120B414D8FE715000A
:10159C00002200238BE7002B00D0C7E06B1C5F05FB
:1015AC007F0D012F00DCF1E0394DAB4200D1B9E0E9
:1015BC0085180A0085428941424449425118072244
:1015CC00CF076D082F4349083A401D00C2E6072299
:1015DC003049ED1A31403A40BCE63E00283886408E
:1015EC0000279FE6380001F0C9FC20308EE6434608
:1015FC0013431F007A1E9741C71BB84280414042DB
:10160C00091A78E60E003B0006431343002D61D106
:10161C00002E00D0F4E0002B00D11BE16446390011
:10162C00100039E71A4FBB427AD03300FFE6300086
:10163C001F3DE840202B03D04021CB1A9E4037435E
:10164C007B1E9F41072207433A400021002589E772
:10165C00171A4346BA42B641591A76428E1B644653
:10166C004EE61F2B00DDADE020264746F61AB740AC
:10167C00B9461700B246DF404E463E433700564649
:10168C00B240561EB24117434246DA408918AEE6C4
:10169C00FF070000FFFF7FFFFFFF0F80202647465C
:1016AC00F61AB740B9461700B246DF404E463E43E5
:1016BC0037005646B240561EB24117434246DA40F6
:1016CC00891A99E77F4CA6425BD0802424045B42A4
:1016DC00214327E7002E0CD1002B00D1CBE0644630
:1016EC0039001000774DD7E6764FBB4218D0330047
:1016FC0075E6002B14D04B07C00818438023C9088B
:10170C001B03194207D0FC081C4204D17907D008EE
:10171C000843E14621004C46420FC9001143C0006A
:10172C00684DB9E61D0000220023C0E6002D5BD1F8
:10173C000D00054300D1E2E65D1C00D1B0E0614D27
:10174C00AE421FD0DB43382B71DC1F2B00DD96E043
:10175C0020250F00ED1AAF40B9460700AA46DF401E
:10176C004D463D432F005546A840D940451EA84143
:10177C0088440743BF189742924151424144350077
:10178C003AE6644635004146100085E60B000343FB
:10179C00002D00D063E6002BF5D04346134300D157
:1017AC007AE6871887428041072241444042091853
:1017BC003A400B0200D4D5E6434B01351940C9E53C
:1017CC00380069E61E004746203EF740BC46202BF9
:1017DC0004D04026F31A46469E4032431700634617
:1017EC007A1E97411F4302E6364DAE42CAD0802581
:1017FC002D045B422943A6E70843411E8841A6E617
:10180C00002B00D148E6871A4346B842B641CB1AA2
:10181C0076429E1B33024BD5171A4346BA4292416D
:10182C00591A5242891A072264463A4092E50143FA
:10183C000F00791E8F419DE71C000F00203CE740F4
:10184C00202B03D04024E31A99400843411E8841C1
:10185C0038437CE60022002425E6171A4346BA4298
:10186C009241591A5242891A6446350043E5414661
:10187C001000144D10E680220024120380E61D0097
:10188C000F00203DEF40BC46202B03D04025EB1A27
:10189C009940084307006346781E87411F4369E758
:1018AC00871897429B4141445B42C9183500A3E518
:1018BC003B003343CED0072231003A4052E600239E
:1018CC001A00F4E5FF070000FFFF7FFFF0B5574655
:1018DC00DE464E464546E0B5834607000E034800FB
:1018EC0085B092461C00360B400DCD0F002800D160
:1018FC009DE0954B984239D08023F6001B041E4383
:10190C00924A7B0F334399469446030063440093F9
:10191C0000230026FF00029323031B0B9846630051
:10192C00E40F52465B0D019400D1B3E086498B4223
:10193C0000D19EE04246D100802212040A43514657
:10194C00490F11438B46814952468C46009963449A
:10195C00CB1A0021D20000932B0063409A460F2E25
:10196C0000D905E17A4BB6009B599F465B46334341
:10197C00994600D0B8E00223082600270090029375
:10198C00CAE7CB463A0002990195019B9A46022977
:10199C0027D0032900D180E2012944D06D49009B56
:1019AC008C4663441C00002C38DD530700D013E236
:1019BC00D2085B46DB0109D55946674B19408B466B
:1019CC008021C9008C46009B63441C00634B9C42E5
:1019DC0007DC5B4664055F075B0217431B0B620D5C
:1019EC0002E000230027584A00211B031C0B0B0D9F
:1019FC001B05234314055A4A380013401C43534615
:101A0C006400DB0764081C43210005B03CBC904615
:101A1C009946A246AB46F0BD0122524201231B1B44
:101A2C00382B00DCADE1002200230027DCE75B460D
:101A3C00334399465ED0002E00D18AE1300001F08C
:101A4C009DFA03000B3B1C2B00DD7BE11D22D31AFE
:101A5C005A460100DA4008398E4013005F46334382
:101A6C0099468F403F4B00261B1A0093002302938C
:101A7C0052E7414653460B433B499B468C46009BE1
:101A8C00634400935B46002B3BD1022300221E4390
:101A9C00022161E7434613439B4637D04346002B54
:101AAC0000D162E1404601F069FA03000B3B1C2BAC
:101ABC0000DD53E102004146083A914088461D2161
:101ACC00CB1A5146D9400B0041460B439B4653461B
:101ADC0093401A00009B25499C46604403008C46A9
:101AEC0063440093002137E70323B14600900C2692
:101AFC00029311E70023009301330426002702937D
:101B0C000AE70323C3461E43032125E701331E4383
:101B1C000022012120E700239A46802300271B0383
:101B2C00094A61E7802349461B03194200D1E2E0D0
:101B3C005946194200D0DEE00B431B0317001B0B68
:101B4C00A246014A50E7C046FF07000001FCFFFF18
:101B5C005C7F0108FF030000FFFFFFFEFE07000093
:101B6C00FFFF0F800DFCFFFF01F8FFFFF3030000E8
:101B7C00D94500D9CBE000D1C6E03C00484600274F
:101B8C00009B013B00935B46160E1B021E43130287
:101B9C00984633041B0C9946310C0191FEF758FB07
:101BAC004A4642430B04210C050019438A4207D9CB
:101BBC008919013D8E4203D88A4201D9851E8919A3
:101BCC00881A0199FEF744FB09048C464A46210405
:101BDC0064464243090C030021438A4204D9891903
:101BEC00013B8E4200D8F1E02D041D43AB46434629
:101BFC00891A4246280C12041D0C5B46140C220058
:101C0C001B041B0C5A4303946B43444302956843D7
:101C1C001B19150CEB189C4203D980246402A446B2
:101C2C0060441C0C15041B042D0C20185D198142FA
:101C3C0077D373D00C1AA24A7D1BAF42BF41944696
:101C4C00009B7F426344E01B1C00864200D1DBE01A
:101C5C000199FEF7FDFA4A4642430B04290C070092
:101C6C0019438A4207D98919013F8E4203D88A4207
:101C7C0001D9871E8919881A0199FEF7E9FA090416
:101C8C004A46894629044D464243090C0300294320
:101C9C008A4207D98919013B8E4203D88A4201D95D
:101CAC00831E89193F04891A3A00039F1A4338008E
:101CBC0013041B0C584381460298150C6F43434385
:101CCC0045434846000C8446DB1963449F4203D9C4
:101CDC00802040028446654448461F0C00041B04C7
:101CEC00000C7D191818A94200D284E000D17FE0C5
:101CFC0001231A4357E680234A461B0313431B0355
:101D0C001B0BAA466F4A6FE6BA4200D935E74B4621
:101D1C00DC0758087B081C43FF0734E70024AF425C
:101D2C0089D247444745A4415B466442A4196418D0
:101D3C00013BA6421ED2A0426DD800D1B6E0241AB7
:101D4C009B4678E703005A46283B9A400027914669
:101D5C0088E6584601F012F9203072E6030052462C
:101D6C00283B9A4093460022B4E6504601F006F90F
:101D7C0020309AE6A642E2D1B845DCD9341A9B460B
:101D8C0059E71F2B65DC504C0099A4465C46614416
:101D9C0008008C4011008240D940501E82410C43F7
:101DAC0014435A46DA401300620709D00F2222402E
:101DBC00042A05D02200141D9442894149425B1823
:101DCC001A0262D50122002300270DE68A4200D8B0
:101DDC000AE7831E891907E70F231340042B00D150
:101DEC00E6E5171D9742924153429B44FA08E0E501
:101DFC00002800D1D7E57118531EB14227D3A94250
:101E0C0015D358D01A0073E7002B00DC04E601232D
:101E1C0000229B44CDE502234744474589415B4260
:101E2C009C46494289190C19E344241A03E743469A
:101E3C005F0047459B41B8465B429E19023A89199F
:101E4C00A94200D054E7404500D051E7ABE51A0059
:101E5C00F6E71F215F4649420C1BE740202B07D0B9
:101E6C001A49009B8C46634418005B4683401A4316
:101E7C00501E82413A4307270023174009D00F21F7
:101E8C00002311401400042995D122005F075B0246
:101E9C001B0BD20817430022A6E5802359461B03CF
:101EAC000B431B0317001B0B064A9DE5BD42B2D822
:101EBC009B460024BFE68045B9D31A00C3E7C04651
:101ECC00FF030000FF0700001E0400003E0400009A
:101EDC00F0B54F464646D6468446C0B58046194EA8
:101EEC0018030F034D00000B5C0082463F0B6D0D79
:101EFC00C90F9146640DDB0F0120B5420AD0B442E4
:101F0C0003D0A54201D157450CD01CBC9046994634
:101F1C00A246F0BD66463E43F7D1AC42F5D15446DD
:101F2C001443F2D10120C845EFD1994207D0002DBE
:101F3C00EBD163461F433800471EB841E5E700204C
:101F4C00E3E7C046FF070000F0B54F464646D646CD
:101F5C004D00C0B50E03C90F8A462C491F035C0007
:101F6C008046360B6D0D91463F0B640DDB0F8D4299
:101F7C001ED08C4216D0002D1ED130438446002C2E
:101F8C0001D13A4323D06246002A1AD09A4529D06F
:101F9C00514602200139084001381CBC9046994634
:101FAC00A246F0BD39001143E5D002204042F4E7CF
:101FBC003043FAD1AC420FD0002C0FD13A43E7D0CA
:101FCC000CE00122013B934318000130E5E7634626
:101FDC000020002BE1D0DBE73A43E6D19A45D7D17C
:101FEC00A542D5DCA54205DBBE42D1D808D00020E5
:101FFC00BE42D2D250460123013898430130CCE77F
:10200C00C845C5D80020C845F4D3C6E7FF07000073
:10201C00F0B54F464646D6464D00C0B50E03C90F27
:10202C008A462E491F035C008046360B6D0D914687
:10203C003F0B640DDB0F8D4218D08C4211D0002D5C
:10204C0018D130438446002C1ED13A431CD1634630
:10205C000020002B30D051460220013908400138B5
:10206C002AE039001143EAD0022025E03043FBD1AD
:10207C00AC4226D0002C26D13A4324D15146022022
:10208C0001390840013817E06246002A0FD09A4502
:10209C00E1D1A54205DBBE42DDD819D00020BE42FD
:1020AC000AD25046012301389843013004E0012242
:1020BC00013B9343180001301CBC90469946A24644
:1020CC00F0BD3A43D0D19A45C5D1A542C3DCE0E777
:1020DC00C845C0D80020C845E3D3EDE7FF07000092
:1020EC00F0B55746DE464E464546E0B583460600FB
:1020FC000F03480087B092461D003F0B400DCC0FDC
:10210C00002800D16FE0DE4B984238D08023FF00CE
:10211C001B041F43730F3B430193DA4B0027994673
:10212C0000239B46F60081442B0369001B0B52468F
:10213C009846490DED0F002900D185E0D04B99420E
:10214C0000D173E04346DA0080231B04134352464C
:10215C00CC48520F84461343524600206144D200AF
:10216C0089442100694000918C46012149448A46EA
:10217C000F2F00D990E0C449BF00CF59BF465B4632
:10218C003B43019300D06AE10223082700268146D5
:10219C009B46C9E732005846019B614600910228D4
:1021AC0000D175E0032800D1FEE1012800D02CE11C
:1021BC0000230027002600253F032A0D3F0BB348C0
:1021CC0012053A4302401B051343009A5B00D107EA
:1021DC005B080B433000190007B03CBC9046994695
:1021EC00A246AB46F0BD5B463B43019300D12FE1C9
:1021FC00002F00D1A5E1380000F0C0FE03000B3B1E
:10220C001C2B00DD96E11D22D31A5A460100DA4040
:10221C005E4608398F4013008E403B4301939C4B24
:10222C0000271B1A994600239B467DE741465346DF
:10223C000B4393498C46E144002B00D01AE1022257
:10224C000220174300228CE7134300D10DE14346D3
:10225C00002B00D181E1404600F090FE02000B3AC9
:10226C001C2A00DD72E10100434608398B40984678
:10227C001D239A1A5346D3401A0043461343524621
:10228C008A404946081A824989468144002068E7F9
:10229C007B4B002700268EE7140C1204120C110045
:1022AC00370C3604350C794328008C462E006043DD
:1022BC006044834656432100300C8046584679438F
:1022CC0040440291844506D98846802149028C46B7
:1022DC00E044414602913604010C360C00048B4656
:1022EC0081191E0C1B041B0C0391190079438C469D
:1022FC00280075436544A8465843050C454477436C
:10230C00A94203D9802149028C466744290C8C468A
:10231C0039000004000C2D042D186144AB440591C8
:10232C005946049101990F043F0C080C3900514394
:10233C004243904602008C46090C8B4662437C4318
:10234C0044445C44A04503D9802149028846424458
:10235C00210C884661460904090C8C463900594306
:10236C00434370437E430F0CF6182404BE19644497
:10237C0042448C46B34203D980235B0298464044C6
:10238C00029B61469846049B370443449B46AB45ED
:10239C00AD416B420D0405992D0C8C467F19674499
:1023AC00FD18A8465D462D19A542A44193466442EA
:1023BC00A446C344DC448F42BF4198459B4193459E
:1023CC009241A445A4415B427F421F43360C5242CA
:1023DC006442BF192243BF18624638184302D20D1B
:1023EC00039913436A020A43501E82416146ED0D64
:1023FC002A434E023243D90100D4B3E001265008DF
:10240C0032400243DE0732435B08224C5444002C1A
:10241C0062DD510709D00F201040042805D0101D93
:10242C009042924152429B180200D90104D580245B
:10243C001948E400034054441848844200DD27E75F
:10244C005E075B02D2081F0B630516435B0DB2E6F9
:10245C00002399460133042700269B4664E6032398
:10246C00019781460C279B465EE60122012017430B
:10247C00002276E6032303201F43434671E6C04641
:10248C00FF07000001FCFFFF9C7F0108FFFF0F808E
:10249C000DFCFFFFFF030000FFFFFFFEFE07000027
:1024AC000023802700933F030026434B83E6019BC8
:1024BC003200A446584670E6AC466EE68027019979
:1024CC003F0339422DD03B422BD11F433F033F0BDF
:1024DC0000951600384B6EE601252D1B382D00DDBE
:1024EC0066E61F2D40DC35481C0050441600824027
:1024FC008440EE40501E824134431443EB4062074B
:10250C0009D00F222240042A05D02200141D944227
:10251C00804140421B181A023ED501230027002699
:10252C0049E68027019B3F031F433F033F0B009469
:10253C00214B40E603005A46283B9A400026019264
:10254C006DE6584600F01AFD203057E6030052465F
:10255C00283B9A401300002293E6504600F00EFDF3
:10256C0020307BE6CA4650E71F201E004042041B69
:10257C00E640202D03D0124C5444A3401A43501E65
:10258C008241324307260027164009D00F20002332
:10259C00104014000428B9D122005E075B021F0B07
:1025AC00D2081643002306E680273F031F433F0350
:1025BC003F0B1600004BFEE5FF0700001E04000059
:1025CC003E040000F8B557464E464546DE460C0024
:1025DC000903E0B5490A460F5F0031431E03DB0FC8
:1025EC00760A9B46530F3343C84E6500C000E40F78
:1025FC00D2006D0DA24681467F0D9C469046B74297
:10260C0000D1B9E05B46012673409B46EE1BA34507
:10261C0000D183E0002E63DD002F00D0B1E06346D3
:10262C00134300D123E1731E002B00D0BAE1861AAC
:10263C006346B04280410125C91A4042091A0B0277
:10264C0000D447E149024B0A98464346002B00D17F
:10265C0089E1404600F092FC0300083B1F2B00DD93
:10266C007CE120223000D21A4146D0409940020031
:10267C009E400A439D4200DD6AE15D1B6B1C1F2BD3
:10268C0000DD94E1202110003500C91A8E40DA409B
:10269C008840DD40711E8E41110007222843002521
:1026AC0006433240002A09D00F233340042B05D0B7
:1026BC00331DB342B641764289191E000B0200D479
:1026CC003DE26A1C914B55056D0D9A4200D119E102
:1026DC008F4AF6080A40570752023743120B9BE009
:1026EC00002E00D0C5E06E1C7605760D012E00DCA8
:1026FC0048E16746861ACB1BB042BF417F42B846C1
:10270C001F004346FF1A3B00B8461B0200D55FE191
:10271C0037439AD100220024002579E0002E00DCFA
:10272C00FAE0002F00D18DE0784B9D4267D08023DA
:10273C0067461B041F43BC46382E00DC52E163463F
:10274C0013435A1E93411E18864280414042091879
:10275C000B0200D4BEE06D4B01359D4200D1D2E09E
:10276C006B4A73080A4001210E401E435108D307DF
:10277C0007221E43324095E71E00164300D045E762
:10278C0040E7624B9D423AD0802367461B041F43AF
:10279C00BC46382E00DDEBE01F2E00DC3AE13300A6
:1027AC006746203BDF403B00202E05D04027BF1B57
:1027BC006646BE40324390464646721E96413343AF
:1027CC00DAE0002B00D114E26346134300D168E138
:1027DC0080234E07C008C9081B030643194208D0C2
:1027EC006046C008184204D163460100D2085E0757
:1027FC001643F3009946C900720F444D11434B46E2
:10280C00DE08424B4F073743CA089D4200D16EE0A9
:10281C0012036D05120B6D0D00211203130B0A0D23
:10282C0012051A433B4B2D0513402B435B00E40769
:10283C005B082343380019003CBC90469946A246DD
:10284C00AB46F8BD6346134311D0731E002B00D06A
:10285C0007E18618864280416144404209180125EF
:10286C000B0237D502257BE73E00614691463500C9
:10287C00C5E75C46002D00D0E1E00B000343F3D02C
:10288C00731C00D1ACE1214B9F4200D13AE1F343E0
:10289C00382B00DD6FE11F2B00DD8CE120250E00B5
:1028AC00ED1AAE40B0460600AA46DE40454635431A
:1028BC002E005546D940A8406346451EA8415B1AD8
:1028CC009C463043161AB242924163465242991AC0
:1028DC003D00B4E607223240002A00D0E4E60B4B60
:1028EC00F6084F073743CA089D4200D090E73B00DB
:1028FC00134300D1A6E180231B031A431203120BCE
:10290C00024D89E715000022002785E7FF0700002C
:10291C00FFFF7FFFFFFF0F80002E00D0C7E06B1C76
:10292C005E05760D012E00DCF0E0C84DAB4200D107
:10293C00B9E085180A008542894162444942511820
:10294C000722CE076D082E43490832401D00A9E628
:10295C00BF49ED1A114007223240A3E63200283855
:10296C008240002686E6300000F008FB203073E63B
:10297C00634613435A1E9341C61AB04280414042EB
:10298C00091A5CE60E00674606431743002D5ED11C
:10299C00002E00D0F3E0002F00D11EE15C46614612
:1029AC0091462CE7A94FBE427BD01E00F1E61000E9
:1029BC001F3DE840202B03D04021CB1A9A401643F0
:1029CC00731E9E410722064332400021002583E7F7
:1029DC00161A6346B2428041591A40420B1A984665
:1029EC005C4632E61F2E00DDABE02027BB1B9A466F
:1029FC0063465746BB40994613004F46F3401F436E
:102A0C003B005746BA40571EBA4113436246F24048
:102A1C00891898E62027BB1B9A4663465746BB404D
:102A2C00994613004F46F3401F433B005746BA40AC
:102A3C00571EBA4113436246F240891A9CE7834BF6
:102A4C009F425FD080252D047342294320E7002E3E
:102A5C000CD1002F00D1D0E05C46614691467B4DF5
:102A6C00CDE67A4FBE421CD01E0065E6002F18D072
:102A7C00C0084E0706438020C9080003014208D055
:102A8C006346DC08044204D12100DA46D2085E0712
:102A9C001643F300994601245346C900720F1143A3
:102AAC001C406A4DABE61D0000220027B4E6002D49
:102ABC0059D10B00034300D1D6E6731C00D1B2E010
:102ACC00624B9F421ED0F343382B6FDC1F2B00DD73
:102ADC0097E020250E00ED1AAE40B0460600AA463F
:102AEC00DE40454635432E005546A840D940451E8C
:102AFC00A8418C440643B618964292415142614417
:102B0C003D0025E63D006146914678E60B00034307
:102B1C00002D00D055E6002BF5D06346134300D1B1
:102B2C006DE68618864280416144404209180022B5
:102B3C000B0200D4D0E6464B01351940B2E5B14644
:102B4C005DE633006746203BDF403B00202E05D07E
:102B5C004027BF1B6646BE40324390464646721E17
:102B6C0096413343EFE5394B9F42CBD080252D0462
:102B7C0073422943A8E70843411E8841A2E6002F6F
:102B8C0000D13CE66346861ACF1AB0429B415B42A9
:102B9C00FB1A98461B024ED5161A6346B242924156
:102BAC00591A5242891A5C4600227BE501430E00F9
:102BBC00711E8E419FE71D000E00203DEE40B04679
:102BCC00202B04D04025EB1A9940084381464846F7
:102BDC004346411E8841184374E60022002417E640
:102BEC00161A6346B2429241591A5242891A3D0052
:102BFC0025E561469146154D01E68022002412031D
:102C0C0079E61D000E00203DEE40B046202B04D08E
:102C1C004025EB1A9940084381464E464346711EA7
:102C2C008E411E4367E7861896429B4161445B4286
:102C3C00C9183D008CE547463743CED007224146A4
:102C4C00324049E600273A00E6E5C046FF0700009F
:102C5C00FFFF7FFF70B50C4E0D031C0349005B009A
:102C6C002D0B490D240B5B0DB14208D006490020F9
:102C7C008B4203D114432000441EA04170BD054378
:102C8C000120002DFAD1F1E7FF07000030B5144DFB
:102C9C000A034B00120B5B0DC90F0024AB4211DD74
:102CAC00104CA34210DC8024640322430E4CE41A23
:102CBC001F2C0CDD0D48C31ADA4013005C420029AE
:102CCC0000D11C00200030BD094BCC18FAE7094D8F
:102CDC00E040AC4663449A4013000343EEE7C04621
:102CEC00FE0300001D040000330400001304000068
:102CFC00FFFFFF7FEDFBFFFF70B500282DD0C31742
:102D0C00C5185D40C40F280000F038F9154B1B1A8C
:102D1C005B055B0D0A2815DD0B38854000222D0361
:102D2C002D0B002110002D030A0D2D0B12052A432B
:102D3C000D4D1B052A4013435B00E4075B0823433E
:102D4C00190070BD02002900153291400A000B21B8
:102D5C00081AC5402D032D0BE3E7002400230025A2
:102D6C000022DEE71E040000FFFF0F8010B5041EDA
:102D7C0025D000F003F9144B1B1A5B055B0D0A28D8
:102D8C0012DD0B38844000222403240B0021100098
:102D9C0024030A0D240B120522430C4C1B05224064
:102DAC0013435B00590810BD0200210015329140FD
:102DBC000A000B21081AC4402403240BE6E7002365
:102DCC0000240022E2E7C0461E040000FFFF0F8033
:102DDC004100090E4B1C70B5DBB24602750AC40FDC
:102DEC00012B14DDE0239B006D07360BCB18002163
:102DFC000A0D280012051C4D32435B052A405B0866
:102E0C0013435B00E4075B082343190070BD0029E2
:102E1C0014D1002D1ED0280000F0B0F80A281CDCBC
:102E2C000B232A001B1ADA40030015339D400F4B6D
:102E3C0012031B1A5B05160B5B0DD8E7002D06D091
:102E4C00320B802636036D071643094BCFE7084B30
:102E5C000026CCE700230026C9E703002A000B3B21
:102E6C009A400025E3E7C046FFFF0F80890300006E
:102E7C00FF070000F0B54C00640D0B03621C5B0AED
:102E8C00460F5205C90F1E43C500520D012A29DDFC
:102E9C00374BE718FE2F1CDC002F3BDD8001431E57
:102EAC0098410722F3006D0F03432B431A40002A6D
:102EBC0004D00F221A40042A00D004338022D204FA
:102ECC001A4024D00137FAB2FF2F02D09B01580AC6
:102EDC0001E0FF2200204002D205400AC90710433E
:102EEC000843F0BD3543002C04D1002D0AD100223B
:102EFC000020F0E7002DECD08020C0033043FF22EF
:102F0C00E9E7002400235B02580AE2B2E3E7DB089E
:102F1C003C00F8E73B001733F3DB80231B043343FF
:102F2C001E26F61B1F2E14DD02225242D71B1A003E
:102F3C00FA401700202E04D00E4A94466444A34055
:102F4C001D432B005D1EAB4107223B431A4000275B
:102F5C00ADE7094A2800A218954093406C1EA54184
:102F6C00F04007222B4303431A4000279FE7C0463B
:102F7C0080FCFFFFA2FCFFFF82FCFFFF1C21012352
:102F8C001B04984201D3000C10391B0A984201D340
:102F9C00000A08391B09984201D30009043902A21E
:102FAC00105C40187047C046040302020101010185
:102FBC00000000000000000010B5002903D1FFF74D
:102FCC00DDFF203002E0081CFFF7D8FF10BDC04623
:102FDC00F0B5224B224A1B8883B09BB2934235D06A
:102FEC001E0A2CD01F4AF6B216701F4A13706B467D
:102FFC00D91D0023022201249C461C4D63460B70F4
:10300C000B780A2B14D8631E9800C0184000C01807
:10301C00124BD7180B783F88C3185B00EF520B7814
:10302C0002320133DBB20B700B7892B20A2BEFD960
:10303C000134E4B2B442E1D9002003B0F0BD012167
:10304C00084A01261170084A1370D0E70122054B7B
:10305C00FA201A700022044B1A70EEE700D801080F
:10306C00FFFF000010000020B00A0020B00E00206E
:10307C00F0B5C64600B50F4E3378002B16D00023A2
:10308C00012498460C4F611E4900651C7918A8B2A2
:10309C0004F01CFD192C01D90A2398463378ECB2A4
:1030AC00A342F0D2404604BC9046F0BD00239846A3
:1030BC00F8E7C0461000002070700020F0B54E46B6
:1030CC00DE4657464546E0B583B06B469E1D002351
:1030DC0033809846174B1C249A46174B9B46434605
:1030EC009F00FD18631D9BB299466D00554420004E
:1030FC00310004F0EBFC338801346B70A4B21B0A72
:10310C002B7002354C45F2D1002347447F005744C5
:10311C007B7243460133DBB298465B461B784345D2
:10312C00DDD2002003B03CBC90469946A246AB468B
:10313C00F0BDC046A00D002010000020F0B54646A2
:10314C00D6464F46C0B582B06B469E1D0023224C1E
:10315C00338023780025002B3AD0204B0021994650
:10316C001F1D28004900CB30791880B2013504F0BE
:10317C00ADFCADB22378E9B28B42F2D838232C00E7
:10318C00CB359C46ABB2984600239A469934E14421
:10319C00A4B24D46671DBFB22000310004F096FC6E
:1031AC00338801346B70A4B21B0A2B700235BC42FD
:1031BC00F2D14B4652465A720A239C46E144A04532
:1031CC00E7D1002002B01CBC90469946A246F0BD47
:1031DC00024B9946D2E7C04610000020B00A0020EE
:1031EC00F0B5CE4647460E26002380B585B003AC1D
:1031FC006E442100E4202380338004F067FC002718
:10320C00002800D127782100E52004F05FFC310074
:10321C000500E62004F05AFC00230543ADB29846A5
:10322C00002D04D1238832881B0498469044210039
:10323C00E72004F04BFC31000500E82004F046FCCC
:10324C0000230543ADB29946002D04D12388328862
:10325C001B04994691442100E92004F037FC002816
:10326C0030D0264D2100EA2004F030FC002803D198
:10327C0023881A0AAA77EB772100EB2004F026FCAE
:10328C00002805D120222388190AA9540132AB54F5
:10329C002B7F002B02D06A7F002A20D1AB7F002B22
:1032AC0002D0EA7F002A21D12023EB5C002B03D033
:1032BC002122AA5C002A0BD1002005B00CBC904640
:1032CC009946F0BD23880D4D1A0A2A776B77C9E70A
:1032DC00009241464A46380006F064F9ECE7009249
:1032EC0041464A46380006F05DF9D7E70092414660
:1032FC004A46380006F056F9D6E7C046300B002097
:10330C008A2070B582B001AC2100400004F0DEFBD5
:10331C0000285DD18E202388544D21002B70400055
:10332C001B0A6B7004F0D2FB00285ED11620238898
:10333C002100DA0BFF305B082A71EB8004F0C6FB2E
:10334C004B4D00285ED18B202388210040002B8020
:10335C0004F0BCFB00285FD1182023882100FF302B
:10336C006B8004F0B3FB002860D123882B711B0AFF
:10337C006B718C202100400004F0A8FB6B4606000A
:10338C001A20991DFF3004F0A1FB0643B6B2002EA3
:10339C005FD16B46DB8822881B041343AB608D2006
:1033AC002100400004F092FB002845D11C2023880A
:1033BC0021002B73FF301B0A6B7304F087FB002872
:1033CC0044D026232B4AD35CAB76002002B070BDD0
:1033DC008E20284B254D1A7921002A705B794000EC
:1033EC006B7004F073FB0028A0D01620214B210039
:1033FC001A7AFF302A715B89EB8004F067FB1C4D55
:10340C000028A0D08B201B4B21009B8940002B80D7
:10341C0004F05CFB00289FD01820164B2100DB89A0
:10342C00FF306B8004F052FB00289ED0114B1A7CAD
:10343C002A715B7C6B719CE7C0231C205B01AB8108
:10344C002100FF3004F042FB0028BAD12388AB7670
:10345C00BBE72223084AD35C002B03D0E1235B0299
:10346C00AB609CE7034B5B69AB6098E7F06B0020AB
:10347C00706C002010000020300B0020F0B5DE46F0
:10348C0057464E464546E0B58BB002AB9C461E26D1
:10349C000023664433800F339A460E3B0125EC24FF
:1034AC009B463100200004F011FBEBB2071E99463D
:1034BC0004D13288130A1909A9420CD004340135FD
:1034CC00A4B2062DEDD100200BB03CBC9046994621
:1034DC00A246AB46F0BD51460B40EFD02548E90063
:1034EC008046491988444146A8004B7083B21800A5
:1034FC00E9300A7280B23100079304F0E7FA4146D2
:10350C00338807981A0AEA308A704B7180B23100FE
:10351C0004F0DCFA4146338807981A0AEB30CA707B
:10352C008B7180B2310004F0D1FA4146338848786F
:10353C001A0A0A71CB71494605F074F8434658468D
:10354C00197A9B784A100240014040460597C07991
:10355C000490404680790390404640790290404662
:10356C00007901904046C0780090484605F05CF91F
:10357C00A4E7C04608170020F8B5DE464546574676
:10358C004E463220E0B50FF0E5FA051E65D03B4CF7
:10359C00FF202278FE2A56D16B1C9846642399464C
:1035AC00374B384E9B46B1442000A2461430291BA1
:1035BC0022780A5501348442FAD114224146300053
:1035CC000FF015FD0021142228000FF019FD2178B1
:1035DC008B1CDBB2012B42D95746280046370023FF
:1035EC0002E00130A74234D001340170217801335C
:1035FC008A1CD2B2DBB2012AF3D89A465A1EAA5CB4
:10360C00002A02D00133DBB29A4650460FF0A2FAE0
:10361C00F060002828D0524629000FF0E8FC5B46E9
:10362C005A461B78002101331370280052460FF0C4
:10363C00E7FC2378FE2B02D11436B145B4D1280017
:10364C000FF092FA00203CBC90469946A246AB463D
:10365C00F8BD322331229A46D1E7FB20F3E7012251
:10366C00002352429A46CAE71422002130000FF080
:10367C00C7FC28000FF078FA0E20E4E700DC010804
:10368C00141100208C6C002010B5FFF7A1FCFFF783
:10369C00EFFCFFF713FDFFF751FDFFF7A1FDFFF75F
:1036AC002FFEFFF7EBFEFFF767FF10BDF0B5C64628
:1036BC0000B5104E3378002B16D000230124984609
:1036CC000D4F07E0192C01D90A2398463378ECB238
:1036DC00A3420BD3631E5B00F95A651C0029F1D081
:1036EC00A8B204F023FAEDE700239846404604BC48
:1036FC009046F0BD10000020707000200023F0B543
:10370C004646D6464F4698461C4BC0B599461C4B70
:10371C0000269A4605E0534601361B78F6B2B342B2
:10372C0025D34B46B400A41964001B5D002BF2D0CA
:10373C00454647461C3521374C44ADB2BFB2617883
:10374C001B02C9182800013589B2ADB204F0EEF99C
:10375C000234BD4201D02378F1E7434605339BB2D6
:10376C009846534601361B78F6B2B342D9D20020A4
:10377C001CBC90469946A246F0BDC046A00D002048
:10378C0010000020F8B5DE4657464E4645468B469F
:10379C00E0B51E000AAB1B7881B29A460BAB1D78C4
:1037AC000CAB1B78E42098460DAB1C780EAB914605
:1037BC001F7804F0BBF95B46190A89B2E52004F0C6
:1037CC00B5F95B46E62099B204F0B0F94B46190AFC
:1037DC0089B2E72004F0AAF94B46360299B2564456
:1037EC00E8202D0204F0A2F94544B1B2E9202402EC
:1037FC0004F09CF9E419A9B2EA2004F097F9A1B2FB
:10380C00EB2004F093F900203CBC90469946A2466C
:10381C00AB46F8BD8A2010B51E4C40006378217869
:10382C005B01194304F082F98E202179E388C903E6
:10383C00194389B2400004F079F91620164CFF3078
:10384C00218804F073F98B206188400004F06EF934
:10385C0018206379217B1B021943FF3004F066F9B1
:10386C008C202189400004F061F91A206189FF3015
:10387C0004F05CF98D20637B21791B021943400015
:10388C0004F054F91C20A17EFF3004F04FF9002005
:10389C0010BDC046F06B0020706C0020F0B5C64621
:1038AC00124F00B53422002138000FF0A9FB104E46
:1038BC0033789846002B15D0002301249846022516
:1038CC00192C01D90A2398463378ECB2A34209D3B8
:1038DC00631E5B00F95A651C0029F1D0A8B204F0F4
:1038EC0025F9EDE7404604BC9046F0BD7070002011
:1038FC00100000200E2370B512248EB003AD6B4463
:10390C006C4400932A0006AB05A9012009F0DAF9F2
:10391C0004AA08AB07A90094022009F0D3F90123EB
:10392C0000260A932B8809A9059809930B960DF08C
:10393C0061FA02230B93238809A9089809930A9624
:10394C000DF058FA2988002205980DF0F3FB05209C
:10395C0009F02EFD218808980DF0E6FB03000020ED
:10396C00002B0FD12988012205980DF0E3FB0520CF
:10397C0009F01EFD218808980DF0D6FB0138434252
:10398C005841C0B20EB070BD10B509F0CBFEE123AA
:10399C001B0243608023DB000361802304005B0176
:1039AC0083600EF009FF2021226813680B4313601B
:1039BC0010BDC046044B10B59968FCF79DFB434203
:1039CC005841C0B210BDC046B0000020F8B5DE466C
:1039DC0057464E4645462349E0B50400FCF78CFBA0
:1039EC00214B06009846214B06259946204B214F2A
:1039FC009A46214B9B46002E28D039002000FCF71C
:103A0C007BFB002824D041462000FCF775FB0028E6
:103A1C0020D049462000FCF76FFB00281CD05146F3
:103A2C002000FCF769FB002818D059462000FCF751
:103A3C0063FB002814D0013DEDB2002DDBD100203A
:103A4C003CBC90469946A246AB46F8BD0120F7E730
:103A5C000220F5E70320F3E70420F1E70520EFE768
:103A6C000620EDE7DC7F0108E47F0108E87F010810
:103A7C00EC7F0108E07F0108F07F0108F0B5C64635
:103A8C00124E134B350007000124984600B524351F
:103A9C0082B0A74211D043461B8D2422190A6B70A9
:103AAC000323B154AC700022009300210733200093
:103ABC0005F064FE0A2009F0F9FE0134E4B2052C8D
:103ACC00E7D1002002B004BC9046F0BD300B0020C2
:103ADC0010000020F0B557464E464546DE46E0B590
:103AEC0083B06A464B4B00AF1D78EB1DDB08DB0047
:103AFC00D31A9D466E46002D0CD000216C1E464AF2
:103B0C00E4B2013454326C44197001331180023226
:103B1C00A342F9D101231622013833543F4B4243BF
:103B2C009C463D4B400018180123023262449C46CF
:103B3C000133002154249A46B3467D601388002B30
:103B4C000DD0055BDB08A84665468D40A946454669
:103B5C004E463543055355465B44013B1D700131C0
:103B6C0002320629EAD15422022392465E469B4633
:103B7C00294B7D689A445346A8465D463B604346B4
:103B8C000135EDB2002B3BD06B1E99460023002271
:103B9C009C46AB4603E00132D3B298452CD9B35CBA
:103BAC004B45F8D116211E4B51439A4600205144E7
:103BBC00E246944655007D600B88002B12D0DB0842
:103BCC00013BF25C002A0DD13C687A68155B01223E
:103BDC00824015437A68155354465A460134F254C0
:103BEC00E3B29A46013002310628E5D16246013231
:103BFC00D3B2D4469845D2D863465D46002BBED18D
:103C0C000020BD4603B03CBC90469946A246AB464C
:103C1C00F0BDC04610000020300B0020B00E00207C
:103C2C00B20E0020F0B5DE464E4645465746E0B58E
:103C3C0091B003AC05000E0001913222002120004E
:103C4C000FF0DEF91A22002162480FF0D9F9002199
:103C5C002420614B6A1E9C469B181954197216231A
:103C6C0053435E4A023393465B4499461A00233809
:103C7C00B1B21388002B03D0DB088B4200D199E042
:103C8C00013002320728F4D1554B19780123002951
:103C9C0000D19AE008226244904600226646FF2733
:103CAC00924624369D4205D040465A1E87545046B3
:103CBC00B218107001338B42F4DD082363440025E5
:103CCC00984601220023E05C013302408B42FADB70
:103CDC00002A00D07CE063461A7A23781000002B6F
:103CEC0000D0FF200025002301E042469A5C904260
:103CFC0004D9E65C002E01D11000DDB201338B42F9
:103D0C00F3DB0135019BEDB29D4223D001236F1EE5
:103D1C00E35516235E467B430E369A1C5A44F6181E
:103D2C00674400911388002B0FD0DB08DBB2013BFA
:103D3C00E05C002809D1387A63440130197AC0B2AA
:103D4C00814202D9242118725D540232B242E9D167
:103D5C000099B6E7013B242263449A5C0023002AB5
:103D6C0001D10BE00A001B49581CCD5463469B182B
:103D7C00233319781500C3B20029F3D101204C4626
:103D8C00019B63442288002A08D0124DD979AC4695
:103D9C00614401390978D208914214D001300234BF
:103DAC000728EFD1002011B03CBC90469946A246A2
:103DBC00AB46F0BD019901220B006344DA71054B4F
:103DCC00C0B21970EFE7C0B2EDE75B420025C2E765
:103DDC006B1EC0E7846D0020B00B0020B00E0020DD
:103DEC0010000020F0B557464E46DE464546994633
:103DFC00E0B53D4C85B08246207888461700FFF729
:103E0C0011FF4B460600002B26D1384B217843443A
:103E1C00DA79012A4ED0364B9B18013B1D788A4526
:103E2C0020D109F04FFE8346324B42461968584662
:103E3C000FF0E0FA304B584619680FF0FBFA584671
:103E4C00FCF764F9322382B25946380009F014FCAD
:103E5C0064200BF0AFFC05E02578454526D0554590
:103E6C002CD000253800FFF78FFD3000FFF78CFDBC
:103E7C002178A94212D000230393013B02930193B2
:103E8C000333009332000B00380005F0F9FE05B047
:103E9C003CBC90469946A246AB46F0BD300009F0BA
:103EAC0041FC012109F04AFC2178E4E7554516D084
:103EBC004E46D7E78A450DD00D00D3E709F002FE38
:103ECC00002583460D4B4246196858464B460FF069
:103EDC0091FAAFE709F0F6FD55468346A4E709F0E1
:103EEC00F1FD4E468346EDE7B00A0020B00B0020F2
:103EFC00846D002098000020900000209400002089
:103F0C00F0B54E464546DE465746E0B5584D594B42
:103F1C002C0040342200070043CB43C2196883B005
:103F2C0011609B882100938001235B42009398468B
:103F3C0011223333380009F06DFB4F4B01269946A3
:103F4C003200494620000FF055FA2000FCF7DEF84D
:103F5C00434682B20093210032233800013609F027
:103F6C0059FB052EECD143460322009343493223DF
:103F7C00380009F04FFB424B1B78002B60D0414BB3
:103F8C000024994601235B4298463F4B40359B46A3
:103F9C00631C1A003D4928009A460FF02BFA2800A2
:103FAC00FCF7B4F8434682B2009329003223380060
:103FBC0009F030FB16235C434B461B5B0522590072
:103FCC00C918334B49009C46280061440FF067FA2E
:103FDC0043460522009329003223380009F01AFBCE
:103FEC004346012200932B493223380009F012FB7F
:103FFC004B46A61C0A334E441C193288002A2FD17A
:10400C00254928000FF0F6F92800FCF77FF8434605
:10401C0082B20093290032233800023609F0FAFAF2
:10402C00A642EAD14346022200931C4932233800AF
:10403C0009F0F0FA5346DCB2114B1B78A342A7D817
:10404C0001235B420093012233331549380009F0F8
:10405C00E1FA03B03CBC90469946A246AB46F0BD93
:10406C000723594613402800D2080FF0C3F9CBE7B9
:10407C00B00B0020F47F0108088001087C8C01083B
:10408C0010000020B00E00202080010810800108D4
:10409C0054780108048001081C8001082C81010857
:1040AC0090960108F0B54546DE4657464E463449D3
:1040BC00E0B540310A00334B824631CB31C231CBB3
:1040CC0031C21B6883B0136001235B4200931B2237
:1040DC003333504609F09EFA2B4B1B78002B35D00E
:1040EC0001239946294B9846294B9B464B468026E3
:1040FC00234F5D1E6D0000233602403702E0230083
:10410C000A2C1BD0310042461941525B5C1C1142F7
:10411C00F5D023004A46594638000FF06BF93800A9
:10412C00FBF7F4FF01235B4282B200933900333377
:10413C00504609F06FFA23000A2CE3D14B460133A9
:10414C00DBB29946104B1B784B45CFD20C49114B27
:10415C0040310A0031CB31C231CB31C211CB11C24B
:10416C0001235B4200931F223333504609F052FA6D
:10417C0003B03CBC90469946A246AB46F0BDC04647
:10418C00B00B002028800108100000207070002067
:10419C004480010858800108F0B5DE464E4645467D
:1041AC005746E0B585B0039009F08CFC0023040061
:1041BC00984D0370984B40351A78984928000FF0A9
:1041CC0019F9290020000FF035F9954B95491A7C07
:1041DC00280098460FF00EF9290020000FF02AF95C
:1041EC000623002200939049043B28000FF002F9AB
:1041FC00290020000FF01EF98C4A8D4928000FF081
:10420C00F9F8290020000FF015F98A4A8A4928008C
:10421C000FF0F0F8290020000FF00CF92A00874B62
:10422C0043CB43C219682000116099880126918004
:10423C009B79290093710FF0FDF8814B9946814BC6
:10424C009A46814B9B463200494628000FF0D2F823
:10425C00290020000FF0EEF843461433F35C042BD6
:10426C000BD852469B00D3589F462A00774B83CBE2
:10427C0083C283CB83C21B881380290020000136A4
:10428C000FF0D8F8052EDED12A00714BA04643CB97
:10429C0043C243CB43C2290020000FF0CBF86D4B37
:1042AC006D4E9B466D4B01259A461DE0706A07F0DA
:1042BC0019FC5A46AB00043B0400D05807F012FC22
:1042CC0040239946534B2A009C46E144009023001E
:1042DC00514648460FF08EF80135494640460FF0DE
:1042EC00A9F83836072D11D03368002BDED1494C94
:1042FC002A0040345A4920000FF07CF80135210087
:10430C0040460FF097F83836072DEDD14046FBF7B5
:10431C00FDFE44460500534B022219002018984616
:10432C000EF065FEA81C1D2220184F490EF05FFEF2
:10433C001E239B464D4BAB44994640239A46354B26
:10434C0080259C4600224A4E2D02E2442900114150
:10435C00314B571C1B78013B5B00F35A194248D177
:10436C003A00042FF2D12000FBF7D0FE5B469BB243
:10437C0005002018AB4246D0032241460EF037FE12
:10438C00039B002B0BD02000FBF7C0FE01235B42EC
:10439C0082B2009321003333039809F03BF905B046
:1043AC003CBC90469946A246AB46F0BD2A00314B28
:1043BC0083CB83C261E72A002F4B83CB83C203CB11
:1043CC0003C21B78137058E72B005A4683CA83C369
:1043DC0083CA83C3116819609188998092799A7104
:1043EC004BE7264B1A682A609A88AA809B79AB7196
:1043FC0043E749463A0050460EF0FCFF5146200078
:10440C000FF018F8ACE705221D490EF0F0FD281D41
:10441C002018B1E7B00B0020B00A0020788001080A
:10442C00300C002094800108B0800108D080010875
:10443C00DC800108F4800108008101081C8101085E
:10444C0030810108A8770108808101086481010886
:10445C00A0810108B0120020401A0020D48101086C
:10446C00B88101082C81010804820108248201080A
:10447C0070700020588101084081010838810108C2
:10448C002C820108F0B5C646294900B50600FBF799
:10449C0033FE00282CD027493000FBF72DFE0028D6
:1044AC002BD033789846232B30D0234B1F78002FFA
:1044BC000FD00024214D29003000FBF71DFE0028F1
:1044CC0002D14346002B1AD10134E4B20A35A7427B
:1044DC00F1D100241A4D383529003000FBF70CFEC1
:1044EC0000280ED001340A350A2CF5D1642001E0E5
:1044FC00134B187804BC9046F0BDFF20FAE720B2AD
:10450C00F8E7FE202402204300B2F3E7701C0EF003
:10451C00AEFAC3B2002B03D0074A12789A4204D2E7
:10452C00074A662012789A42E4D118B2E2E7C046F4
:10453C00348201083882010810000020A00D0020F0
:10454C00B00A0020F0B5C6462C4C070026000D0022
:10455C0000B5103621002800FBF7CEFD002840D016
:10456C000434A642F6D1264B1B78012B14D9254CCA
:10457C009E00F618230076000A3BF61802E00A3477
:10458C00B44209D021002800FBF7B6FD0028F6D173
:10459C00072004BC9046F0BD1B4E34009C363834CA
:1045AC0021002800FBF7A8FD0028F1D00A34A64210
:1045BC00F6D1164B164C9846DC6104E04346646811
:1045CC00DC61002C0FD023681E683000FBF79EFDC9
:1045DC003100020028000EF051FF0028EED1082017
:1045EC00D7E70620D5E7B800C0190A4F40002900CC
:1045FC00C0190EF03BFFFFF781F8CAE704780108F9
:10460C0010000020AA0D0020B00A0020300C002061
:10461C00D4000020A00D0020F0B54F464646D646EB
:10462C003E4BC0B51F00383780460E0099463C0003
:10463C00002521003000FBF75FFD00282AD0013552
:10464C000A340A2DF5D1364C2500103521003000E6
:10465C00FBF752FD002851D00434A542F6D1314B62
:10466C001B78012B20D9304C9D00ED1823006D00D8
:10467C000A3BED1802E00A34A54215D021003000A7
:10468C00FBF73AFD0028F6D107201CBC9046994652
:10469C00A246F0BD01224746AA40013F7F004F448D
:1046AC00BB881343BB80F0E7204B214C9A461C621D
:1046BC0004E0534664681C62002C0DD023681D680E
:1046CC002800FBF723FD2900020030000EF0D6FE77
:1046DC000028EED10820D8E73B78002B10D001340D
:1046EC000A370A2CF8D18023DB004746013F7F00B4
:1046FC004F44BA8800201343BB80C6E70620C4E7AA
:10470C004B46A000001938334000181831000EF049
:10471C00ADFE0123A3401BB2E7E7C046B00A002060
:10472C000478010810000020AA0D0020300C002095
:10473C00D4000020F0B54E46DE4657464546E0B55F
:10474C00294B83B099461B78002B4AD00023019348
:10475C00264B01259846264B9A46264B9B4614E041
:10476C0000221321280005F067FA322008F020FE01
:10477C0024235A46D35C002B01D0022301934B46D1
:10478C0001351B78EDB2AB4223D343461B78AB42C9
:10479C00E6D18027002601243F02200008F0C2FF4A
:1047AC00436BBB420AD139004346524631411B7818
:1047BC00013B5B009A5A0A4351465A520134E4B207
:1047CC000136052CE9D14B4601351B78EDB2AB42D5
:1047DC00DBD2019803B03CBC90469946A246AB464E
:1047EC00F0BD00230193F4E710000020B00A002074
:1047FC0070700020300C0020F0B5C646124B80269D
:10480C0000250124984600B5104F360242463B78ED
:10481C002000013B5B00D35A32002A411A420DD1D1
:10482C0008F080FF002108F089FF0134E4B2013563
:10483C00052CEBD1002004BC9046F0BD08F072FFB3
:10484C00012108F07BFFF0E770700020B00A002017
:10485C0070B508F061FC08F005FD03F04DFA08F0A6
:10486C00EFF907F0CFF908F02FFD08F0A9F908F0DF
:10487C005DFD08F073FA002862D1FFF73BF80028C1
:10488C0053D022230121384A32200124D15408F07C
:10489C008FFD07F009F9E121344D20000134490264
:1048AC00E4B2A96008F02CFF052C07D020000134DD
:1048BC00A968E4B208F024FF052CF7D1FEF7E4FE5A
:1048CC00FFF79AFF07F024FE80219020284B01224D
:1048DC001B784900C005002B2DD00CF02BFCFA20C6
:1048EC00400008F065FD8021902000224900C005A1
:1048FC000CF020FC642008F05BFD8021902001224C
:10490C00C00549000CF016FC642008F051FD802114
:10491C00902000224900C0050CF00CFC03F062F85A
:10492C0025230121134AD15470BD322008F040FDDB
:10493C0007F0BAF8C2E70CF0FDFBFA204000E4E700
:10494C000D4C0E4D2368AB4204D003F085F90028C2
:10495C0000D12560BFF34F8F094B0A4ADA60BFF3D1
:10496C004F8FC046FDE7C046300B0020706C002016
:10497C00B00A0020300C0020F07F0020ADDEEFBE2E
:10498C0000ED00E00400FA0510B50AF0F5FE06F0A3
:10499C0025FFFFF75DFF03F007FB08F081FF10BD5B
:1049AC00F0B5454657464E46DE46E0B5824F83B0DD
:1049BC000CAC40CC3D7801902478A846002E59D000
:1049CC0020253D7065426C41012522206442AC4398
:1049DC00A3468446D5B2A946784DE344AA4229D8C9
:1049EC0024224C46764DAC542A0024325370082BAA
:1049FC0014D8744A9B00D3589F460B682435AB716E
:104A0C000B681B12EB710B681B142B720B681B16BB
:104A1C000A22594601986B7205F00EF943460020A4
:104A2C003B70002E28D103B03CBC90469946A24660
:104A3C00AB46F0BD24208446002082466046544696
:104A4C005F4DAC442C5460464370100E8246604659
:104A5C0054468470100C824660465446120A027109
:104A6C00C470624648465071082BD7D8564A9B00F2
:104A7C00D3589F463E70A5E70AF096FE2424070003
:104A8C00524D285D0028CED00AF08EFEC01BB042DD
:104A9C00F7D3285DC7E70B78243503222021019832
:104AAC00AB7005F0C9F8B9E70B78243507225946E5
:104ABC000198AB7105F0C0F8B0E70B682435AB7109
:104ACC000B681B0AEB710B681B0C2B720B681B0E13
:104ADC009EE70B782435AB704B780A22EB708B7801
:104AEC0001982B71CB786B710B79AB714B79EB71A6
:104AFC008B792B72CB7920216B7205F09DF88DE7A9
:104B0C000B782435AB714B780E22EB718B780198B6
:104B1C002B72CB786B720B79AB724B79EB728B7906
:104B2C002B73CB7959466B7305F086F876E70B88B7
:104B3C002435AB710B881BB21B1208225946019805
:104B4C00EB7105F079F869E70B882435AB710B88AC
:104B5C001B0AF2E70B682435AB700B681B12EB7069
:104B6C000B681B142B710B681B1606222021019855
:104B7C006B7105F061F851E70B682435AB700B686D
:104B8C001B0AEB700B681B0C2B710B681B0EECE7F4
:104B9C000B882435AB700B881BB21B12042220210E
:104BAC000198EB7005F048F838E70B882435AB70AA
:104BBC000B881B0AF2E7C046F06B0020FFFFFF07D3
:104BCC00300B0020BC770108E0770108300C002086
:104BDC0030B5012183B01E200DF050FF04000948B0
:104BEC000949027D058B837D013A0195407D920038
:104BFC008A18009012692C3120000EF0FBFB20006B
:104C0C0003B030BD706C00200478010800B5084B6F
:104C1C000A001978012385B00393023B0293019398
:104C2C00033300930B0005F02BF805B000BDC04614
:104C3C00B00A0020002330B504000D0087B00493A7
:104C4C000393029301930093002200210020FEF7AE
:104C5C0099FD601EC30012491B1ADB005B586A1ECB
:104C6C00002B12D0D3009B1ADB005B582000002BCA
:104C7C0004D102F013FE002007B030BD02F00EFE8E
:104C8C00280002F00BFE0020F6E7D3009B1ADB0095
:104C9C005B58002B01D02800EBE76820ECE7C046FE
:104CAC00401A0020F0B5D64646464F46C0B5274EB2
:104CBC00274D33788046013B9C00E418A4002C1946
:104CCC00E3689A46FBF722FA53468146002B2ED016
:104CDC005046FBF71BFA49460231070009185046AB
:104CEC000EF0C0F93278E060013A93009B189B00FB
:104CFC00EB18D8687A1C801841460EF0B7FB327856
:104D0C00013A93009B1813229B00EB18DB68DA55D1
:104D1C003378013B9800C01880002818C368002B1A
:104D2C000DD000201CBC90469946A246F0BD013027
:104D3C000DF010FF4146E0600EF098FBF1E71422F5
:104D4C0000210EF05DF90E20ECE7C0461411002096
:104D5C008C6C002070B504780500002C0DD0032657
:104D6C000DF0EAFE001942783240012A00D12034BD
:104D7C002C7001352C78002CF2D170BDF0B5574653
:104D8C004E46DE464546E0B5D84E8BB0347807002B
:104D9C00052C67D0A300D64D181980009A462B1805
:104DAC00994600234A460230138028180422002119
:104DBC000EF026F93B78622B02D1BB782E2B57D004
:104DCC00331D9846180039000EF050FBC94C404674
:104DDC0021000FF0CBF92100070000200FF0C6F9DD
:104DEC002100804600200FF0C1F90400002F2FD0C5
:104DFC003800FEF7DFFD4346071E36D0002B24D0CB
:104E0C00002C25D02000FEF7D5FD00286BD0042205
:104E1C0033789C009946E3189B00EA54EB18DF703A
:104E2C00D8714046FEF7D2FD32784C449300A40072
:104E3C009B182C199B006070ED186B78002B07D019
:104E4C00002301323270984604E0002C00D17FE040
:104E5C006723984640460BB03CBC90469946A24608
:104E6C00AB46F0BD0E239846F4E7002BC8D1EFE714
:104E7C007B78303BDBB29B46002398465B46042B89
:104E8C00E8D84946012358460B80FB1C8870072242
:104E9C009949180007930EF0F1FA00283DD00E2224
:104EAC00964907980EF0EAFA00285ED106234A4686
:104EBC00D3705B46DA00924B5A449B181B7A9B07C3
:104ECC000ED40123059343460122049303930293CA
:104EDC000193009300210023584603F0A5FC34787D
:104EEC0001343470B6E73278200093009B1803220B
:104EFC009B00EA54EB18DF700DF0AEFDFDF7BAFF26
:104F0C00337809909C00E0188000063028180422A1
:104F1C0009A999460EF06BF883E705234946CB7037
:104F2C005946774BCA005A449B1801221B7A1A42E5
:104F3C00D6D1012305934346002204930393029395
:104F4C00019300930121584603F06EFC3478C7E7B7
:104F5C000221327893009B189B00E954ED18002332
:104F6C000132E8703270984674E70C226549079854
:104F7C000EF084FA002831D15B46DA00604B5A44BB
:104F8C009B189A78002A63D0DA78002A7DD00C22FC
:104F9C001B799046002BA3D12300380053449B006F
:104FAC00EB18013ADA700F300DF05BFD3278C0B2BD
:104FBC0093009B189B00ED18012328710593002387
:104FCC00002200210493039302930190009358460E
:104FDC0003F02AFC00233478984681E70D224A49D5
:104FEC0007980EF04BFA002800D079E75B46444A4C
:104FFC00D900CB18D318587900285ED09B79002B98
:10500C0000D183E059445218D37999460D23984620
:10501C004B46002B00D063E71433380098465C43B2
:10502C00063B2C19E37010300DF01BFD4246337813
:10503C00C0B25343ED180123287105934B460393DB
:10504C00029301930093002304901A001900BEE709
:10505C0009234A463800D3700F300DF002FD317829
:10506C00C3B28A0052189200AD1801222B7105921E
:10507C004246049203920292019200920022002175
:10508C00584603F0D1FB34782AE70A234A46380005
:10509C00D3700F300DF0E5FC3278C0B293009B1842
:1050AC009B00ED180123287105934346009004934F
:1050BC000393029301930023E0E70C234A46380044
:1050CC00D37010300DF0CDFC3278C0B293009B1829
:1050DC009B00ED180123287105934346029004931D
:1050EC000393019300930023C8E7C04614110020DA
:1050FC008C6C002034810108B08C01088484010878
:10510C000817002094840108A484010823000D22B0
:10511C00380053449B00EB18DA7010300DF0A1FCF2
:10512C003278C0B293009B189B00ED1801232871B4
:10513C0005930023039004930293019300930022A0
:10514C00002144E7F0B5DE46574645464E468A46B2
:10515C00E0B58BB0029015000021092207A81C00B5
:10516C000DF04EFFCD4B56469846CD4BBA469B465E
:10517C002DE00622CB4928000EF080F9002857D0EC
:10518C00022F00D1D2E02E2128000EF061F9071E6B
:10519C0007D00338032259460EF070F9002800D0CE
:1051AC0079E0992221009200280008F013FC824635
:1051BC002378002B39D12000FAF7A8FF0021020038
:1051CC0020000DF01DFF5346002B00D1D0E128002C
:1051DC00FFF7C0FD3623994643464A469F5C002F95
:1051EC00C7D1333AB04928000EF048F9071ECAD18E
:1051FC00E81CFFF7C3FD002800D09FE002234246C5
:10520C00494653540B332370002E27D000239A4663
:10521C002000FAF77BFF01235B4282B2009321004E
:10522C003333029808F0F6F9C5E7002EC3D0EFE748
:10523C0043464A4698541A78013A93009B189B4A65
:10524C009B00D31801221A7406F020FB41229849C6
:10525C0020000DF0CCFE2378002BD5D12000FAF7DE
:10526C0055FF002102002000B2460DF0C9FE0922B4
:10527C00002107A80DF0C4FE36234246D35C002B58
:10528C0002D15346002B6AD10BB03CBC90469946D8
:10529C00A246AB46F0BD0DF04FFC7B78C0184378AE
:1052AC005B0700D57DE77A1B290007A80EF0F7F8FD
:1052BC0007A8FFF7E7F87F4B03901B7805939842FC
:1052CC0057D0039B642B00D1DAE0039B662B00D1F3
:1052DC00DDE07B1C0493039BFF2B00D18BE06B4622
:1052EC001B7B9946FE2B00D102E1062272490498E1
:1052FC000EF0C4F8002844D1704B0022187019210C
:10530C0048469A4604F098FC642008F0CFFA6C4B9F
:10531C0049461A78674B18780023FEF763FD53460D
:10532C001B78602B00D195E0237895E72800FFF7D8
:10533C00B9FC00280CD10D23237065E7522261497A
:10534C0020000DF054FE43464A469F54237883E7D1
:10535C0052225C4920000DF04AFE23787CE70123A1
:10536C005B420093382233335749029808F052F9C4
:10537C008AE79922781C9200210008F02BFB8246C8
:10538C0016E72800FAF7C2FE070007A8FAF7BEFED8
:10539C0082467A1E121A04994C480EF080F82800A6
:1053AC00FAF7B4FE53460138C21A92B21721484696
:1053BC0004F042FC039A464920000EF01BF82378B7
:1053CC002000002B0DD0FAF7A1FE0200002E0BD00E
:1053DC00012382B2009321003133029808F01AF9AC
:1053EC002000FAF793FE0200002120000DF008FEC9
:1053FC00324B9A4693E71A22002136480DF000FEF4
:10540C002800FAF783FE070007A8FAF77FFE81460B
:10541C00013F3A1A049F2D4839000EF040F828003D
:10542C00FAF774FE4B46C31A9BB21722FF2105985C
:10543C0004F0BCFB992221009200380008F0CAFA53
:10544C0082462000FAF762FE1D22201822490DF038
:10545C00CEFDADE6FA210120890009F017FF1F4BA4
:10546C001B78002B00D15FE71D4A1E4913882000D2
:10547C0001331380039B22000DF0BCFF2378EBE675
:10548C002722194920000DF0B2FD2378E4E62522ED
:10549C00164920000DF0ABFD2378DDE61411002039
:1054AC00588501080C850108B48401088C6C002017
:1054BC0014850108B00A0020F8850108F06B002063
:1054CC00400C0020B884010844860108540B0020CD
:1054DC0000860108840D0020AC850108540C0020C6
:1054EC0096190020248601085C8501088485010832
:1054FC0040463722039B00211F12FBB283541D3AF6
:10550C001C4803930DF07CFD2800FAF7FFFD070003
:10551C0007A8FAF7FBFD8146013F3A1A0499164891
:10552C000DF0BDFF2800FAF7F1FD4F46C31B9BB2EF
:10553C0017220399059804F039FB104B104A1B787D
:10554C004146013B5B009B5A37228A5C1341DB07C7
:10555C0006D407AB22000B4920000DF04BFF27E6C9
:10556C00992221009200049808F034FA8246F0E760
:10557C00B2467CE6840D0020540B0020B00A0020BB
:10558C00B40A0020CC850108F0B5DE4657464E46DD
:10559C00454601210023E0B587B002AA494201200B
:1055AC00D37309F073FE08F08DFAE123624A03907D
:1055BC0092681B039A4211D00125604B1978029313
:1055CC008D4206D0E1212800090308F099F8029BCE
:1055DC0019780135EDB2052DF2D102E0574B19784F
:1055EC000293574B574D1A88383553009B18564A1F
:1055FC005B009B18554A28001278009154490DF015
:10560C00F9FEA422029C0A2392005249207808F049
:10561C0033F82800FAF77AFD0A2382B229002078A1
:10562C0008F02AF800234C4A0026904699464B4D28
:10563C00029B1F787C1E285D83B2BF2B1DD8620095
:10564C0011198901414492460A5C002A0DD14A1C69
:10565C009346BF2B35D15B461A782E55002A60D164
:10566C000223CA5C1800002AF3D002A9CA7352465E
:10567C0012199201424416542B5502A884460F214C
:10568C000A2301226144380007F0F6FF02ABDB7BF2
:10569C000D2B26D00A2B11D0082B15D07F2B13D015
:1056AC001A00203A5E2A09D84A46312A06DC4C46B2
:1056BC002B4A01344A44137563B2994608F04AFBED
:1056CC00B6E701339BB2CCE74B46002BF6D04C46E9
:1056DC00013CE3B25AB29146214A944663441E758A
:1056EC00ECE7029B022218781E490A2307F0C4FF3C
:1056FC004B46002B18D01A4C029B143418782200FD
:10570C00039B0121FFF71EFD0E48210060300DF0B8
:10571C00ADFE3222002120000DF072FC00239946D0
:10572C00CCE701200123A0E706490D486031143075
:10573C000DF09CFEDFE7C046706C0020400C002092
:10574C00380000201411002054780108B00A002001
:10575C0080860108AC86010800130020C4120020CA
:10576C00941100209C9E0108F8B51A4B0C001A7875
:10577C00013A93009B18184A9B00D318DB68002B46
:10578C0018D0164EB56C002D16D02B78002B0ED0E1
:10579C00132128000DF05CFE071E10D0421B2900BF
:1057AC0020000DF07CFE01200137B764F8BDB36416
:1057BC000020FBE70020F9E7B0640500E5E72900CD
:1057CC0020000DF053FE2000FAF7A0FC2D18B56454
:1057DC000120EBE7141100208C6C002094110020A8
:1057EC00830030B518182E4980000B5C83B0012B58
:1057FC0020D0032B1BD10C18E2780630013A530051
:10580C009B18284A9B009B584118042201A81D682C
:10581C000DF0EDFB6378062B09D8234A9B00D35877
:10582C009F46291C0198FAF767FE002814D1002026
:10583C0003B030BD08188278C078D3009B181B4A7F
:10584C009B5C181A43425841C0B2F1E7291C0198DD
:10585C00FAF738FE0028EAD10021281CFAF732FEAC
:10586C0043425841E4E7291C0198FAF72BFE431EEA
:10587C009841DDE7291C0198FAF72AFE431E98414E
:10588C00D6E7291C0198FAF72DFE431E9841CFE765
:10589C00291C0198FAF73AFE0028DDD1C7E7C0466B
:1058AC008C6C0020B0000020FC7801080817002048
:1058BC00F8B5DE464E4645465746E0B508F002F9C7
:1058CC00234B060098461B78002B39D0214B224FD6
:1058DC009B4620239A46214B214D00244C37994658
:1058EC0006E0434601341B78A4B21435A34227D9F1
:1058FC002B7C002BF5D0E0B2FFF772FF0028F0D024
:10590C005B4652461A700EE04B463A00187800215E
:10591C003300FFF717FC3000FAF7F8FB0021020008
:10592C0030000DF06DFB3900E868FFF71DFF002813
:10593C00EAD1434601341B78A4B21435A342D7D81C
:10594C0000203CBC90469946A246AB46F8BDC046EA
:10595C0014110020F06B002094110020400C00204A
:10596C008C6C002000207047002370B582B00400BE
:10597C00150000930193002817D06A4601212800D6
:10598C0008F0A4F80023C356702B10D001AA0221F2
:10599C00280008F09BF80DF06AF81322104920003B
:1059AC000DF025FB002002B070BD72B6FEE7013091
:1059BC000DF05DF801AA06000221280008F086F817
:1059CC000DF055F80500F0B2290007F099FEFF2301
:1059DC002A003340034920000DF00CFDE2E7C046DD
:1059EC00688901084089010810B5002801D172B6F8
:1059FC00FEE7034B03491A880DF0FCFC002010BD98
:105A0C00CCF7FF1F7C890108002310B582B00093EE
:105A1C000023040001931000002C0FD06A460121D2
:105A2C0008F054F80378323B012B09D915220C49A4
:105A3C0020000DF0DCFA002002B010BD72B6FEE7BB
:105A4C000DF015F801A9C0B203F02CF90198FDF77F
:105A5C00BFF902000B00200002490DF0CBFCEAE775
:105A6C00C08901089C890108002310B582B0041E6E
:105A7C000093019301D172B6FEE701A9684603F0C9
:105A8C004BF8694620000DF0F1FC0198FDF7A0F9E8
:105A9C0002000B00200003490DF0ACFC002002B00A
:105AAC0010BDC046D8890108002310B582B0041E71
:105ABC000093019301D172B6FEE701A9684603F089
:105ACC002BF8694620000DF0D1FC0098FDF780F909
